:1000000068200020D10300002D0400002D04000012
:100010002D0400002D0400002D040000000000004D
:10002000000000000000000000000000D9180000DF
:100030002D04000000000000A9190000E5190000CF
:100040002D0400002D0400002D0400002D040000EC
:100050002D0400002D0400002D0400002D040000DC
:100060002D0400002D0400002D0400002D040000CC
:100070002D0400002D0400002D0400002D040000BC
:100080002D0400002D0400002D0400002D040000AC
:100090002D0400002D0400002D0400002D0400009C
:1000A0002D0400002D0400002D0400002D0400008C
:1000B0002D0400002D0400002D0400002D0400007C
:1000C0002D0400002D0400002D0400002D0400006C
:1000D0002D0400002D0400002D0400002D0400005C
:1000E0002D0400002D0400002D0400002D0400004C
:1000F0002D0400002D0400002D0400002D0400003C
:1001000080B400AF044B044A126842F002021A6045
:10011000BD465DF8047B70470480004080B400AFAA
:10012000044B044A126822F002021A60BD465DF8D0
:10013000047B70470480004080B582B000AF644B00
:10014000634A126842F001021A60614B1B68FB713E
:10015000604B604A126842F004021A605D4B5D4ACF
:10016000126842F008021A605A4B5A4A126842F06A
:1001700010021A60574B574A126842F020021A6068
:10018000554B554A126842F004021A60524B524ACB
:10019000126842F008021A604F4B4F4A126842F050
:1001A00010021A604C4B4C4A126842F020021A604E
:1001B0004A4B4A4A126822F004021A60474B474AE7
:1001C000126822F008021A60444B444A126822F076
:1001D00010021A60414B414A126822F020021A6054
:1001E0003F4B3F4A126822F004021A603C4B3C4AE3
:1001F000126822F008021A60394B394A126822F05C
:1002000010021A60364B364A126822F020021A6039
:10021000344B344A126822F004021A60314B314ADE
:10022000126822F008021A602E4B2E4A126822F041
:1002300010021A602B4B2B4A126822F020021A601F
:10024000294B294A126842F004021A60264B264ABA
:10025000126842F008021A60234B234A126842F0E7
:1002600010021A60204B204A126842F020021A60E5
:100270001E4B1E4A126842F004021A601B4B1B4AB6
:10028000126842F008021A60184B184A126842F0CD
:1002900010021A60154B154A126842F020021A60CB
:1002A000134B134A126842F010021A60FFF736FF30
:1002B000104B00221A60104B04221A600F4B40F6BC
:1002C000CF121A60FFF71CFF0837BD4680BD00BF84
:1002D00008E10F4020440040004500400C4500402C
:1002E00010450040144500401C45004000440040BB
:1002F00004E10F4004800040108000400080004076
:1003000080B485B000AF0346FB710023FB73FB791B
:10031000002B06D0094B1B68DBB203F00203FB7312
:1003200005E0064B1B68DBB203F00403FB73FB7BA9
:1003300018461437BD465DF8047B70470C800040BA
:1003400080B582B000AF0B4B1A68BB1D1046194632
:100350003222002301F0E4F80346002B09D00120EB
:10036000FFF7CEFF0346002B03D0034BFA881A6039
:10037000E9E7E8E7641C00200880004080B582B00F
:1003800000AF104B1B68184600211422002301F017
:10039000C7F80346002B13D00020FFF7B1FF034638
:1003A000002B0DD0084B1B689BB2FB80074B1A68D3
:1003B000BB1D104619463222002301F02BF8E0E75E
:1003C000DFE700BF541C002008800040501C0020C4
:1003D00080B582B000AF104B7B60104B3B6007E0F4
:1003E0003B681A1D3A607A68111D796012681A60BC
:1003F0003A680B4B9A42F3D30A480B494FF000027C
:100400008842B8BF40F8042BFFF6FAAF00F088F836
:100410000837BD4680BD00BF7C1F000000000020E3
:100420000400002008000020681C002080B400AFF9
:10043000FEE700BF80B483B000AF104B0F4A1268D4
:1004400042F020021A600D4B1B68FB710C4B0C4AEA
:10045000126842F001021A600A4B0A4A126842F01E
:1004600001021A60084B084A126842F001021A6041
:100470000C37BD465DF8047B704700BF08E10F40B4
:10048000005402401C550240FC53024080B584B029
:1004900000AF7860FFF7CEFF3023FB73FB7B0133A7
:1004A000DBB2FB73094B1A6807F10F0310461946BC
:1004B0001422002300F0AEFF054B054A126882F0BB
:1004C00001021A60642000F0A1FAE7E7641C002032
:1004D000FC53024080B500AF002000F087F90346CE
:1004E000002B07D00C4B1B6818460021002200236C
:1004F00000F090FF0020FFF703FF0346002B07D01A
:10050000064B1B68184600210022002300F082FFE2
:10051000012000F07BFADFE75C1C0020541C002067
:1005200080B586B004AF01237B6001F0C5FA01F00D
:100530009FFA002001F080FA00F0D8F8FFF7FCFDE8
:100540000120012100F00AFF0246564B1A600120EB
:10055000012100F003FF0246534B1A6001200221E3
:1005600000F0FCFE0246514B1A600120022100F00F
:10057000F5FE02464E4B1A600120002100F0EEFE0F
:1005800002464C4B1A604B4B1B68002B07D0494B63
:100590001B68184600210022002300F03BFF454B5A
:1005A0001B68184600211422002300F0B9FF012027
:1005B000002100F0D3FE02463F4B1A603E4B1B6801
:1005C000002B07D03C4B1B6818460021002200235B
:1005D00000F020FF384B1B6818460021142200232E
:1005E00000F09EFF01230093002301930023029358
:1005F00000230393314832494622002300F062F978
:1006000003467A6813407B60012300930023019323
:1006100000230293002303932A482B4946220023F8
:1006200000F050F90123009300230193002302936B
:1006300000230393254826494622002300F042F96F
:1006400001230093002301930023029300230393CB
:10065000204821494622002300F034F90123009369
:100660000023019300230293002303931B481C499A
:100670004622002300F026F9012300930023019372
:1006800000230293002303931648174946220023B0
:1006900000F018F900F000FA012318460837BD46AB
:1006A00080BD00BF581C0020501C0020601C002092
:1006B000641C00205C1C0020541C00208D040000E1
:1006C000141F00003D080000201F000071080000FA
:1006D000301F0000D5040000401F00007D03000013
:1006E000541F000041030000641F000080B400AFED
:1006F000254B254A126842F001021A60234B234A17
:10070000126842F001021A60214B214A126842F03D
:1007100001021A601E4B1E4A126842F002021A6061
:100720001C4B1C4A126842F001021A60194B194A0C
:10073000126842F002021A60174B174A126822F040
:1007400001021A60154B154A126842F4FE621A60E3
:10075000134B1B221A60134B08221A60124B124AC9
:10076000126842F060021A600B4B0B4A126842F4A6
:1007700080721A60084B084A126842F001021A603F
:10078000BD465DF8047B704704E10F4008E10F406F
:10079000204400401C45004030C0004044C00040A0
:1007A00024C0004028C000402CC0004080B582B06A
:1007B00000AF0346FB71012000F018F80346002B40
:1007C00002D0034BFA791A600837BD4680BD00BFDE
:1007D00000C0004080B400AF034B1B68DBB218467A
:1007E000BD465DF8047B704700C0004080B485B012
:1007F00000AF0346FB710023FB73FB79002B0AD08B
:100800000D4B1B6803F02003002B14BF00230123B2
:10081000DBB2FB7309E0084B1B6803F01003002BED
:1008200014BF00230123DBB2FB73FB7B1846143794
:10083000BD465DF8047B704718C0004080B582B0AB
:1008400000AF0023FB71094B1A68FB1D10461946C7
:100850001422002300F064FE0346002B04D0FB7931
:100860001846FFF7A3FFEEE7EDE700BF501C00209E
:1008700080B582B000AF0023FB71104B1B68184697
:1008800000211422002300F04BFE0346002B13D05E
:100890000020FFF7ABFF0346002B0DD0FFF79AFFB8
:1008A0000346FB71064B1A68FB1D1046194664226D
:1008B000002300F0AFFDE0E7DFE700BF5C1C002095
:1008C000581C002080B58AB002AFF860B9603B6068
:1008D0001346FB80FB881846396B00F0B9FBB86102
:1008E000BB69002B66D0BB691A6BFB8803F18043A0
:1008F000013B9B0013447B617B6923F007037B6111
:10090000FB880093B869B968BA6A7B6B00F030FB6A
:100910007869F9683A6800F0B5FF0246BB691A6069
:1009200001F01AF8324B1B685A1C314B1A60304BDD
:100930001B68012B05D12F4BBA691A6000F04EFBE2
:100940000CE02D4B1B68002B08D12A4B1B68DA6A80
:10095000BB6A9A4202D8274BBA691A60BB69DA6A45
:10096000264B1B689A4203D9BB69DA6A234B1A608B
:10097000234B1B685A1C224B1A60BB69DA6A214B55
:100980001B689A4203D9BB69DA6A1E4B1A60BB69BD
:10099000DA6A13469B0013449B001B4A1A44BB6946
:1009A00004331046194600F051FC0123FB6100F0AE
:1009B000E5FF02E04FF0FF33FB61FB69012B11D132
:1009C000FB6A002B02D0FB6ABA691A600A4B1B68EB
:1009D000002B07D0074B1B68DA6ABB6A9A4201D228
:1009E00000F0AEFFFB6918462037BD4680BD00BF52
:1009F000B400002008000020C4000020BC0000203B
:100A0000D8000020C00000200C00002080B584B079
:100A100000AF78600023FB607B68002B2BD000F0D8
:100A200067F8194B1A687B681344BB60174B1B6847
:100A30000433184600F06AFC144B1B68BA685A600D
:100A4000114B1B68BA689A4209D2114B1A680F4BB6
:100A50001B6804331046194600F020FC08E00D4BDB
:100A60001A680A4B1B6804331046194600F016FC3E
:100A700000F04CF8F860FB68002B01D100F060FF3B
:100A80001037BD4680BD00BFB80000200800002020
:100A90009C0000209800002080B586B004AF0023A1
:100AA00000930023019300230293002303930C4837
:100AB0000C4946220023FFF705FF78607B68012B75
:100AC0000BD14FF0BF0080F31188074B01221A6051
:100AD000064B00221A6000F017FF0837BD4680BDA4
:100AE000610F0000741F0000C4000020B800002047
:100AF00080B400AF044B1B685A1C034B1A60BD4600
:100B00005DF8047B704700BFC800002090B583B03B
:100B100000AF00237B6000F01FFF344B1B685A1EA0
:100B2000324B1A60314B1B68002B57D1304B1B687E
:100B3000002B53D000233B6024E004F11803184637
:100B400000F0E4FB231D184600F0E0FBE26A294BAD
:100B50001B689A4202D9E26A264B1A60E26A13467F
:100B60009B0013449B00244A1A44231D1046194637
:100B700000F06CFBE26A214B1B68DB6A9A4201D3EE
:100B800001233B601E4B1B68002B03D01C4BDB6812
:100B9000DB6800E000231C46002CCED1194B1B68FB
:100BA000002B0DD006E000F031F8164B1B685A1EE2
:100BB000144B1A60134B1B68002BF4D101233B60CC
:100BC0003B68012B03D0104B1B68012B06D101237E
:100BD0007B600D4B00221A6000F0B2FE00F0CEFEEA
:100BE0007B6818460C37BD4690BD00BFC80000208A
:100BF000B4000020C00000200C00002008000020ED
:100C0000A0000020CC000020D000002090B583B0D0
:100C100000AF2D4B1B68002B4ED12C4B1B685A1C70
:100C20002A4B1A60294B1B68002B0FD1284B1B68DD
:100C30007B60284B1A68264B1A60264B7A681A602C
:100C4000254B1B685A1C244B1A6026E025E062687D
:100C50001E4B1B689A4200D92DE0231D184600F058
:100C600055FBA36A002B04D004F11803184600F0CA
:100C70004DFBE26A194B1B689A4202D9E26A174B94
:100C80001A60E26A13469B0013449B00144A1A44FC
:100C9000231D1046194600F0D9FA0D4B1B681B683E
:100CA000002B04D00A4B1B68DB68DB6800E00023E4
:100CB0001C46002CCBD104E00A4B1B685A1C094B84
:100CC0001A600C37BD4690BDC8000020B800002057
:100CD000980000209C000020D4000020C0000020CC
:100CE0000C000020CC00002080B483B000AF1E4B6D
:100CF0001B68002B03D01D4B01221A602EE004E07C
:100D00001B4B1B685A1E1A4B1A60194B1A6819495B
:100D100013469B0013449B000B441B68002BEFD031
:100D2000134B1A6813469B0013449B00114A13444B
:100D30007B607B685B685A687B685A607B685A682E
:100D40007B6808339A4204D17B685B685A687B6889
:100D50005A607B685B68DA68074B1A600C37BD46DF
:100D60005DF8047B704700BFC8000020D000002061
:100D7000C00000200C0000200800002080B584B0D6
:100D800000AF78603960184B1B68183378681946D3
:100D900000F084FA144B1B680433184600F0B6FACE
:100DA000124B1A683B681344FB600F4B1B68FA68D0
:100DB0005A600E4B1B68FA689A4209D20C4B1A68AB
:100DC000094B1B6804331046194600F067FA08E027
:100DD000084B1A68044B1B6804331046194600F090
:100DE0005DFA1037BD4680BD08000020B800002025
:100DF0009C0000209800002080B584B000AF78608F
:100E00007B681B68002B03D07B68DB68DB6800E035
:100E10000023BB60BB681833184600F077FA1C4B00
:100E20001B68002B1DD1BB680433184600F06EFA16
:100E3000BB68DA6A174B1B689A4203D9BB68DA6A47
:100E4000144B1A60BB68DA6A13469B0013449B007C
:100E5000114A1A44BB6804331046194600F0F6F9EB
:100E600005E0BB6818330D48194600F0EFF9BB6880
:100E7000DA6A0B4B1B68DB6A9A4202D30123FB60E0
:100E800001E00023FB60FB6818461037BD4680BDBB
:100E9000C8000020C00000200C000020A00000209E
:100EA0000800002080B483B000AF7860064B1A6859
:100EB0007B681A60054B1A687B685A600C37BD4620
:100EC0005DF8047B704700BFD4000020B80000200C
:100ED00080B584B000AF7860396000F03DFD7B687C
:100EE0001A68174B1B689A4208D07B685A68154BE2
:100EF0001B689A4202D80123FB601AE0114B1A6862
:100F00007B685B68D21A3B681B689A420FD23B68C9
:100F10001A687B6859680B4B1B68CB1A1A443B68EC
:100F20001A607868FFF7BEFF0023FB6001E0012331
:100F3000FB6000F023FDFB6818461037BD4680BDFE
:100F4000D4000020B800002080B400AF034B012281
:100F50001A60BD465DF8047B704700BFD0000020DA
:100F600080B582B000AF786000F06CF8FCE700BF9D
:100F700080B584B000AFF860B9607A603B60FB6810
:100F800034331846B9680A2200F092FFFB68002249
:100F900083F83D207B68042B01D904237B60FB6828
:100FA0007A68DA62FB687A681A64FB680433184668
:100FB00000F040F9FB681833184600F03BF9FB6875
:100FC000FA681A617B68C3F10502FB689A61FB68E5
:100FD000FA685A621037BD4680BD00BF80B582B046
:100FE00000AF00237B600CE07A6813469B0013443B
:100FF0009B000E4A1344184600F0FCF87B6801334E
:101000007B607B68042BEFD9094800F0F3F80948AE
:1010100000F0F0F8084800F0EDF8084B044A1A60B8
:10102000074B044A1A600837BD4680BD0C000020FB
:101030007000002084000020A00000209800002004
:101040009C00002080B400AFBD465DF8047B704773
:1010500080B584B000AF03463960FB80442000F0C7
:1010600089FDF860FB68002B1FD03B68002B06D180
:10107000FB889B00184600F07DFD034600E03B68BE
:10108000FA681363FB681B6B002B05D1F86800F04E
:1010900017FE0023FB6008E0FB681A6BFB889B00CF
:1010A0001046A5211A4600F0B9FEFB681846103715
:1010B000BD4680BD80B483B000AF054B1B687B602C
:1010C0007B6818460C37BD465DF8047B704700BF4F
:1010D0000800002080B584B000AF78607B68FB60BA
:1010E000FB68DA6A214B1B68DB6A9A423AD21F4BD3
:1010F0001B68DB6AC3F10502FB689A61FB685969EA
:10110000FB68DA6A13469B0013449B00184A134499
:10111000994222D1FB680433184600F0F7F8134BCC
:101120001B68DA6AFB68DA62FB68DA6A114B1B68D3
:101130009A4203D9FB68DA6A0E4B1A60FB68DA6AD6
:1011400013469B0013449B00094A1A44FB6804336E
:101150001046194600F07AF804E0044B1B68DA6A7E
:10116000FB68DA621037BD4680BD00BF0800002072
:101170000C000020C000002080B584B000AF786073
:101180007B68FB607B68002B2CD0FB68DA6AFB680D
:101190001B6C9A4226D0FB680433184600F0B6F860
:1011A000FB681A6CFB68DA62FB68DB6AC3F1050254
:1011B000FB689A61FB68DA6A0C4B1B689A4203D998
:1011C000FB68DA6A094B1A60FB68DA6A13469B000F
:1011D00013449B00064A1A44FB6804331046194620
:1011E00000F034F81037BD4680BD00BFC0000020BD
:1011F0000C00002080B483B000AF78607B6803F1FE
:1012000008027B685A607B684FF0FF329A607B6807
:1012100003F108027B68DA607B6803F108027B68EF
:101220001A617B6800221A600C37BD465DF8047BAA
:10123000704700BF80B483B000AF78607B68002245
:101240001A610C37BD465DF8047B704780B485B0E9
:1012500000AF786039607B685B68FB60FB685A6848
:101260003B685A607B685A683B689A60FB685B68B9
:101270003A689A60FB683A685A607B683A685A60D4
:101280003B687A681A617B681B685A1C7B681A6025
:101290001437BD465DF8047B704700BF80B485B04D
:1012A00000AF786039603B681B68BB60BB68B3F116
:1012B000FF3F03D17B681B69FB600CE07B68083350
:1012C000FB6002E0FB685B68FB60FB685B681A68B8
:1012D000BB689A42F6D9FB685A683B685A603B681B
:1012E0005B683A689A603B68FA689A60FB683A689B
:1012F0005A603B687A681A617B681B685A1C7B6875
:101300001A601437BD465DF8047B704780B485B021
:1013100000AF78607B685B687A6892689A607B68E7
:101320009B687A6852685A607B681B69FB60FB683F
:101330005A687B689A4203D17B689A68FB685A6056
:101340007B6800221A61FB681B685A1EFB681A60E2
:101350001437BD465DF8047B704700BF80B584B08C
:1013600000AF786039607B68002B4DD04C2000F0D6
:1013700001FCF860FB68002B46D07B683A6802FBF2
:1013800003F30133BB60B86800F0F4FB0246FB686E
:101390001A60FB681B68002B33D0FB681A687B68F7
:1013A000396801FB03F31A44FB685A60FB680022AA
:1013B0009A63FB681A68FB689A60FB681A687B6826
:1013C000013B396801FB03F31A44FB68DA60FB68F0
:1013D0007A68DA63FB683A681A64FB684FF0FF3298
:1013E0005A64FB684FF0FF329A64FB68103318466A
:1013F000FFF700FFFB6824331846FFF7FBFEFB688E
:1014000003E0F86800F05CFC002318461037BD4686
:1014100080BD00BF80B588B000AFF860B9607A6069
:101420003B600023FB6100F097FAFB689A6BFB6856
:10143000DB6B9A4216D2F868B9683A6800F026F970
:10144000FB685B6A002B09D0FB6824331846FFF762
:10145000D3FC0346012B01D100F072FA00F08EFAA2
:10146000012359E07B68002B03D100F087FA0023A9
:1014700052E0FB69002B06D107F114031846FFF771
:1014800011FD0123FB6100F079FAFFF731FB00F059
:1014900063FAFB685B6CB3F1FF3F02D1FB6800228B
:1014A0005A64FB689B6CB3F1FF3F02D1FB680022DA
:1014B0009A6400F063FA07F114023B1D10461946C6
:1014C000FFF706FD0346002B1ED1F86800F0C2F9B5
:1014D0000346002B12D0FB6803F110027B68104614
:1014E0001946FFF74BFCF86800F052F9FFF70EFBC6
:1014F0000346002B0FD100F023FA0CE0F86800F04F
:1015000047F9FFF703FB8EE7F86800F041F9FFF7B2
:10151000FDFA002300E086E718462037BD4680BD6F
:1015200080B588B000AFF860B9607A603B60002396
:10153000FB6100F011FAFB689B6B002B3BD0FB6852
:10154000DB68BB61F868B96800F0FCF83B68002B09
:101550001CD1FB689B6B5A1EFB689A63FB681B6877
:10156000002B04D1FFF7A6FD0246FB685A60FB681A
:101570001B69002B1BD0FB6810331846FFF73CFC9F
:101580000346012B13D100F0DBF910E0FB68BA69C8
:10159000DA60FB685B6A002B09D0FB6824331846CD
:1015A000FFF72AFC0346002B01D000F0C9F900F038
:1015B000E5F9012366E07B68002B03D100F0DEF93A
:1015C00000235FE0FB69002B06D107F110031846EA
:1015D000FFF768FC0123FB6100F0D0F9FFF788FA00
:1015E00000F0BAF9FB685B6CB3F1FF3F02D1FB6816
:1015F00000225A64FB689B6CB3F1FF3F02D1FB6889
:1016000000229A6400F0BAF907F110023B1D10465F
:101610001946FFF75DFC0346002B2BD1F86800F05C
:1016200003F90346002B1FD0FB681B68002B08D171
:1016300000F092F9FB685B681846FFF74BFD00F07D
:101640009DF9FB6803F124027B6810461946FFF7F9
:1016500095FBF86800F09CF8FFF758FA0346002B5A
:101660000FD100F06DF90CE0F86800F091F8FFF789
:101670004DFA5EE7F86800F08BF8FFF747FA0023B1
:1016800000E056E718462037BD4680BD80B584B0DF
:1016900000AFF860B9607A60FB681B6C002B0CD15E
:1016A000FB681B68002B45D1FB685B681846FFF799
:1016B00063FDFB6800225A603CE07B68002B1AD176
:1016C000FB689A68FB681B6C1046B9681A4600F004
:1016D0002FFBFB689A68FB681B6C1A44FB689A60D6
:1016E000FB689A68FB685B689A4223D3FB681A68B8
:1016F000FB689A601EE0FB68DA68FB681B6C1046AA
:10170000B9681A4600F014FBFB68DA68FB681B6CCA
:101710005B421A44FB68DA60FB68DA68FB681B68A6
:101720009A4207D2FB685A68FB681B6C5B421A44FA
:10173000FB68DA60FB689B6B5A1CFB689A63103786
:10174000BD4680BD80B582B000AF786039607B68EF
:101750001B68002B19D07B68DA687B681B6C1A4405
:101760007B68DA607B68DA687B685B689A4203D3DF
:101770007B681A687B68DA607B68DA687B681B6C58
:10178000386811461A4600F0D3FA0837BD4680BDC6
:1017900080B582B000AF786000F0DEF814E07B68BE
:1017A0005B6A002B0FD07B6824331846FFF724FBBD
:1017B0000346002B01D0FFF7C7FB7B689B6C5A1ECA
:1017C0007B689A6400E003E07B689B6C002BE6DC9E
:1017D0007B684FF0FF329A6400F0D0F800F0BCF85C
:1017E00014E07B681B69002B0FD07B681033184610
:1017F000FFF702FB0346002B01D0FFF7A5FB7B6838
:101800005B6C5A1E7B685A6400E003E07B685B6C8B
:10181000002BE6DC7B684FF0FF325A6400F0AEF834
:101820000837BD4680BD00BF80B584B000AF78608A
:1018300000F092F87B689B6B002B14BF0023012300
:10184000DBB2FB6000F09AF8FB6818461037BD4623
:1018500080BD00BF80B584B000AF786000F07CF838
:101860007B689A6B7B68DB6B9A4214BF0023012371
:10187000DBB2FB6000F082F8FB6818461037BD460B
:1018800080BD00BF80B485B000AFF860B9607A60F9
:10189000FB68043BFB60FB684FF080721A60FB68DA
:1018A000043BFB60BA68FB681A60FB68043BFB60A2
:1018B000FB6800221A60FB68143BFB607A68FB68D7
:1018C0001A60FB68203BFB60FB6818461437BD4676
:1018D0005DF8047B704700BF064B19680868B0E8E4
:1018E000F00F80F309884FF0000080F311884EF06C
:1018F0000D0E70470800002002480068006880F361
:10190000088800DF08ED00E080B500AF0A4B0A4A06
:10191000126842F47F021A60074B074A126842F0CD
:101920007F421A6000F076F8044B00221A60FFF73D
:10193000E3FF0023184680BD20ED00E000000020FA
:1019400080B400AF034B4FF080521A60BD465DF883
:10195000047B704704ED00E080B400AF4FF0BF009F
:1019600080F31188044B1B685A1C034B1A60BD4658
:101970005DF8047B704700BF0000002080B400AF1A
:10198000084B1B685A1E074B1A60064B1B68002B3E
:1019900003D14FF0000080F31188BD465DF8047B51
:1019A000704700BF00000020EFF309800C4B1A685D
:1019B00020E9F00F10602DE908404FF0BF0080F3E0
:1019C0001188FFF791F94FF0000080F31188BDE80E
:1019D000084019680868B0E8F00F80F3098870477C
:1019E0000800002080B582B000AF094B4FF0805254
:1019F0001A6000237B604FF0BF0080F31188FFF76F
:101A000005F94FF0000080F311880837BD4680BD0E
:101A100004ED00E080B400AF044B054A1A60054BAA
:101A200007221A60BD465DF8047B704714E000E0B1
:101A30008FD0030010E000E080B483B000AF034615
:101A4000FB71FB79002B06D1084B084A126842F063
:101A500002021A6005E0054B044A126822F00202F5
:101A60001A600C37BD465DF8047B7047FC6302408A
:101A700080B483B000AF0D4B0C4A126842F04002B4
:101A80001A600A4B1B68FB71094B094A126842F045
:101A900002021A60074B074A126842F002021A60FB
:101AA0000C37BD465DF8047B704700BF08E10F406E
:101AB000006402401C65024080B400AF2B4B2B4AEF
:101AC000126842F400621A60284B284A126822F415
:101AD00080021A60254B254A126842F001021A6002
:101AE000234B234A126822F040021A601F4B1F4A00
:101AF000126822F470721A601C4B1C4A126842F47D
:101B000060721A60194B194A126822F030021A608A
:101B1000164B164A12681A60144B144A126822F4C3
:101B200000521A60114B114A126822F0F0621A60DA
:101B30000E4B0E4A126842F080721A600B4B0B4A31
:101B4000126842F480021A6000BF094B1B6803F060
:101B50004003002BF9D0054B044A126822F40062BE
:101B60001A60BD465DF8047B704700BF60E00F401F
:101B700050E00F4080B58AB000AF78600023FB6171
:101B8000FEF7B6FF494B1B68002B1CD1484B494A56
:101B90001A60474B00225A60474B41F658325A6050
:101BA000454B00221A60434B7B617B6941F65832FA
:101BB0005A607B69404A1A60404B41F658321A60BD
:101BC0003A4B01221A607B68002B0DD010237A68F3
:101BD00013447B607B6803F00703002B04D07B6811
:101BE00023F0070308337B607B68002B56D07A68AC
:101BF00041F657339A4251D82D4B3B622C4B1B6810
:101C00007B6204E07B6A3B627B6A1B687B627B6A67
:101C10005A687B689A4203D27B6A1B68002BF1D119
:101C20007A6A254B9A4239D03B6A1A6810231344CA
:101C3000FB617B6A1A683B6A1A607B6A5A687B6838
:101C4000D21A10235B009A4222D97A6A7B68134425
:101C50003B617B6A5A687B68D21A3B695A607B6A2F
:101C60007A685A603B695B68FB60114BBB6102E0BC
:101C7000BB691B68BB61BB691B685A68FB689A42F9
:101C8000F6D3BB691A683B691A60BB693A691A6086
:101C90000A4B1A687B68D21A084B1A60FEF736FFA7
:101CA000FB6918462837BD4680BD00BF4C1C00208C
:101CB000381C0020E0000020401C0020481C0020B0
:101CC00080B586B000AF78607B683B617B68002B95
:101CD00027D010235B423A6913443B613B69FB60A8
:101CE000FEF706FFFB685B68BB600F4B7B6102E0A1
:101CF0007B691B687B617B691B685A68BB689A4279
:101D0000F6D37B691A68FB681A607B69FA681A6007
:101D1000FB685A68054B1B681A44044B1A60FEF7AF
:101D2000F5FE1837BD4680BD381C0020481C002039
:101D3000844641EA000313F0030349D1403A23D318
:101D40000B6803604B6843608B688360CB68C3603B
:101D50000B6903614B6943618B698361CB69C36123
:101D60000B6A03624B6A43628B6A8362CB6AC3620B
:101D70000B6B03634B6B43638B6B8363CB6BC363F3
:101D800040304031403ADBD230320BD30B68036035
:101D90004B6843608B688360CB68C3601030103140
:101DA000103AF3D20C3205D351F8043B40F8043B0F
:101DB000043AF9D2043208D0D2071CBF11F8013B13
:101DC00000F8013B01D30B8803806046704700BFD9
:101DD000082A13D38B07B1D010F00303AED0C3F1A0
:101DE0000403D21ADB071CBF11F8013B00F8013BCA
:101DF000A4D331F8023B20F8023B9FE7043AD9D341
:101E0000013A11F8013B00F8013BF9D20B7803705D
:101E10004B7843708B78837060467047F0B48407CA
:101E200043D0541E002A3ED0CDB2034603E0621ECA
:101E3000002C38D0144603F8015B9A07F7D1032C25
:101E40002AD9CDB245EA05250F2C45EA054515D915
:101E5000A4F110073F0903F1100606EB07161A4616
:101E6000156055609560D5601032B242F8D104F02B
:101E70000F040137032C03EB07130DD91E4622462E
:101E8000043A032A46F8045BFAD8221F22F0030220
:101E90000432134404F003042CB1C9B21C4403F807
:101EA000011BA342FBD1F0BC704714460346C6E7B2
:101EB00040EA01039B0770B42AD1032A28D90C46B3
:101EC0000346214654F8045BA5F1013626EA0506CF
:101ED00016F0803F05D1043A032A43F8045B2146FB
:101EE000EFD89AB10C78013A1C7001333CB16AB159
:101EF00011F8014F013A03F8014B002CF7D12AB138
:101F00001A44002103F8011B9342FBD170BC7047B7
:101F10000346E6E75374617475735F6C6564000093
:101F20007472616E736D69745F5461736B0000004D
:101F3000726563656976655F5461736B00000000CC
:101F4000706F6C655F72656769737465725F7461E9
:101F5000736B0000737069526563656976655461DF
:101F6000736B00007370695472616E736D697454A1
:0C1F700061736B0049444C450000000008
:041F7C00AAAAAAAAB9
:00000001FF
