:1000000008040020010400005D0400005D040000FD
:100010005D0400005D0400005D04000000000000BD
:100020000000000000000000000000005D0400006F
:100030005D040000000000005D04000025060000D3
:100040005D0400005D0400005D0400005D0400002C
:100050005D0400005D0400005D0400005D0400001C
:100060005D0400005D0400005D0400005D0400000C
:100070005D0400005D0400005D0400005D040000FC
:100080005D0400005D0400005D0400005D040000EC
:100090005D0400005D0400005D0400005D040000DC
:1000A0005D0400005D0400005D0400005D040000CC
:1000B0005D0400005D0400005D0400005D040000BC
:1000C0005D0400005D0400005D0400005D040000AC
:1000D0005D0400005D0400005D0400005D0400009C
:1000E0005D0400005D0400005D0400005D0400008C
:1000F0005D0400005D0400005D0400005D0400007C
:1001000080B400AF044B044A126842F002021A6045
:10011000BD465DF8047B70470480004080B400AFAA
:10012000044B044A126822F002021A60BD465DF8D0
:10013000047B70470480004080B582B000AF624B02
:10014000614A126842F001021A605F4B1B68FB7142
:100150005E4B5E4A126842F004021A605B4B5B4AD7
:10016000126842F008021A60584B584A126842F06E
:1001700010021A60554B554A126842F020021A606C
:10018000534B534A126842F004021A60504B504AD3
:10019000126842F008021A604D4B4D4A126842F054
:1001A00010021A604A4B4A4A126842F020021A6052
:1001B000484B484A126822F004021A60454B454AEF
:1001C000126822F008021A60424B424A126822F07A
:1001D00010021A603F4B3F4A126822F020021A6058
:1001E0003D4B3D4A126822F004021A603A4B3A4AEB
:1001F000126822F008021A60374B374A126822F060
:1002000010021A60344B344A126822F020021A603D
:10021000324B324A126822F004021A602F4B2F4AE6
:10022000126822F008021A602C4B2C4A126822F045
:1002300010021A60294B294A126822F020021A6023
:10024000274B274A126842F004021A60244B244AC2
:10025000126842F008021A60214B214A126842F0EB
:1002600010021A601E4B1E4A126842F020021A60E9
:100270001C4B1C4A126842F004021A60194B194ABE
:10028000126842F008021A60164B164A126842F0D1
:1002900010021A60134B134A126842F020021A60CF
:1002A000114B10221A60FFF739FF104B00221A6021
:1002B0000F4B04221A600F4B40F6C7121A60FFF76B
:1002C0001FFF0837BD4680BD08E10F4020440040B5
:1002D000004500400C4500401045004014450040DA
:1002E0001C4500400044004004E10F4004800040F1
:1002F000108000400080004080B582B000AF00F068
:10030000A9F900F0AFF800F03BF800F01DF9FFF795
:1003100013FF00F045F900F095F90023FB71FFE7AA
:1003200000BF134B1B889BB2002BFAD0104B1B88CD
:100330009BB29BB2013B9AB20D4B1A800D4B1B88AE
:10034000013B9AB20B4B1A800A4B1B88002B0ED133
:10035000084B64221A80084B074A126882F0010297
:100360001A60064AFB79591CF9711360D8E7D7E780
:100370000400002000000020FC53024008800040E0
:1003800080B483B000AF174B23221A60164B164A75
:10039000126842F0C0021A60144B144A126842F00C
:1003A0007C021A600F4B1B68FB71114B104A1268DC
:1003B00042F0C0021A600F4B0E4A126842F07C02F3
:1003C0001A600D4B0C4A126842F002021A600B4B85
:1003D0000A4A126842F002021A600C37BD465DF804
:1003E000047B704708E10F401C4500401C5500404D
:1003F00000440040005400401C550240105502408B
:1004000080B582B000AF104B7B60104B3B6007E0C3
:100410003B681A1D3A607A68111D796012681A608B
:100420003A680B4B9A42F3D30A480B494FF000024B
:100430008842B8BF40F8042BFFF6FAAFFFF75CFF25
:100440000837BD4680BD00BF6406000000000020E4
:1004500004000020040000200800002080B400AF49
:10046000FEE700BF80B483B000AF344B334A12685C
:1004700042F400621A60314B304A126822F4800262
:100480001A602E4B2D4A126842F001021A602C4B62
:100490006FF040021A60294B284A126822F47072E9
:1004A0001A60264B254A126842F460721A60234B88
:1004B000224A126822F030021A60204B1F4A12684A
:1004C0001A601E4B1D4A126822F400521A601D4B1E
:1004D0007B6002E07B68013B7B607B68002BF9D18D
:1004E000164B164A126822F0F0621A60134B134A38
:1004F000126842F0C0721A60104B104A126842F43F
:1005000080021A6000BF0E4B1B6803F04003002BF3
:10051000F9D00A4B094A126822F400621A60094BAA
:100520007B6002E07B68013B7B607B68002BF9D13C
:100530000C37BD465DF8047B704700BF60E00F409C
:1005400050E00F40400D030080B483B000AF104B6B
:100550000F4A126842F020021A600D4B1B68FB71B3
:100560000C4B0C4A126842F001021A600A4B0A4A0C
:10057000126842F001021A60084B084A126842F001
:1005800001021A600C37BD465DF8047B704700BF5E
:1005900008E10F40005402401C550240FC53024049
:1005A00080B400AF194B194A126822F001021A6098
:1005B000174B184A1A60184B164A1A60174B174AFD
:1005C000126842F000721A60154B154A126822F048
:1005D0007F421A60124B124A126842F0FC421A60C3
:1005E0000A4B0A4A126842F004021A60074B074A93
:1005F000126842F002021A60044B044A126842F088
:1006000001021A60BD465DF8047B704710E000E00F
:1006100018E000E090D0030014E000E004ED00E0FA
:1006200020ED00E080B400AF054B1B889BB29BB26D
:1006300001339AB2024B1A80BD465DF8047B7047C5
:100640000400002080B400AF62B6BD465DF8047BB4
:10065000704700BF80B400AF72B6BD465DF8047B42
:04066000704700BF20
:04066400640000002E
:00000001FF
