:1000000098590020690F0000C50F0000C50F0000BF
:10001000C50F0000C50F0000C50F00000000000064
:10002000000000000000000000000000C50F0000FC
:10003000C50F000000000000C50F000019140000EB
:10004000C50F0000C50F0000C50F0000C50F000060
:10005000C50F0000C50F0000C50F0000C50F000050
:10006000C50F0000C50F0000C50F0000C50F000040
:10007000C50F0000C50F0000C50F0000C50F000030
:10008000C50F0000C50F0000C50F0000C50F000020
:10009000C50F0000C50F0000C50F0000C50F000010
:1000A000C50F0000C50F0000C50F0000C50F000000
:1000B000C50F0000C50F0000C50F0000C50F0000F0
:1000C000C50F0000C50F0000C50F0000C50F0000E0
:1000D000C50F0000C50F0000C50F0000C50F0000D0
:1000E000C50F0000C50F0000C50F0000C50F0000C0
:1000F000C50F0000C50F0000C50F0000C50F0000B0
:1001000080B500AF01204FF47A7100F059FE80BD38
:1001100080B500AF054B054A126882F001021A60F3
:100120004FF47A7000F0BEFD80BD00BFFC5302406A
:1001300090B587B000AF01F067F901F0EBF800F07F
:10014000C5FA00F055FD134C3B461846102101221C
:1001500000F03CFF23463A4607CA83E807000E4CEE
:100160003B4618461021012200F030FF23463A4654
:1001700007CA83E8070001F03FF900237B6102E032
:100180007B6901337B617A69044B9A42F8D900F0AC
:100190007BFEFEE72811002034110020FDFFFF0048
:1001A00080B500AF2F4B2F4A126842F480121A60BC
:1001B0002D4B2D4A126842F002021A602B4B2B4A3B
:1001C000126842F003021A60294B294A126842F071
:1001D00003021A60274B274A126842F480121A6001
:1001E000244B244A126822F460221A60214B214ACF
:1001F000126842F480221A601F4B1F4A126822F0D4
:1002000001021A601D4B1D4A126842F08C021A60EE
:100210001B4A1B4B1B6843F4006343F00C03136041
:10022000184B184A126842F00C021A60164B40F242
:100230002B121A60154B00221A60154B00221A600F
:100240000D4B0D4A126842F001021A60114B114A1F
:10025000126842F00C021A600220002100F0B0FD8A
:1002600080BD00BF00E10F4008E10F402054004076
:100270001C55004060E00F4080800240A08002409A
:10028000A48002400C80024090800240988002408E
:100290009C8002400880024098B500AF012000F029
:1002A000FDFF694B1B681B0E0020194600F06EFA1B
:1002B000654B1B681B0C0020194600F067FA624B67
:1002C0001B681B0A0020194600F060FA5E4B1B6891
:1002D0000020194600F05AFA5C4B1B881BB25C4A9E
:1002E000D35C0020194600F051FA5A4B1B88002BB2
:1002F00040F08E80022000F0D1FF574B1B881BB2CC
:100300005A1E564B83FB02139911D317CB1A4FF485
:100310007A7101FB03F3D31A514AD25C4E4B1B880E
:100320001BB24F49CB5C9A4216D0484B1B88013315
:100330009AB2464B1A80454B1B881BB2474A82FB38
:1003400003129111DA178A1A4FF47A7101FB02F243
:100350009B1A9AB23D4B1A803C4B1B881BB23C4AFD
:10036000D35C322B1ED93F4B00221A603E4C374BD8
:100370001B881BB2364AD35C323B184601F012FA96
:1003800002460B46104619462DA3D3E9002301F07F
:100390006FFA02460B461046194601F07BFC0346F5
:1003A00023601EE0304B00221A602E4C274B1B8826
:1003B0001BB2274AD35CC3F13203184601F0F2F9AD
:1003C00002460B46104619461DA3D3E9002301F04F
:1003D0004FFA02460B461046194601F05BFC0346F5
:1003E00023601D4B1B8801339AB21B4B1A801A4B9A
:1003F0001B881BB2194A82FB03129111DA178A1A61
:100400004FF47A7101FB02F29B1A9AB2124B1A80D6
:10041000104B1B8801339AB20E4B1A800D4B1B8870
:100420001BB20E4A82FB03129111DA178A1A4FF49B
:100430007A7101FB02F29B1A9AB2064B1A8098BDA0
:10044000D7A3703D0AD707400000002034100020D9
:10045000040000203610002038100020D34D621018
:10046000EC0300209C80024098800240AFF30080A3
:1004700080B500AF0B4B0B4A126842F002021A60C3
:10048000094B094A126822F00C021A60074B074A0E
:10049000126842F00C021A600020002100F090FC6B
:1004A00080BD00BF08E10F40005400401C550040D3
:1004B00080B483B000AF414B1B68DBB203F00C0388
:1004C000FB71FB799B08FB713D4B1B78032B6FD8AD
:1004D00001A252F823F000BFE90400001B05000050
:1004E0007F0500004D050000FB79022B08D1344B3D
:1004F00002221A70334B1B685A1E324B1A600BE0F3
:10050000FB79012B08D12E4B01221A702D4B1B6851
:100510005A1C2C4B1A604CE04BE0FB79032B08D1A2
:10052000274B03221A70274B1B685A1C254B1A6055
:100530000BE0FB79002B08D1214B00221A70214BD4
:100540001B685A1E1F4B1A6033E032E0FB79022B06
:1005500008D11B4B02221A701A4B1B685A1C194BEC
:100560001A600BE0FB79012B08D1154B01221A70A0
:10057000144B1B685A1E134B1A601AE019E0FB79E2
:10058000032B08D10E4B03221A700E4B1B685A1E08
:100590000C4B1A600BE0FB79002B08D1084B0022B2
:1005A0001A70084B1B685A1C064B1A6001E000E0E9
:1005B00000BF0C37BD465DF8047B7047FC5300401C
:1005C0003A1000200000002080B500AF0520002177
:1005D00000F0F6FB80BD00BF80B500AF0320002116
:1005E00000F0EEFB80BD00BF80B485B000AF0346D5
:1005F000FB710023FB73FB79002B0AD00D4B1B68AA
:1006000003F02003002B14BF00230123DBB2FB7394
:1006100009E0084B1B6803F01003002B14BF0023F4
:100620000123DBB2FB73FB7B18461437BD465DF834
:10063000047B704718C0004080B400AF034B1B68B8
:10064000DBB21846BD465DF8047B704700C0004031
:1006500080B582B000AF0023FB800020FFF7C4FF0D
:100660000346002B0ED0094800F0A8FD0346002BDE
:1006700008D0FFF7E1FF0346FB80BB1D0348194686
:1006800000F01AFD0837BD4680BD00BF34110020C0
:1006900080B582B000AF00BF0120FFF7A5FF034681
:1006A000002BF9D002E0074BFA881A60BB1D064800
:1006B000194600F049FD0346002BF4D10837BD462A
:1006C00080BD00BF00C000402811002080B400AFF2
:1006D000254B254A126842F001021A60234B234A37
:1006E000126842F001021A60214B214A126842F05E
:1006F00001021A601E4B1E4A126842F002021A6082
:100700001C4B1C4A126842F001021A60194B194A2C
:10071000126842F002021A60174B174A126822F060
:1007200001021A60154B154A126842F4FE621A6003
:10073000134B1B221A60134B08221A60124B124AE9
:10074000126842F070021A600B4B0B4A126842F4B6
:1007500080721A60084B084A126842F001021A605F
:10076000BD465DF8047B704704E10F4008E10F408F
:10077000204400401C45004030C0004044C00040C0
:1007800024C0004028C000402CC0004080B582B08A
:1007900000AF78600B46FB70FB1C0348194600F065
:1007A0008BFC0837BD4680BD2811002080B584B081
:1007B00000AF786039600023BB600023FB6014E069
:1007C0007A68FB6813441B780A2B03D100200D21A3
:1007D000FFF7DCFF7A68FB6813441B78B86819469A
:1007E000FFF7D4FFFB680133FB60FA683B689A426D
:1007F000E6D3FB6818461037BD4680BD0FB490B5F0
:100800008FB000AF07F14C037B60E0E100237B6316
:1008100002E07B6B01337B63BA6C7B6B13441B7808
:10082000252B05D0BA6C7B6B13441B78002BF0D1C1
:10083000B86C796BFFF7BAFFBA6C7B6B1344BB647F
:10084000BB6C1B78252B40F0C281BB6C0133BB64B1
:100850000023FB62202387F82330BB6C5A1CBA6448
:100860001B78253B532B00F2AD8101A151F823F0F9
:10087000B70B0000C50B0000C50B0000C50B000046
:10088000C50B0000C50B0000C50B0000C50B000028
:10089000C50B0000C50B0000C50B0000C10900001E
:1008A000C1090000C1090000C1090000C109000020
:1008B000C1090000C1090000C1090000C109000010
:1008C000C1090000C50B0000C50B0000C50B0000EE
:1008D000C50B0000C50B0000C50B0000C50B0000D8
:1008E000C50B0000C50B0000C50B0000C50B0000C8
:1008F000C50B0000C50B0000C50B0000C50B0000B8
:10090000C50B0000C50B0000C50B0000C50B0000A7
:10091000C50B0000C50B0000C50B0000C50B000097
:10092000C50B0000C50B0000C50B0000C50B000087
:10093000C50B0000C50B0000C50B00009F0A00009E
:10094000C50B0000C50B0000C50B0000C50B000067
:10095000C50B0000C50B0000C50B0000C50B000057
:10096000C50B0000C50B0000F50900000D0A0000D2
:10097000C50B0000C50B0000C50B0000C50B000037
:10098000C50B0000C50B0000C50B0000C50B000027
:10099000C50B0000C50B0000C50B00009F0A00003E
:1009A000C50B0000C50B0000370A0000C50B000096
:1009B000870A0000C50B0000C50B00009F0A00005D
:1009C000BB6C013B1B78302B05D1FB6A002B02D19D
:1009D000302387F82330FA6A13469B0013445B00E8
:1009E000FB62BB6C013B1B781A46FB6A1344303B2D
:1009F000FB6232E77B681A1D7A601B68BB6107F1F6
:100A0000180318460121FFF7D1FEE0E07B681A1DAC
:100A10007A601B68BB6100233B63BB69002B05DA6E
:100A2000BB695B42BB6101237B6201E000237B6207
:100A30000A23BB623EE07B681A1D7A601B68FB617B
:100A400000237B6302E07B6B01337B63FA697B6B82
:100A500013441B78002BF6D1F869796BFFF7A6FEDB
:100A6000FA6A7B6B9A420DD9FA6A7B6BD31AFB62E6
:100A700003E05C480121FFF799FEFB6A5A1EFA6207
:100A8000002BF6D1A3E07B681A1D7A601B68BB615E
:100A900000233B630A23BB6200237B620AE07B687E
:100AA0001A1D7A601B68BB6100233B631023BB6285
:100AB00000237B6201237B6307E07B6BBA6A02FB46
:100AC00003F37B63FB6A013BFB627B6BBA6A02FB4D
:100AD00003F2BB699A4209D87B6BBA6A02FB03F244
:100AE000BB6AB2FBF3F27B6B9A42E6D07B6A002BC7
:100AF00002D0FB6A013BFB627B6A002B0ED097F8A9
:100B00002330302B0AD13B6B5A1C3A6307F1380271
:100B100013442D2203F8302C00237B62FB6A012B47
:100B200016D9FB6A0F2B13D8FB6A013BFB620CE062
:100B30003B6B5A1C3A6307F138010B4497F82320AA
:100B400003F8302CFB6A013BFB62FB6A002BEFD100
:100B50007B6A002B09D03B6B5A1C3A6307F13802C1
:100B600013442D2203F8302C1BE01AE03B6B5A1C77
:100B70003A631D49B8697A6BB0FBF2F2B86AB2FB0E
:100B8000F0F0BC6A04FB00F0121A0A44127807F174
:100B900038010B4403F8302C7A6BBB6AB2FBF3F3D9
:100BA0007B637B6B002BE1D107F108031846396B9F
:100BB000FFF7FCFD0BE0BB6C013B18460121FFF782
:100BC000F5FD04E009480521FFF7F0FD00BFBB6C0F
:100BD0001B78002B7FF41AAE3C37BD46BDE8904031
:100BE00004B07047A033000088330000A433000035
:100BF00080B400AF224B224A126842F020021A60F1
:100C00001F4B1F4A126842F040021A601C4B1C4ADC
:100C1000126842F008021A601A4B1A4A126842F02F
:100C200002021A60184B184A126842F001021A6058
:100C3000164B164A126842F040021A60144B144ACE
:100C4000126842F002021A60124B124A126842F015
:100C500001021A60104B104A126842F040021A60FA
:100C60000E4B0E4A126842F001021A600C4B0C4AFD
:100C7000126842F040021A60BD465DF8047B70477E
:100C800008E10F400064024000540240007400403C
:100C90001C6502401C5502401C750040FC5302407C
:100CA000FC73004080B483B000AF0346FB8072B693
:100CB000064B1B781A46064BF98823F8121062B6C9
:100CC0000C37BD465DF8047B704700BF3E10002026
:100CD0004811002080B483B000AF0346FB8072B699
:100CE000064B1A88FB8813439AB2044B1A8062B6EB
:100CF0000C37BD465DF8047B704700BF3C100020F8
:100D000080B483B000AF0346FB8072B6FB88DB4340
:100D10009AB2074B1B889BB213409BB29AB2044B0A
:100D20001A8062B60C37BD465DF8047B704700BF81
:100D30003C10002080B485B000AF0346FB80002348
:100D4000FB7372B6094B1A88FB8813409BB2002BC9
:100D50000CBF00230123DBB2FB7362B6FB7B18469A
:100D60001437BD465DF8047B704700BF3C1000207F
:100D700080B485B000AF0346FB7172B6FA79064BBA
:100D800033F81230FB8162B6FB8918461437BD4632
:100D90005DF8047B704700BF4811002080B483B029
:100DA00000AF0346FB7172B6FB79044A0121D154AE
:100DB00062B60C37BD465DF8047B704744110020D5
:100DC00080B483B000AF02460B46FA71BB8072B6A6
:100DD000FB79094AD35C012B08D1FB79064A002133
:100DE000D154FA79054BB98823F8121062B60C3742
:100DF000BD465DF8047B7047441100204811002077
:100E000080B483B000AF0023FB710023FB710BE0C3
:100E1000FA79094B002123F81210FB79074A0121C6
:100E2000D154FB790133FB71FB79032BF0D90C37DB
:100E3000BD465DF8047B7047481100204411002036
:100E400080B582B000AF0023FB710023FB7110E07E
:100E5000FA790B4B53F82230002B07D0094BFA7963
:100E60001A70FA79064B53F822309847FB79013310
:100E7000FB71FB79032BEBD90837BD4680BD00BF62
:100E8000D40700203E10002080B500AF72B6FFF7F7
:100E9000B7FFFFF7D5FF00F0CDFA62B600F00CFB0C
:100EA0000346002B55D000F01BFB2A4B00221A7082
:100EB0001DE0284B1B78284AD35C002B11D1254B11
:100EC0001B781A46254B33F81230002B09D0214BE2
:100ED0001B78224A32F81320013A91B21F4A22F8B5
:100EE00013101C4B1B780133DAB21A4B1A70194BD2
:100EF0001B78032BDDD9174B00221A7025E0154B08
:100F00001B78154AD35C002B19D1124B1B781A465B
:100F1000124B33F81230002B11D10E4B1B781A46AE
:100F20000E4B002123F812100A4B1A780C4B1A7042
:100F3000084B1B781A460B4B53F822309847054B49
:100F40001B780133DAB2034B1A70024B1B78032B68
:100F5000D5D9A3E7401100204411002048110020FA
:100F60003E100020E407002080B582B000AF104B97
:100F70007B60104B3B6007E03B681A1D3A607A6863
:100F8000111D796012681A603A680B4B9A42F3D3CC
:100F90000A480B494FF000028842B8BF40F8042BC2
:100FA000FFF6FAAFFFF7C4F80837BD4680BD00BFB3
:100FB000D83300000000002034100020341000203E
:100FC0005411002080B400AFFEE700BF80B586B0AA
:100FD00000AF786013460A46FA70BB70FA78BB78A7
:100FE0001046194600F076FE03463B613B69002B34
:100FF00002D11048FFF702FC00233B7300237B73F0
:10100000BB78BB73FB78FB7300233B7500237B75B8
:10101000094B1B785A1CD1B2074A1170BB757B680B
:1010200007F10C0207CA83E8070078681837BD4645
:1010300080BD00BFAC3300004010002080B582B0FE
:1010400000AF786039607B681B787A68D278B3FB30
:10105000F2F102FB01F29B1ADAB27B681A707B682C
:101060001A7A7B68DB789A4206D27B681B7A013356
:10107000DAB27B681A7202E07B6801225A727B68DE
:1010800059687B689B787A681278013A02FB03F30F
:101090007A68D27893FBF2F002FB00F29B1A9B0075
:1010A000CA187B689B78104639681A4601F0E6F842
:1010B0000837BD4680BD00BF90B585B000AF7860F1
:1010C00039600023FB737B681B787A68D278B3FBA6
:1010D000F2F102FB01F29B1ADAB27B681A707B68AC
:1010E0005B7A002B06D07B681A787B685A707B6825
:1010F00000225A727B681A7A7B68DB789A421DD28A
:101100007B681B7A0133DAB27B681A727B685A6893
:101110007B689B7819467B681B78581CC4B278683A
:10112000047003FB01F39B001A447B689B78104614
:1011300039681A4601F0A2F80123FB73FB7B1846BD
:101140001437BD4690BD00BF90B585B000AF786044
:1011500039600023FB737B681B7A002B29D07B68E6
:101160001B7A013BDAB27B681A727B685A687B682B
:101170009B7819467B685B78581CC4B278684470C9
:1011800003FB01F39B001A447B689B783868114687
:101190001A4601F073F87B685B787A68D278B3FB03
:1011A000F2F102FB01F29B1ADAB27B685A7001235A
:1011B000FB73FB7B18461437BD4690BD80B483B0EB
:1011C00000AF78607B68DA787B681B7AD31ADBB271
:1011D00018460C37BD465DF8047B704780B584B077
:1011E00000AF786039600023FB737B681B7A002BAB
:1011F00012D07B685A687B689B787968497801FBD4
:1012000003F39B001A447B689B78386811461A46A2
:1012100001F034F80123FB73FB7B18461037BD4601
:1012200080BD00BF80B483B000AF0346FB71FB7983
:10123000012B0AD0022B0FD0002B25D1154B154ABC
:10124000126842F002021A601EE0124B114A126844
:1012500022F002021A6017E00F4B1B78002B09D115
:101260000D4B01221A700B4B0A4A126822F002023F
:101270001A6008E0084B00221A70064B054A1268F3
:1012800042F002021A6000BF0C37BD465DF8047BD5
:10129000704700BFFC630240F407002080B483B0B5
:1012A00000AF0346FB71FB79012B0AD0022B0FD054
:1012B000002B25D1154B154A126842F040021A60E6
:1012C0001EE0124B114A126822F040021A6017E029
:1012D0000F4B1B78002B09D10D4B01221A700B4BC1
:1012E0000A4A126822F040021A6008E0084B002205
:1012F0001A70064B054A126842F040021A6000BF9D
:101300000C37BD465DF8047B704700BFFC7300409E
:10131000F507002080B483B000AF344B334A126825
:1013200042F400621A60314B304A126822F48002A3
:101330001A602E4B2D4A126842F001021A602C4BA3
:101340006FF040021A60294B284A126822F470722A
:101350001A60264B254A126842F460721A60234BC9
:10136000224A126822F030021A60204B1F4A12688B
:101370001A601E4B1D4A126822F400521A601D4B5F
:101380007B6002E07B68013B7B607B68002BF9D1CE
:10139000164B164A126822F0F0621A60134B134A79
:1013A000126842F080721A60104B104A126842F4C0
:1013B00080021A6000BF0E4B1B6803F04003002B35
:1013C000F9D00A4B094A126822F400621A60094BEC
:1013D0007B6002E07B68013B7B607B68002BF9D17E
:1013E0000C37BD465DF8047B704700BF60E00F40DE
:1013F00050E00F40400D030080B400AF62B6BD4620
:101400005DF8047B704700BF80B400AF72B6BD4684
:101410005DF8047B704700BF80B400AF044B1B78BD
:101420000133DAB2024B1A70BD465DF8047B704797
:101430004110002080B400AF1A4B1A4A126822F003
:1014400001021A60184B46F2A7121A60174B46F2B7
:10145000A7121A60164B164A126842F000721A6000
:10146000144B144A126822F07F421A60114B114A41
:10147000126842F0FC421A600A4B0A4A126842F0B3
:1014800004021A60074B074A126842F002021A600F
:10149000044B044A126842F001021A60BD465DF82E
:1014A000047B704710E000E018E000E014E000E08A
:1014B00004ED00E020ED00E080B483B000AF002335
:1014C000FB7172B6054B1B78FB7162B6FB7918464F
:1014D0000C37BD465DF8047B704700BF411000200B
:1014E00080B400AF72B6054B1B78013BDAB2034BF8
:1014F0001A7062B6BD465DF8047B7047411000204B
:1015000081F0004102E000BF83F0004330B54FEAB4
:1015100041044FEA430594EA050F08BF90EA020F21
:101520001FBF54EA000C55EA020C7FEA645C7FEAB4
:10153000655C00F0E2804FEA5454D4EB5555B8BFD7
:101540006D420CDD2C4480EA020281EA030382EA48
:10155000000083EA010180EA020281EA0303362DDA
:1015600088BF30BD11F0004F4FEA01314FF4801CAD
:101570004CEA113102D0404261EB410113F0004FBF
:101580004FEA03334CEA133302D0524263EB430376
:1015900094EA050F00F0A780A4F10104D5F1200E14
:1015A0000DDB02FA0EFC22FA05F2801841F100016F
:1015B00003FA0EF2801843FA05F359410EE0A5F143
:1015C00020050EF1200E012A03FA0EFC28BF4CF074
:1015D000020C43FA05F3C01851EBE37101F000452A
:1015E00007D54FF0000EDCF1000C7EEB00006EEB37
:1015F0000101B1F5801F1BD3B1F5001F0CD34908C1
:101600005FEA30004FEA3C0C04F101044FEA445217
:1016100012F5800F80F09A80BCF1004F08BF5FEA9E
:10162000500C50F1000041EB045141EA050130BD7E
:101630005FEA4C0C404141EB010111F4801FA4F121
:101640000104E9D191F0000F04BF01460020B1FA76
:1016500081F308BF2033A3F10B03B3F120020CDAAE
:101660000C3208DD02F1140CC2F10C0201FA0CF08C
:1016700021FA02F10CE002F11402D8BFC2F1200CF1
:1016800001FA02F120FA0CFCDCBF41EA0C019040A7
:10169000E41AA2BF01EB0451294330BD6FEA0404F0
:1016A0001F3C1CDA0C340EDC04F11404C4F12002DB
:1016B00020FA04F001FA02F340EA030021FA04F3ED
:1016C00045EA030130BDC4F10C04C4F1200220FA44
:1016D00002F001FA04F340EA0300294630BD21FA82
:1016E00004F0294630BD94F0000F83F4801306BF48
:1016F00081F480110134013D4EE77FEA645C18BF3C
:101700007FEA655C29D094EA050F08BF90EA020FD2
:1017100005D054EA000C04BF1946104630BD91EACA
:10172000030F1EBF0021002030BD5FEA545C05D1CD
:101730004000494128BF41F0004130BD14F580040C
:101740003CBF01F5801130BD01F0004545F0FE4180
:1017500041F470014FF0000030BD7FEA645C1ABFB5
:10176000194610467FEA655C1CBF0B46024650EAEC
:10177000013406BF52EA033591EA030F41F4002118
:1017800030BD00BF90F0000F04BF0021704730B59E
:101790004FF4806404F132044FF000054FF0000173
:1017A00050E700BF90F0000F04BF0021704730B534
:1017B0004FF4806404F1320410F0004548BF404209
:1017C0004FF000013EE700BF42004FEAE2014FEA5E
:1017D00031014FEA02701FBF12F07F4393F07F4F39
:1017E00081F06051704792F0000F14BF93F07F4F6B
:1017F000704730B54FF4607401F0004521F00041AE
:1018000020E700BF50EA010208BF704730B54FF033
:1018100000050AE050EA010208BF704730B511F038
:10182000004502D5404261EB41014FF4806404F170
:1018300032045FEA915C3FF4DCAE4FF003025FEAF2
:10184000DC0C18BF03325FEADC0C18BF033202EB7A
:10185000DC02C2F1200300FA03FC20FA02F001FAD4
:1018600003FE40EA0E0021FA02F11444C1E600BF73
:1018700070B54FF0FF0C4CF4E06C1CEA11541DBF26
:101880001CEA135594EA0C0F95EA0C0F00F0DEF8F1
:101890002C4481EA030621EA4C5123EA4C5350EAD6
:1018A000013518BF52EA033541F4801143F4801327
:1018B00038D0A0FB02CE4FF00005E1FB02E506F0B8
:1018C0000042E0FB03E54FF00006E1FB03569CF00D
:1018D000000F18BF4EF0010EA4F1FF04B6F5007F13
:1018E00064F5407404D25FEA4E0E6D4146EB060685
:1018F00042EAC62141EA55514FEAC52040EA5E500E
:101900004FEACE2EB4F1FD0C88BFBCF5E06F1ED8B7
:10191000BEF1004F08BF5FEA500E50F1000041EBEE
:10192000045170BD06F0004646EA010140EA02009B
:1019300081EA0301B4EB5C04C2BFD4EB0C0541EABD
:10194000045170BD41F480114FF0000E013C00F3D2
:10195000AB8014F1360FDEBF002001F0004170BDF6
:10196000C4F10004203C35DA0C341BDC04F114040F
:10197000C4F1200500FA05F320FA04F001FA05F29B
:1019800040EA020001F0004221F0004110EBD37068
:1019900021FA04F642EB06015EEA430E08BF20EA94
:1019A000D37070BDC4F10C04C4F1200500FA04F337
:1019B00020FA05F001FA04F240EA020001F00041C9
:1019C00010EBD37041F100015EEA430E08BF20EA3C
:1019D000D37070BDC4F1200500FA05F24EEA020E84
:1019E00020FA04F301FA05F243EA020321FA04F0B3
:1019F00001F0004121FA04F220EA020000EBD3706A
:101A00005EEA430E08BF20EAD37070BD94F0000F69
:101A10000FD101F00046400041EB010111F4801F9D
:101A200008BF013CF7D041EA060195F0000F18BF4E
:101A3000704703F00046520043EB030313F4801F8A
:101A400008BF013DF7D043EA0603704794EA0C0F44
:101A50000CEA135518BF95EA0C0F0CD050EA41065A
:101A600018BF52EA4306D1D181EA030101F00041D7
:101A70004FF0000070BD50EA410606BF10461946FF
:101A800052EA430619D094EA0C0F02D150EA01360B
:101A900013D195EA0C0F05D152EA03361CBF10464C
:101AA00019460AD181EA030101F0004141F0FE41EB
:101AB00041F470014FF0000070BD41F0FE4141F46F
:101AC000780170BD70B54FF0FF0C4CF4E06C1CEA6F
:101AD00011541DBF1CEA135594EA0C0F95EA0C0F24
:101AE00000F0A7F8A4EB050481EA030E52EA0335DF
:101AF0004FEA013100F088804FEA03334FF0805500
:101B000045EA131343EA12634FEA022245EA11152C
:101B100045EA10654FEA00260EF000419D4208BFDD
:101B2000964244F1FD0404F5407402D25B084FEA8A
:101B30003202B61A65EB03055B084FEA32024FF436
:101B400080104FF4002CB6EB020E75EB030E22BF93
:101B5000B61A754640EA0C005B084FEA3202B6EB53
:101B6000020E75EB030E22BFB61A754640EA5C0002
:101B70005B084FEA3202B6EB020E75EB030E22BF92
:101B8000B61A754640EA9C005B084FEA3202B6EB93
:101B9000020E75EB030E22BFB61A754640EADC0052
:101BA00055EA060E18D04FEA051545EA16754FEAB4
:101BB00006164FEAC30343EA52734FEAC2025FEAD2
:101BC0001C1CC0D111F4801F0BD141EA00014FF061
:101BD00000004FF0004CB6E711F4801F04BF014332
:101BE0000020B4F1FD0C88BFBCF5E06F3FF6AFAE4E
:101BF000B5EB030C04BFB6EB020C5FEA500C50F1DE
:101C0000000041EB045170BD0EF0004E4EEA113160
:101C100014EB5C04C2BFD4EB0C0541EA045170BD67
:101C200041F480114FF0000E013C90E645EA060EAB
:101C30008DE60CEA135594EA0C0F08BF95EA0C0FD9
:101C40003FF43BAF94EA0C0F0AD150EA01347FF421
:101C500034AF95EA0C0F7FF425AF104619462CE7F8
:101C600095EA0C0F06D152EA03353FF4FDAE10465B
:101C7000194622E750EA410618BF52EA43067FF4AC
:101C8000C5AE50EA41047FF40DAF52EA43057FF43C
:101C9000EBAE12E74A0011D212F5001211D20DD5A7
:101CA0006FF47873B3EB62520ED44FEAC12343F062
:101CB000004343EA505323FA02F070474FF000000C
:101CC000704750EA013002D14FF0FF3070474FF0BB
:101CD00000007047024B0A460146186800F002B83F
:101CE000200C002010B502FB01F100F02BF8044697
:101CF00068B150F8042C22F00302043A242A18D8C0
:101D0000132A06D8034600221A605A609A602046B9
:101D100010BD00231B2A036043600FD9242A83606F
:101D2000C36005BF0361436100F1100300F11803B4
:101D3000E9E7002100F018FB204610BD00F1080380
:101D4000E1E700BF2DE9F04F01F10B05162D83B03F
:101D5000064627D935F0070527D4A94225D83046AD
:101D600000F04CFBB5F5FC7F26D2C14F4FEAD50CF5
:101D700007EBCC03DC689C4200F0D2816368E26828
:101D800023F0030323445868A16840F00105CA60AA
:101D9000304691605D6000F033FB0834204603B0AC
:101DA000BDE8F08F1025A942D9D900240C23204684
:101DB000336003B0BDE8F08F5FEA552C00F08980F6
:101DC000BCF1040F00F260814FEA951C0CF1380C55
:101DD0004FEA4C01A64F07EB8101CC68A14205D127
:101DE0000CE0002B79DAE468A14207D0626822F0A7
:101DF0000302531B0F2BF4DD0CF1FF3C0CF1010C23
:101E00009B4B3C6903F1080E744500F07E816168CC
:101E100021F003014A1B0F2A00F36481002AC3F852
:101E200014E0C3F810E069DAB1F5007F80F03A8180
:101E3000C9088A104FF0010808FA02F803EBC10143
:101E40005A68886848EA0202A060E1605A608C60C3
:101E5000C4604FEAAC030120984090425BD8024234
:101E600006D12CF0030C400002420CF1040CFAD015
:101E700007EBCC084446E146E3689C4207D146E1C3
:101E8000002A80F25781DB689C4200F0408159684B
:101E900021F003014A1B0F2AF2DD1C4654F808CF3B
:101EA000D96845F0010942F001081D44C3F80490C7
:101EB0003046CCF80C10C1F808C07D613D61C5F812
:101EC0000CE0C5F808E0C5F80480AA5000F098FAC4
:101ED00064E77E214FF03F0C7CE722445068E368C2
:101EE000A16840F00105CB6030469960556000F074
:101EF00087FA0834204603B0BDE8F08F21444B68D0
:101F0000304643F001034B6000F07AFA0834204673
:101F100003B0BDE8F08FBC68636823F00309A945EE
:101F200004D3C5EB09030F2B00F39180514B524AA8
:101F30001968136805EB010A013304EB090B00F083
:101F400061810AF5805A0AF10F0A2AF47F6A2AF0A1
:101F50000F0A30465146019200F054FAB0F1FF3FAB
:101F60008046019A00F00181834500F2FB80DFF892
:101F700014C1C345DCF800305344CCF8003000F005
:101F80004A8112683C4901321BBFCBEB080B5B4412
:101F9000C1F80080CCF8003018F0070300F014817D
:101FA000C3F10802C3F5805390440833C244CAF316
:101FB0000B0ACAEB030A51463046CDF804C000F0C4
:101FC00021FA431CDDF804C000F03581C8EB0002A3
:101FD000524442F00102DCF80030BC425344C7F8DE
:101FE0000880CCF80030C8F80420DFF898A015D09D
:101FF000B9F10F0F40F2EB806168A9F10C0222F0F9
:10200000070201F0010142EA010E0520A1180F2A82
:10201000C4F804E04860886000F21181174ABC6887
:1020200011688B4288BF1360154A11688B4288BFC4
:102030001360626822F003029542C5EB020301D8E7
:102040000F2B04DC304600F0DBF90024A6E645F057
:10205000010243F00103254462603046BD606B60BD
:1020600000F0CEF90834204603B0BDE8F08F00BF81
:10207000240C00204C1000203010002048100020BC
:102080004410002050100020BCF1140F61D9BCF1A5
:10209000540F00F28F804FEA153C0CF16E0C4FEAA2
:1020A0004C0197E64B0A042B58D9142B00F2AD8053
:1020B00003F15B02500007EB80008368DFF8B88112
:1020C000834200F08A805A6822F00302914202D2D1
:1020D0009B689842F7D1D9687A68E160A3608C6008
:1020E000DC60B6E645F0010742F001012544676077
:1020F00030465D611D61C5F80CE0C5F808E0696017
:10210000AA50083400F07CF948E65A68A1E609F1C3
:10211000010919F0030F04F108047FF4ADAE2DE0BE
:1021200004F108036469A34208BF0CF1020C3FF4F8
:1021300067AE23E6194448681C4654F8082FDB684C
:1021400040F001054D603046D3609A6000F058F9C8
:1021500024E60CF15B0C4FEA4C013BE68A0938326D
:102160005000A8E7BC423FF402AFBC68626822F0AE
:10217000030261E7D8F8008098457AD11CF0030F7C
:10218000A8F108030CF1FF3CF4D17B6823EA0003BB
:102190007B60400098423FF6BEAE00283FF4BBAEE5
:1021A0000342CC467FF464AE400003420CF1040CC1
:1021B000FAD05DE6BCF5AA7F19D84FEAD53C0CF100
:1021C000770C4FEA4C0105E64FF48053EEE601230D
:1021D000C8F80430444600222EE7921001209040B7
:1021E000D8F8042019460243C8F8042075E740F2E5
:1021F00054539C451BD84FEA954C0CF17C0C4FEA8C
:102200004C01E7E50AF1100AA3E6542B1FD80A0B8C
:102210006E3250004FE7CBF30B0100297FF4B1AED3
:102220000AEB0901BA6841F001015160F6E6FC21B0
:102230004FF07E0CCEE501224FF0000ACBE604F110
:102240000801304600F03EF9DAF80030E6E6B3F572
:10225000AA7F03D8CA0B773250002CE740F25452C1
:10226000934203D88A0C7C32500024E7FC207E2263
:1022700021E77B688DE700BF240C0020844641EAFB
:10228000000313F0030349D1403A23D30B680360E2
:102290004B6843608B688360CB68C3600B690361E4
:1022A0004B6943618B698361CB69C3610B6A0362CC
:1022B0004B6A43628B6A8362CB6AC3620B6B0363B4
:1022C0004B6B43638B6B8363CB6BC3634030403199
:1022D000403ADBD230320BD30B6803604B6843606B
:1022E0008B688360CB68C36010301031103AF3D232
:1022F0000C3205D351F8043B40F8043B043AF9D2C0
:10230000043208D0D2071CBF11F8013B00F8013B92
:1023100001D30B8803806046704700BF082A13D39F
:102320008B07B1D010F00303AED0C3F10403D21A6F
:10233000DB071CBF11F8013B00F8013BA4D331F8C7
:10234000023B20F8023B9FE7043AD9D3013A11F847
:10235000013B00F8013BF9D20B7803704B784370D6
:102360008B78837060467047F0B4840743D0541E66
:10237000002A3ED0CDB2034603E0621E002C38D0C6
:10238000144603F8015B9A07F7D1032C2AD9CDB282
:1023900045EA05250F2C45EA054515D9A4F1100796
:1023A0003F0903F1100606EB07161A461560556043
:1023B0009560D5601032B242F8D104F00F040137B5
:1023C000032C03EB07130DD91E462246043A032AB9
:1023D00046F8045BFAD8221F22F0030204321344A9
:1023E00004F003042CB1C9B21C4403F8011BA3423E
:1023F000FBD1F0BC704714460346C6E7704700BFE8
:10240000704700BF38B5074C0023054608462360D7
:1024100000F0F8FA431C00D038BD2368002BFBD035
:102420002B6038BD50110020F8B5234D0F460446EF
:10243000FFF7E4FFAB685E6826F00306F11B01F6C8
:10244000EF7121F47F6121F00F01A1F58057B7F5FD
:10245000805F07DB20460021FFF7D4FFAB683344E1
:10246000984204D02046FFF7CBFF0020F8BD20465D
:102470007942FFF7C7FF01300DD0104BAA681968E9
:10248000F61B46F001062046C91B56601960FFF78F
:10249000B7FF0120F8BD20460021FFF7B3FFAB686E
:1024A000C21A0F2ADEDD064D04492D6842F00102F2
:1024B000401B5A600860D5E7240C00205010002013
:1024C000301000202DE9F0410D460646002955D078
:1024D000FFF794FF55F8041CDFF870C1A5F108045C
:1024E00021F00103E218DCF808005768904227F059
:1024F000030768D011F00101576032D00021D019D4
:102500004068C00706D43B44906800294DD0D2688B
:10251000C260906043F001026260E350E1B9B3F53C
:10252000007F2DD35A0A042A69D89809383041000F
:102530000CEB810CDCF808204449624565D05168F9
:1025400021F003018B4202D292689445F7D1D368FF
:10255000E360A2609C60D4603046BDE8F041FFF7C4
:102560004FBF55F8085C0CF10808641BA0682B44A9
:10257000404542D0E568C560A860C0E7BDE8F0818D
:10258000DB089A1001209040DCF804100CEBC30328
:102590009A680143A260E360CCF8041030469C6066
:1025A000D460BDE8F041FFF72BBF294DA842AED162
:1025B00043F00102CCF81440CCF81040E060A06079
:1025C0006260E350C8E71F44CB0707D455F8081CE6
:1025D000641AE368A2680F44D3609A601D4B47F009
:1025E00001021B6862609F42CCF80840B4D31A4BCA
:1025F00030461968FFF718FFAEE701217FE7142A7C
:102600000BD802F15B00410092E780100125854064
:1026100048681346284348609AE7542A03D8180BA1
:102620006E30410084E7B2F5AA7F03D8D80B77302B
:1026300041007DE740F254518A4203D8980C7C3027
:10264000410075E7FC217E2072E700BF240C0020CA
:102650002C0C00202C1000204C10002038B50C460B
:102660000968054609B1FFF7F9FF28462146BDE88C
:102670003840FFF727BF00BF224B70B51B680546E7
:10268000984232D0C26CAAB100231E4652F82310E1
:1026900009B907E021460C682846FFF713FF002C14
:1026A000F8D1EA6C0136202E3346EFD11146284688
:1026B000FFF708FF296C11B12846FFF703FFD5F893
:1026C000481159B105F5A676B14201D106E021467F
:1026D0000C682846FFF7F6FEA642F8D1696D11B1E5
:1026E0002846FFF7EFFEAB6B03B970BDEB6B2846D6
:1026F0009847D5F8E0120029F7D02846BDE8704089
:10270000FFF7ACBF200C00200B4B10B50446186837
:1027100008B1836B4BB1132C0BD8084850F83430F8
:10272000013306D000EBC40010BD00F02FFB132CCA
:10273000F3D9002010BD00BF200C0020881000201D
:1027400070B500F0F1FA13250446002628463146FC
:10275000ABBE05464FF0FF30256070BDF0B5224C92
:1027600085B00322002301940125039201AE029358
:1027700028463146ABBE06461C4D04230322019475
:102780002E6003920DEB0307029301263046394673
:10279000ABBE0746164E032208230194376003920E
:1027A00001AF0293012420463946ABBE0446114BCB
:1027B000621C1C6013D036680F4800234FF0FF31B5
:1027C000C1500833A02B0C4AFAD1296800231160AC
:1027D000966014615360D360536105B0F0BD3268F8
:1027E00014461A601646E7E7D43300007C10002038
:1027F00078100020841000208810002030B585B0AB
:10280000019002910392062401AD20462946ABBEF9
:102810000446631C02D0204605B030BDFFF790FF90
:1028200005B030BD70B50E461546FFF76DFF044686
:1028300058B1314600682A46FFF7E0FF431C03D039
:102840006368281A0344636070BD00F06DFA0923C1
:1028500003604FF0FF3070BDF0B583B00C461646F4
:10286000FFF752FF0546002839D0022E26D8012E48
:1028700021D0022E11D06E462B680A278DE8180051
:1028800038463146ABBE0646731C1ED03046002883
:1028900022DB6C60204603B0F0BD036802AE46F850
:1028A000083D0C2738463146ABBE0746791C0FD091
:1028B00038460444E0E74368E418DCD500F034FA15
:1028C000162303604FF0FF30E5E7FFF739FFDEE73F
:1028D000FFF736FF421CECD14FF0FF30DBE700F092
:1028E00023FA092303604FF0FF30D4E7FFF7B4BFAA
:1028F00030B585B0019002910392052401AD2046C8
:102900002946ABBE0446631C02D0204605B030BD4C
:10291000FFF716FF05B030BD70B50E461546FFF740
:10292000F3FE0446E0B1314600682A46FFF7E0FFB7
:10293000031E12DB6268E81A02449D42626000D006
:1029400070BD00F0F1F913250446002628463146F3
:10295000ABBE05460020256070BD4FF0FF30EFE7AD
:1029600000F0E2F9092303604FF0FF3070BD00BFB3
:1029700030B583B002AC44F8040D02252846214648
:10298000ABBE0446631C02D0204603B030BDFFF747
:10299000D7FE03B030BD00BF70B582B00446FFF76C
:1029A000B3FE054618B3013C012C11D92B6802ACCB
:1029B00044F8043D022630462146ABBE0446631C63
:1029C00010D0204610B94FF0FF332B6002B070BD1D
:1029D0000A4B9A681B699A42E8D14FF0FF330360B3
:1029E0000020F3E7FFF7ACFE0028EFD1EBE700F0A3
:1029F0009BF9092303604FF0FF30E7E788100020C0
:102A00000120704708B50A4B01461A686AB11046A2
:102A1000421869468A4201D81A6008BD00F084F95C
:102A20000C2303604FF0FF3008BD02481860EFE749
:102A3000801000205815002070B50C46FFF764FE8A
:102A40000546B0B163684FF4806243F4005363609D
:102A5000E2620C2630462946ABBE05466A1C03D00E
:102A600028462061002070BDFFF76AFE431CF8D1A4
:102A700070BD00F059F9092303604FF0FF3070BDBD
:102A800038B50C460546002120463C22FFF76CFC79
:102A900028462146BDE83840FFF7CEBF38B50D4681
:102AA000044600213C222846FFF75EFC2046002118
:102AB00000F012F8431C04460BD06B68294643F41F
:102AC00001436B60FFF7B8FF05462046FFF764FF40
:102AD0002C46204638BD00BF2DE9F047324E90B05D
:102AE00082468846002456F83450E7006B1C0CD010
:102AF0000134142CF7D100F017F9182303604FF0BC
:102B0000FF35284610B0BDE8F08708F42063B3F520
:102B1000206F0DF104093BD040F20163C8F300457A
:102B200018F0020F08EA030318BF45F002050BB1C5
:102B300045F0040518F0080F18BF25F004055046AD
:102B400018BF45F00805CDF804A000F08BFA0295F7
:102B50000390012528464946ABBE0546002D09DBFA
:102B600046F8345025463744002328467B6010B091
:102B7000BDE8F08700F0D8F8132604460027304659
:102B80003946ABBE06462846266010B0BDE8F08741
:102B900049465046FFF782FF0130BDD000F0C4F82F
:102BA00011230360ADE700BF881000200EB400B50C
:102BB0000199FFF791FF5DF804EB03B0704700BF88
:102BC00008B500F0B1F8582303604FF0FF3008BD9E
:102BD00070B582B0009000F045FA0E2401906D4669
:102BE00020462946ABBE0446013402D0002002B084
:102BF00070BD00F099F8132504460026284631469A
:102C0000ABBE05464FF0FF30256002B070BD00BF7F
:102C1000F0B505460C4640B111260027304639462E
:102C2000ABBE064600232E606B6014B10023236008
:102C300063600020F0BD00BF30B5102400252046A1
:102C40002946ABBE0446204630BD00BF70B50446E1
:102C50001025002628463146ABBE054624B1002388
:102C600025606360A360E360284670BD70B5FFF720
:102C70004BFD044698B1092528462146ABBE0446C3
:102C8000012C0AD000F050F81324054600262046F7
:102C90003146ABBE064600242E60204670BD00F0D3
:102CA00043F809230360F8E730B583B0D8B100904A
:102CB00000F0D8F9122401906D4620462946ABBE9B
:102CC0000446631C0BD0FF2C204606D82CB14000D4
:102CD000C0F3072301D0A342F9D103B030BDFFF701
:102CE0002FFD0446EFE7012003B030BD30B585B0BD
:102CF0000C46009000F0B6F901902046029400F0D6
:102D0000B1F90F2403906D4620462946ABBE044618
:102D1000631C06D02046003018BF0120404205B099
:102D200030BDFFF70DFDF6E7014B1868704700BF97
:102D3000200C00200020704700207047014900F05F
:102D400001B900BF9131000070B54B1E682505FB2D
:102D500003F50E4605F17401FEF7F4FF044640B199
:102D600000210C30666005F168022160A060FFF769
:102D7000FBFA204670BD00BF024B0349186800F003
:102D8000E1B800BFD0330000913100002DE9F04FD1
:102D9000846B83B00746002C65D17D6833480423DB
:102DA000032107F53B72F863C7F8E412C7F8E8227D
:102DB000C7F8E04205F15C00AB812C606C60AC6050
:102DC0006C66EC812C616C61AC6121460822FFF7D6
:102DD000CBFADFF89CB0BE68DFF898A0DFF89890D7
:102DE000DFF8988001230922ED61C5F820B0C5F80D
:102DF00024A0C5F82890C5F82C802146F381B28123
:102E000034607460B460746634617461B4610822C3
:102E100006F15C000193FFF7A7FAFD681220022279
:102E2000F661C6F820B0C6F824A0C6F82890C6F807
:102E30002C802146A881EA812C606C60AC606C66B5
:102E40002C616C61AC6105F15C000822FFF78CFA23
:102E5000019BED61C5F820B0C5F824A0C5F8289005
:102E6000C5F82C80BB6303B0BDE8F08F3D2D00009A
:102E7000D92F000001300000393000005D30000023
:102E8000214B70B51D680646AB6B002B2CD005F5A9
:102E900038756B68AC68013B05D521E0013B5A1CD5
:102EA00004F168041CD0B4F90C20002AF6D10025E6
:102EB00001234FF6FF72E281A38165662560A5605C
:102EC000656025616561A561294604F15C00082201
:102ED000FFF74AFA256365636564A564204670BD03
:102EE0002B682BB11D46D4E72846FFF74FFFCEE7EE
:102EF00030460421FFF728FF286008B10546C8E7DF
:102F00000C23336070BD00BFD0330000704700BF9A
:102F1000704700BF704700BF704700BF024B0349B6
:102F2000186800F00FB800BF200C0020352D0000FD
:102F3000024B0349186800F005B800BF200C0020C0
:102F4000392D00002DE9F04110F53877884619D069
:102F500000267D68BC68013D0ED4A389013D012B8C
:102F600006D9B4F90E302046013301D0C0470643DC
:102F70006B1C04F16804F0D13F68002FE9D13046A2
:102F8000BDE8F0813E463046BDE8F0812DE9F843CA
:102F900010F53876804689461AD000277568B468DF
:102FA000013D0FD4A389013D012B07D9B4F90E309F
:102FB00021460133404601D0C84707436B1C04F14A
:102FC0006804EFD13668002EE8D13846BDE8F883B2
:102FD00037463846BDE8F88310B50C46B1F90E10F7
:102FE00000F0BEF9002803DB236D0344236510BD08
:102FF000A38923F48053A38110BD00BF0020704734
:103000002DE9F0410C4689891D46CB051646074639
:1030100006D5B4F90E100022022300F08DF9A18923
:1030200021F48051A1813846B4F90E1032462B4666
:10303000BDE8F04100F046B810B50C46B1F90E10ED
:1030400000F07AF9421CA38904D043F48053206530
:10305000A38110BD23F48053A38110BDB1F90E10DC
:1030600000F044B820F0030110F00300C0F10000AC
:1030700051F8043B00F1040C4FEACC0C6FF0000255
:103080001CBF22FA0CF213434FF0010C4CEA0C2C3B
:103090004CEA0C4CA3EB0C0222EA030212EACC121B
:1030A00004BF51F8043B0430F4D013F0FF0F1FBFEE
:1030B000013013F47F4F013013F47F0F18BF01303C
:1030C000704700BF70B5084C0646002508461146FB
:1030D0001A462560FFF720FC431C00D070BD236812
:1030E000002BFBD0336070BD5011002038B5074C69
:1030F0000023054608462360FFF74EFC431C00D022
:1031000038BD2368002BFBD02B6038BD5011002048
:1031100070B50C46054631B110B1836B002B2FD032
:10312000B4F90C300BB9002070BD2846214600F0E0
:10313000DBF8E36A064633B12846E1699847002880
:10314000B8BF4FF0FF36A3891B061CD4216B41B1D9
:1031500004F14003994202D02846FFF7B3F9002357
:103160002363616C21B12846FFF7ACF90023636447
:10317000FFF7CCFE0023A381FFF7CAFE304670BDE7
:10318000FFF704FECCE728462169FFF79BF9DDE74E
:10319000024B01461868FFF7BBBF00BF200C0020A0
:1031A0008B892DE9F0419AB20D46110780463CD437
:1031B0006A6843F40063002AAB8159DDAC6A002CD5
:1031C0004BD09BB203F48052002192B2D8F8006039
:1031D000C8F80010002A4FD02A6D5F0705D569682E
:1031E0002B6B521A0BB1EB6BD21A4046E9690023E4
:1031F000A047441C4AD0AB892A6923F400639BB2E0
:1032000000212A60DA04AB8169604CD4296BC8F8CC
:10321000006011B305F14003994202D04046FFF728
:1032200051F900202863BDE8F0812E69AEB1910705
:103230002C680CBF6B6900232E60A41BAB600AE0F6
:10324000324623466F6A4046E969B8470028C0EB1A
:103250000404064404DD002CF2DC0020BDE8F0810B
:10326000AB894FF0FF3043F04003AB81BDE8F08104
:10327000EA6B002AA2DCF0E701234046E969A04797
:10328000431C02461ED0AB89AC6AA6E7D8F80030D2
:103290005BB9AA89296922F4006292B26B60D304F7
:1032A000AA812960B2D52865B0E71D2B01D0162B65
:1032B00013D1A9892B6921F400610022A9812B6017
:1032C0006A60A3E7D8F80030002BDCD01D2B01D0BA
:1032D000162BC5D1C8F80060BFE7AB8943F04003A7
:1032E000AB81BDE8F08100BF10B5044682B008B1E3
:1032F000836B53B1B1F90C0008B902B010BD204680
:1033000002B0BDE81040FFF74BBF0191FFF73EFD53
:103310000199EFE720B1054B01461868FFF7E4BFBC
:10332000034B04491868FFF731BE00BF200C002092
:10333000D0330000E932000070B5084C0646002585
:10334000084611461A462560FFF7D0FA431C00D004
:1033500070BD2368002BFBD0336070BD501100207E
:1033600070B5084C06460025084611461A462560E9
:10337000FFF758FA431C00D070BD2368002BFBD028
:10338000336070BD50110020303132333435363760
:1033900038396162636465660000000088330000AC
:1033A000200000004552524F52000000556E6162ED
:1033B0006C6520746F20616C6C6F63617465206D47
:1033C000656D6F7279200D0A000000004300000057
:0833D000F80700203A747400B4
:1033D800000000801E3E5C5D612736421B3D500D9B
:1033E80049181D5A413B3747384112404F26620061
:1033F8000E38494E0C4D1028402C17605D361113BD
:10340800253302364A400F4551625A46581661170D
:10341800620B454B475614605664612848011D4E9F
:103428005E045F2A36520B2105042B554B2958643C
:10343800384318362703283D62534851551D140A4E
:10344800415931433A5A21134C0C56472D225017F3
:103458004D4E392A64274D1C6014265726372A56A4
:10346800375837103714063D63260F574C13443529
:1034780023591E24221C413610031F0C514F353B83
:1034880012121B644949085C325B1E575E395803A7
:103498005C335763091C2E2028011848553F1C47E8
:1034A80012374C2A3E2A3035000E584F413024132B
:1034B800164E47464640392E423A43185B0E0B08D3
:1034C8004E4C48073B2600240E34254E5953020B18
:1034D800463B601E095B0A415D211F34490D01030B
:1034E8003F28635D4C0213600500082D5F212231DF
:1034F8002A613134460B52064E4663114A425B0834
:1035080005333C3349131C18215D1A3033293548DB
:103518002849015F621B0A3E473A510A3C3B4B4E21
:1035280016380829483F11540D4A434D35575D3B1D
:103538004F046464245C131D4053165F4E120958EF
:1035480018071B1B5E3015602D510E4263425D2E1D
:10355800294C0D0A3A2C64630C602F40221462082F
:1035680002641027183835042D484E4349221E237B
:1035780008035119084D0D5F2E1B0F5E54145E157C
:103588004702612757412C1C2C5B5E533B59144959
:103598002A0F45421D065E20443627404222451523
:1035A800062713465C5362430F3A0808550A1D4B19
:1035B8001A2A62255C501E37542B240E20522E0CDA
:1035C80064035C4645223538223F560F1F093225D1
:1035D8001D0900161D2A622A4F1C452118141418AB
:1035E8000F37465B1910555C2B3C4F48600E220282
:1035F800492C0A503D2D620B41284256081215519C
:10360800331B4A5C3F0D4E564757010320123C2797
:1036180043596247544B0D4D2D2A325F215C3521A9
:1036280015252E64185129131814242B1E0E6435E1
:1036380048411F5C533925334A0A360B645A215DC9
:10364800623A61363B10630963451C0A0B375C29F3
:103658004F3E19533D341A1953455B1B073020431D
:103668001F243A4A2F561F085842442E04583F53E5
:103678003D0F0F0F585006133A4D435F432A1D075D
:103688005E4A28340B0B1109460D11003B292163B2
:10369800105D35374C005F194D543A1531065010FE
:1036A8005420251B63151D440B5F585553250551A0
:1036B8005635344C3E20541C2058383C4B5B062A67
:1036C8000459603641035D16375B010C3C26152C06
:1036D80051571E49311F5A4E1A64255348375121F4
:1036E8002213501C350914644630224D19223E23FA
:1036F800233735614743104A4A1F4B0B235E4D520F
:10370800314456163C5C444B4B080C1F5259201848
:103718000D26185B16504227450664262D06505183
:103728003F3F1E1E295E13060D0504201F61135E10
:1037380064441F335D4630603C5C5A083C2A4A5357
:103748005C0E153D532322175B48554C41295046C2
:10375800050F160239361C331C301A5212030F4358
:103768003602495F0C1A3D2C2B505114061F363275
:103778002A1D2C021F5F5A2210163A4156391F0C77
:103788003805123F5D3921205D104A1E5F585B4A9B
:1037980041552A0D445011024A280A33064C4D0659
:1037A800091A603C5C062B4638010D3D3C414058E7
:1037B800190C472203370C1D5F3E0D57000001000E
:1037C80001000100000001000100010001010101E8
:1037D80001010101010100000100000000010100D8
:1037E80000000001010000010000010100010001CA
:1037F80000010001000101000100000100000000BB
:1038080000010101010001000101010100000001A6
:10381800010000010000010101000000000001009A
:103828000100000000010101010100010000000089
:103838000001000100000001010000010000010179
:103848000100000001010100010001000001000069
:103858000100010100010101000000010100000058
:103868000100000001010001010001010001010146
:103878000001000001010001000100010100000039
:103888000001010100000101000001000001010028
:10389800010000010100010000000001000000001B
:1038A8000101010000010000010001000001000009
:1038B80000000001000100010100010001000100F9
:1038C80000010001000000000100000000000000ED
:1038D80000000100000101010001000101000001D8
:1038E80000010000000001000001010000010000CB
:1038F80000000000010001010001010101010001B7
:1039080000000101000001010100000001010101A6
:103918000101010101010100010001000001010094
:103928000000000001000101010100000100010088
:103938000000010000010101010100000001010077
:103948000001000101000100010001000000010167
:103958000000010001010100000100010000010157
:103968000001010100000100010001000101000047
:103978000000000100010000000001010101010038
:103988000100000001000101010100000100000028
:103998000000010100010101010000000101000017
:1039A8000101000100010100010000000001010106
:1039B80000000101010100010101000001000100F6
:1039C80001010101000100000000010000010100E7
:1039D80001010100000000010000000100000100D9
:1039E80000000001010100010000010101000101C6
:1039F80001000100010100010000000000000100B9
:103A080001010101000101010001000101010001A2
:103A18000101000100000101010101000000010194
:103A28000001000101010100000000010100010185
:103A38000000000000000101010101010100010175
:103A48000100000000000100010101000000010068
:103A58000001000100010100010100010000000057
:103A68000000000001000001010101000001010146
:103A78000101000101000001000000000101000136
:103A88000001010101010101000001000100000124
:103A98000100010000010000000000000101000019
:103AA8000100010000000000000100000101000009
:103AB80001000101000101000100000001000000F7
:103AC80001010000000101000000000000000001E9
:103AD80000010001010001000100010001010001D5
:103AE80001010000000000000100010100010101C6
:103AF80001000100010101010100000100000001B5
:103B080001000100000100010101000101000101A3
:103B18000000000100010100010000010000000098
:103B28000101010100010000000101010100010182
:103B38000101000101010101000001000100010172
:103B48000101010100000100010100010100000064
:103B58000000010101010100000100010001010054
:103B68000101000101000001010001010100010043
:103B78000100010101010000010001000001010133
:103B88000001000000010100000100000001010027
:103B98000001010000010101000100010001010113
:103BA800000100007104000001010000A1010000F3
:103BB800D9050000B10400001101000099020000BD
:103BC800910600000101000000000000E40A002046
:103BD8004C0B0020B40B0020000000000000000087
:103BE80000000000000000000000000000000000CD
:103BF800000000000000000000000000CC330000BE
:103C080000000000000000000000000000000000AC
:103C1800000000000000000000000000000000009C
:103C2800000000000000000000000000000000008C
:103C3800000000000000000000000000000000007C
:103C4800000000000000000000000000000000006C
:103C5800000000000000000000000000000000005C
:103C6800000000000000000000000000000000004C
:103C780001000000000000000E33CDAB34126DE6E9
:103C8800ECDE05000B000000000000000000000052
:103C9800000000000000000000000000000000001C
:103CA800000000000000000000000000000000000C
:103CB80000000000000000000000000000000000FC
:103CC80000000000000000000000000000000000EC
:103FF800F80700200000000000000000240C00204A
:10400800240C00202C0C00202C0C0020340C002048
:10401800340C00203C0C00203C0C0020440C0020F8
:10402800440C00204C0C00204C0C0020540C0020A8
:10403800540C00205C0C00205C0C0020640C002058
:10404800640C00206C0C00206C0C0020740C002008
:10405800740C00207C0C00207C0C0020840C0020B8
:10406800840C00208C0C00208C0C0020940C002068
:10407800940C00209C0C00209C0C0020A40C002018
:10408800A40C0020AC0C0020AC0C0020B40C0020C8
:10409800B40C0020BC0C0020BC0C0020C40C002078
:1040A800C40C0020CC0C0020CC0C0020D40C002028
:1040B800D40C0020DC0C0020DC0C0020E40C0020D8
:1040C800E40C0020EC0C0020EC0C0020F40C002088
:1040D800F40C0020FC0C0020FC0C0020040D002037
:1040E800040D00200C0D00200C0D0020140D0020E4
:1040F800140D00201C0D00201C0D0020240D002094
:10410800240D00202C0D00202C0D0020340D002043
:10411800340D00203C0D00203C0D0020440D0020F3
:10412800440D00204C0D00204C0D0020540D0020A3
:10413800540D00205C0D00205C0D0020640D002053
:10414800640D00206C0D00206C0D0020740D002003
:10415800740D00207C0D00207C0D0020840D0020B3
:10416800840D00208C0D00208C0D0020940D002063
:10417800940D00209C0D00209C0D0020A40D002013
:10418800A40D0020AC0D0020AC0D0020B40D0020C3
:10419800B40D0020BC0D0020BC0D0020C40D002073
:1041A800C40D0020CC0D0020CC0D0020D40D002023
:1041B800D40D0020DC0D0020DC0D0020E40D0020D3
:1041C800E40D0020EC0D0020EC0D0020F40D002083
:1041D800F40D0020FC0D0020FC0D0020040E002032
:1041E800040E00200C0E00200C0E0020140E0020DF
:1041F800140E00201C0E00201C0E0020240E00208F
:10420800240E00202C0E00202C0E0020340E00203E
:10421800340E00203C0E00203C0E0020440E0020EE
:10422800440E00204C0E00204C0E0020540E00209E
:10423800540E00205C0E00205C0E0020640E00204E
:10424800640E00206C0E00206C0E0020740E0020FE
:10425800740E00207C0E00207C0E0020840E0020AE
:10426800840E00208C0E00208C0E0020940E00205E
:10427800940E00209C0E00209C0E0020A40E00200E
:10428800A40E0020AC0E0020AC0E0020B40E0020BE
:10429800B40E0020BC0E0020BC0E0020C40E00206E
:1042A800C40E0020CC0E0020CC0E0020D40E00201E
:1042B800D40E0020DC0E0020DC0E0020E40E0020CE
:1042C800E40E0020EC0E0020EC0E0020F40E00207E
:1042D800F40E0020FC0E0020FC0E0020040F00202D
:1042E800040F00200C0F00200C0F0020140F0020DA
:1042F800140F00201C0F00201C0F0020240F00208A
:10430800240F00202C0F00202C0F0020340F002039
:10431800340F00203C0F00203C0F0020440F0020E9
:10432800440F00204C0F00204C0F0020540F002099
:10433800540F00205C0F00205C0F0020640F002049
:10434800640F00206C0F00206C0F0020740F0020F9
:10435800740F00207C0F00207C0F0020840F0020A9
:10436800840F00208C0F00208C0F0020940F002059
:10437800940F00209C0F00209C0F0020A40F002009
:10438800A40F0020AC0F0020AC0F0020B40F0020B9
:10439800B40F0020BC0F0020BC0F0020C40F002069
:1043A800C40F0020CC0F0020CC0F0020D40F002019
:1043B800D40F0020DC0F0020DC0F0020E40F0020C9
:1043C800E40F0020EC0F0020EC0F0020F40F002079
:1043D800F40F0020FC0F0020FC0F00200410002028
:1043E800041000200C1000200C10002014100020D5
:1043F800141000201C1000201C10002000000200D7
:04440800FFFFFFFFB4
:00000001FF
