:1000000008040020010500005D0500005D050000FA
:100010005D0500005D0500005D05000000000000BA
:100020000000000000000000000000005D0500006E
:100030005D050000000000005D0500005D0500009A
:100040005D0500005D0500005D0500005D05000028
:100050005D0500005D0500005D0500005D05000018
:100060005D0500005D0500005D0500005D05000008
:100070005D0500005D0500005D0500005D050000F8
:100080005D0500005D0500005D0500005D050000E8
:100090005D0500005D0500005D0500005D050000D8
:1000A0005D0500005D0500005D0500005D050000C8
:1000B0005D0500005D0500005D0500005D050000B8
:1000C0005D0500005D0500005D0500005D050000A8
:1000D0005D0500005D0500005D0500005D05000098
:1000E0005D0500005D0500005D0500005D05000088
:1000F0005D0500005D0500005D0500005D05000078
:1001000080B582B000AF00F019F900237B6002E0F7
:100110007B6801337B607A68154B9A42F8D900F00E
:100120009BF900F0EDF800F0CDF8124B114A12687F
:1001300042F004021A6000F025F80F4B1B881B0ADE
:100140009BB2DBB2184600F069F90B4B1B88DBB29F
:10015000184600F063F9094B1B78184600F05EF969
:10016000074B074A126882F010021A60E3E700BFEB
:100170003F54890008800240000000200400002055
:10018000FC53004080B483B000AF484B1B68DBB227
:1001900003F00403FB71454B1B68DBB203F008035B
:1001A000BB71FB795B08FB71BB79DB08BB71404B12
:1001B0001B78FA799A4204D13E4B1B78BA799A425D
:1001C00045D0FA79BB791343DAB2394B1978394BF8
:1001D0001B780B43DBB253407B71FA79BB79134335
:1001E000DBB2032B05D0FA79BB791343DBB2002BCA
:1001F00014D17B79012B06D12F4B1B8801339AB286
:100200002D4B1A8009E07B79022B06D12A4B1B88E3
:10021000013B9AB2284B1A8013E012E07B79022B43
:1002200006D1254B1B8801339AB2234B1A8008E074
:100230007B79012B05D1204B1B88013B9AB21E4BC9
:100240001A801B4BFA791A701A4BBA791A701A4B2A
:100250001A8848F267139A420ED1184B174A12684F
:1002600022F004021A60154B144A126842F0080288
:100270001A60134B01221A700F4B1A8847F6FF734E
:100280009A420ED10D4B0D4A126822F008021A60F4
:100290000A4B0A4A126842F004021A60084B002214
:1002A0001A700C37BD465DF8047B7047FC53004064
:1002B0000500002006000020000000200880024009
:1002C0000400002080B400AF0A4B0A4A126842F0D2
:1002D00002021A60084B084A126842F010021A60C3
:1002E000064B064A126842F010021A60BD465DF8DD
:1002F000047B704708E10F40005400401C5500404B
:1003000080B400AF0A4B0A4A126842F002021A6037
:10031000084B084A126822F00C021A60064B064A83
:10032000126842F00C021A60BD465DF8047B70470B
:1003300008E10F40005400401C55004080B400AF5D
:100340002A4B2A4A126842F480121A60284B284A23
:10035000126842F002021A60264B264A126842F0E6
:1003600003021A60244B244A126842F003021A6006
:10037000224B224A126842F480121A601F4B1F4A15
:10038000126822F460221A601C4B1C4A12681A6020
:100390001B4B1B4A126822F001021A60194B194AC2
:1003A000126842F08C021A60174A174B1B6843F41C
:1003B000006343F00C031360144B40F22B121A60DD
:1003C000134B95221A60134B95221A600C4B0C4A62
:1003D000126842F001021A600F4B0F4A126822F0B5
:1003E0000C021A60BD465DF8047B704700E10F40C7
:1003F00008E10F40205400401C55004060E00F40D1
:1004000080800240A0800240A48002409080024090
:10041000988002409C8002400880024080B485B0F1
:1004200000AF0346FB710023FB7300BF084B1B6842
:1004300003F02003002BF9D1064BFA791A6001234F
:10044000FB73FB7B18461437BD465DF8047B704791
:1004500018C0004000C0004080B400AF1F4B1F4ACE
:10046000126842F001021A601D4B1D4A126842F0E8
:1004700001021A601B4B1B4A126842F003021A6009
:10048000194B194A126842F003021A60174B174AB7
:10049000126822F001021A60154B154A126842F4E4
:1004A000FE621A60134B08221A60134B08221A606E
:1004B000124B124A126842F070021A600B4B0B4A40
:1004C000126842F440721A60084B084A126842F0FF
:1004D00001021A60BD465DF8047B704704E10F40DD
:1004E00008E10F40204400401C45004030C000405F
:1004F00044C0004024C0004028C000402CC0004040
:1005000080B582B000AF104B7B60104B3B6007E0C2
:100510003B681A1D3A607A68111D796012681A608A
:100520003A680B4B9A42F3D30A480B494FF000024A
:100530008842B8BF40F8042BFFF6FAAFFFF7E0FDA2
:100540000837BD4680BD00BF6405000000000020E4
:1005500004000020040000200800002080B400AF48
:04056000FEE700BFF3
:04056400FF7F000015
:00000001FF
