:10000000B8040020650F0000C10F0000C10F000000
:10001000C10F0000C10F0000C10F00000000000070
:10002000000000000000000000000000C10F000000
:10003000C10F000000000000C10F0000911500007A
:10004000C10F0000C10F0000C10F0000C10F000070
:10005000C10F0000C10F0000C10F0000C10F000060
:10006000C10F0000C10F0000C10F0000C10F000050
:10007000C10F0000C10F0000C10F0000C10F000040
:10008000C10F0000C10F0000C10F0000C10400003B
:10009000C10F0000C10F0000C10F0000C10F000020
:1000A000C10F0000C10F0000C10F0000C10F000010
:1000B000C10F0000C10F0000C10F0000C10F000000
:1000C000C10F0000C10F0000C10F0000C10F0000F0
:1000D000C10F0000C10F0000C10F0000C10F0000E0
:1000E000C10F0000C10F0000C10F0000C10F0000D0
:1000F000C10F0000C10F0000C10F0000C10F0000C0
:1001000080B400AF044B044A126842F002021A6045
:10011000BD465DF8047B70470480004080B400AFAA
:10012000044B044A126822F002021A60BD465DF8D0
:10013000047B70470480004080B582B000AF644B00
:10014000634A126842F001021A60614B1B68FB713E
:10015000604B604A126842F004021A605D4B5D4ACF
:10016000126842F008021A605A4B5A4A126842F06A
:1001700010021A60574B574A126842F020021A6068
:10018000554B554A126842F004021A60524B524ACB
:10019000126842F008021A604F4B4F4A126842F050
:1001A00010021A604C4B4C4A126842F020021A604E
:1001B0004A4B4A4A126822F004021A60474B474AE7
:1001C000126822F008021A60444B444A126822F076
:1001D00010021A60414B414A126822F020021A6054
:1001E0003F4B3F4A126822F004021A603C4B3C4AE3
:1001F000126822F008021A60394B394A126822F05C
:1002000010021A60364B364A126822F020021A6039
:10021000344B344A126822F004021A60314B314ADE
:10022000126822F008021A602E4B2E4A126822F041
:1002300010021A602B4B2B4A126822F020021A601F
:10024000294B294A126842F004021A60264B264ABA
:10025000126842F008021A60234B234A126842F0E7
:1002600010021A60204B204A126842F020021A60E5
:100270001E4B1E4A126842F004021A601B4B1B4AB6
:10028000126842F008021A60184B184A126842F0CD
:1002900010021A60154B154A126842F020021A60CB
:1002A000134B134A126842F010021A60FFF736FF30
:1002B000104B00221A60104B04221A600F4B41F2BF
:1002C0000B221A60FFF71CFF0837BD4680BD00BF38
:1002D00008E10F4020440040004500400C4500402C
:1002E00010450040144500401C45004000440040BB
:1002F00004E10F4004800040108000400080004076
:1003000080B500AF034800F0E5FA0420002100F0BA
:100310004DFD80BD5C1E000080B500AF034800F0BD
:10032000D9FA0520002100F041FD80BD701E0000BB
:1003300080B485B000AF0346FB710023FB73FB79EB
:10034000002B06D0094B1B68DBB203F00203FB73E2
:1003500005E0064B1B68DBB203F00403FB73FB7B79
:1003600018461437BD465DF8047B70470C8000408A
:1003700080B400AF034B1B689BB21846BD465DF8C6
:10038000047B70470880004080B582B000AF002039
:10039000FFF7CEFF0346002B12D00B4B1B781846FD
:1003A00000F06AFE0346002B0AD0FFF7E1FF034688
:1003B000FB80054B1A78BB1D1046194600F01CFE49
:1003C0000837BD4680BD00BF9400002080B582B0D4
:1003D00000AF00BF0120FFF7ABFF0346002BF9D0B1
:1003E000074B1A78BB1D1046194600F05FFE034606
:1003F000002B02D0034BFA881A600837BD4680BD37
:10040000950000200880004080B400AF224B224AB3
:10041000126842F480321A60204B204A126822F09F
:1004200001021A601E4B00221A601E4B1D4A126800
:1004300022F003021A601B4B1A4A126842F00202B1
:100440001A60194B194A1A60194B194A126842F07E
:1004500001021A60174B174A126842F400221A6010
:10046000154B154A126822F07F421A60124B124A4D
:10047000126842F080521A60104B104A126842F41F
:1004800000221A60054B054A126842F001021A6008
:10049000BD465DF8047B704704E10F400C0003404B
:1004A00000000340040003402800034040787D0121
:1004B0001800034080E200E010E400E000E100E00A
:1004C00080B500AF00F0CEFE034B034A126842F045
:1004D00001021A6080BD00BF2400034080B500AF58
:1004E000FFF792FF0320002100F060FC80BD00BFF9
:1004F00080B582B000AF0023BB8000237B80244BFB
:100500001A78BB1C1046194600F0D0FD0346002B9C
:100510000AD07B889BB2C3F309039BB243F4006308
:100520009BB29BB2BB8001E00023BB80194B1A78C1
:100530003B1D1046194600F05FFD174B1A78BB1D96
:100540001046194600F0B2FD0346002B1DD0FB8873
:1005500003F40063002B0CD0FB88C3F30A039BB2A7
:10056000FB800E4B1A78BB1D1046194600F068FD43
:100570000BE0FB88C3F30A039BB2FB80084B1A789D
:10058000BB1D1046194600F05BFD0837BD4680BD17
:100590009800002095000020940000209700002083
:1005A0009600002080B500AF00204FF4FA7100F0F3
:1005B000FDFB0248002100F08DF980BD841E000083
:1005C00080B500AF054B054A126882F001021A603F
:1005D0004FF4FA7000F0D2FB80BD00BFFC53024024
:1005E00080B500AF00F03EFE00F0C2FD00F0D0F894
:1005F000FFF7A2FD00F068FB00F0E6FC03461A4698
:10060000154B1A6000F0E0FC03461A46134B1A60C3
:1006100000F0DAFC03461A46114B1A7000F0D4FCC5
:1006200003461A460F4B1A7000F0CEFC03461A46DA
:100630000D4B1A7000F0C8FC03461A460B4B1A709B
:1006400000F0C2FC03461A46094B1A7000F002FE85
:1006500000F010FCFEE700BF8C000020900000209E
:1006600095000020940000209700002096000020B4
:100670009800002080B500AF0220002100F096FB1A
:1006800080BD00BF80B500AF034800F023F9012012
:10069000002100F08BFB80BDAC1E000080B485B053
:1006A00000AF0346FB710023FB73FB79002B0AD0DC
:1006B0000D4B1B6803F02003002B14BF0023012304
:1006C000DBB2FB7309E0084B1B6803F01003002B3F
:1006D00014BF00230123DBB2FB73FB7B18461437E6
:1006E000BD465DF8047B704718C0004080B400AF81
:1006F000034B1B68DBB21846BD465DF8047B7047B0
:1007000000C0004080B582B000AF0023FB80002015
:10071000FFF7C4FF0346002B14D00C4B1B68DBB261
:10072000184600F0A9FC0346002B0BD0FFF7DEFFB4
:100730000346FB80054B1B68DAB2BB1D1046194609
:1007400000F05AFC0837BD4680BD00BF9000002075
:1007500080B582B000AF00BF0120FFF79FFF0346C6
:10076000002BF9D0084B1B68DAB2BB1D10461946A6
:1007700000F09CFC0346002B02D0044BFA881A6060
:100780000837BD4680BD00BF8C00002000C000407F
:1007900080B400AF254B254A126842F001021A606E
:1007A000234B234A126842F001021A60214B214A6E
:1007B000126842F001021A601E4B1E4A126842F093
:1007C00002021A601C4B1C4A126842F001021A60B5
:1007D000194B194A126842F002021A60174B174A65
:1007E000126822F001021A60154B154A126842F491
:1007F000FE621A60134B1B221A60134B08221A6008
:10080000124B124A126842F070021A600B4B0B4AEC
:10081000126842F480721A60084B084A126842F06B
:1008200001021A60BD465DF8047B704704E10F4089
:1008300008E10F40204400401C45004030C000400B
:1008400044C0004024C0004028C000402CC00040EC
:1008500080B483B000AF78600B46FB7000BF074BDD
:100860001B6803F02003002BF9D1054BFA781A60BE
:100870000C37BD465DF8047B704700BF18C00040D0
:1008800000C0004080B584B000AF786039600023BC
:10089000BB600023FB6014E07A68FB6813441B789C
:1008A0000A2B03D100200D21FFF7D2FF7A68FB68E5
:1008B00013441B78B8681946FFF7CAFFFB68013379
:1008C000FB60FA683B689A42E6D3FB68184610372B
:1008D000BD4680BD0FB490B58FB000AF07F14C039B
:1008E0007B60E0E100237B6302E07B6B01337B6391
:1008F000BA6C7B6B13441B78252B05D0BA6C7B6BD1
:1009000013441B78002BF0D1B86C796BFFF7BAFF5A
:10091000BA6C7B6B1344BB64BB6C1B78252B40F01B
:10092000C281BB6C0133BB640023FB62202387F8C8
:100930002330BB6C5A1CBA641B78253B532B00F246
:10094000AD8101A151F823F08F0C00009D0C000037
:100950009D0C00009D0C00009D0C00009D0C0000F3
:100960009D0C00009D0C00009D0C00009D0C0000E3
:100970009D0C0000990A0000990A0000990A0000E5
:10098000990A0000990A0000990A0000990A0000DB
:10099000990A0000990A0000990A00009D0C0000C5
:1009A0009D0C00009D0C00009D0C00009D0C0000A3
:1009B0009D0C00009D0C00009D0C00009D0C000093
:1009C0009D0C00009D0C00009D0C00009D0C000083
:1009D0009D0C00009D0C00009D0C00009D0C000073
:1009E0009D0C00009D0C00009D0C00009D0C000063
:1009F0009D0C00009D0C00009D0C00009D0C000053
:100A00009D0C00009D0C00009D0C00009D0C000042
:100A10009D0C0000770B00009D0C00009D0C000059
:100A20009D0C00009D0C00009D0C00009D0C000022
:100A30009D0C00009D0C00009D0C00009D0C000012
:100A4000CD0A0000E50A00009D0C00009D0C00008E
:100A50009D0C00009D0C00009D0C00009D0C0000F2
:100A60009D0C00009D0C00009D0C00009D0C0000E2
:100A70009D0C0000770B00009D0C00009D0C0000F9
:100A80000F0B00009D0C00005F0B00009D0C000090
:100A90009D0C0000770B0000BB6C013B1B78302BDA
:100AA00005D1FB6A002B02D1302387F82330FA6A84
:100AB00013469B0013445B00FB62BB6C013B1B783D
:100AC0001A46FB6A1344303BFB6232E77B681A1D0F
:100AD0007A601B68BB6107F1180318460121FFF714
:100AE000D1FEE0E07B681A1D7A601B68BB610023C1
:100AF0003B63BB69002B05DABB695B42BB61012329
:100B00007B6201E000237B620A23BB623EE07B68DC
:100B10001A1D7A601B68FB6100237B6302E07B6B1C
:100B200001337B63FA697B6B13441B78002BF6D18E
:100B3000F869796BFFF7A6FEFA6A7B6B9A420DD9CA
:100B4000FA6A7B6BD31AFB6203E05C480121FFF772
:100B500099FEFB6A5A1EFA62002BF6D1A3E07B686D
:100B60001A1D7A601B68BB6100233B630A23BB62CA
:100B700000237B620AE07B681A1D7A601B68BB61F8
:100B800000233B631023BB6200237B6201237B6352
:100B900007E07B6BBA6A02FB03F37B63FB6A013BF2
:100BA000FB627B6BBA6A02FB03F2BB699A4209D80B
:100BB0007B6BBA6A02FB03F2BB6AB2FBF3F27B6B9C
:100BC0009A42E6D07B6A002B02D0FB6A013BFB62B3
:100BD0007B6A002B0ED097F82330302B0AD13B6B69
:100BE0005A1C3A6307F1380213442D2203F8302CC3
:100BF00000237B62FB6A012B16D9FB6A0F2B13D8EB
:100C0000FB6A013BFB620CE03B6B5A1C3A6307F149
:100C100038010B4497F8232003F8302CFB6A013B82
:100C2000FB62FB6A002BEFD17B6A002B09D03B6B88
:100C30005A1C3A6307F1380213442D2203F8302C72
:100C40001BE01AE03B6B5A1C3A631D49B8697A6B8A
:100C5000B0FBF2F2B86AB2FBF0F0BC6A04FB00F041
:100C6000121A0A44127807F138010B4403F8302CA9
:100C70007A6BBB6AB2FBF3F37B637B6B002BE1D136
:100C800007F108031846396BFFF7FCFD0BE0BB6C5E
:100C9000013B18460121FFF7F5FD04E00948052155
:100CA000FFF7F0FD00BFBB6C1B78002B7FF41AAE82
:100CB0003C37BD46BDE8904004B07047C01E000000
:100CC000941E0000C41E000080B400AF224B224AD4
:100CD000126842F020021A601F4B1F4A126842F04D
:100CE00040021A601C4B1C4A126842F008021A604B
:100CF0001A4B1A4A126842F002021A60184B184A3C
:100D0000126842F001021A60164B164A126842F04D
:100D100040021A60144B144A126842F002021A6030
:100D2000124B124A126842F001021A60104B104A2C
:100D3000126842F040021A600E4B0E4A126842F0EE
:100D400001021A600C4B0C4A126842F040021A6011
:100D5000BD465DF8047B704708E10F400064024027
:100D600000540240007400401C6502401C550240C3
:100D70001C750040FC530240FC73004080B483B0FB
:100D800000AF0346FB8072B6064B1B781A46064B33
:100D9000F98823F8121062B60C37BD465DF8047B63
:100DA000704700BF42000020A800002080B483B03C
:100DB00000AF02460B46FA71BB8072B6FB79094A56
:100DC000D35C012B08D1FB79064A0021D154FA7972
:100DD000054BB98823F8121062B60C37BD465DF892
:100DE000047B7047A0000020A800002080B483B0DE
:100DF00000AF0023FB710023FB710BE0FA79094B74
:100E0000002123F81210FB79074A0121D154FB7904
:100E10000133FB71FB79062BF0D90C37BD465DF829
:100E2000047B7047A8000020A000002080B582B09D
:100E300000AF0023FB710023FB7110E0FA790B4B2C
:100E400053F82230002B07D0094BFA791A70FA793F
:100E5000064B53F822309847FB790133FB71FB793D
:100E6000062BEBD90837BD4680BD00BF000000202F
:100E70004200002080B500AF72B6FFF7B7FFFFF762
:100E8000D5FF00F093FB62B600F0D2FB0346002BC7
:100E90005CD0002000F030F900F0DEFB2C4B00228B
:100EA0001A701DE02A4B1B782A4AD35C002B11D103
:100EB000274B1B781A46284B33F81230002B09D0E9
:100EC000234B1B78244A32F81320013A91B2224A6C
:100ED00022F813101E4B1B780133DAB21C4B1A7028
:100EE0001B4B1B78062BDDD9194B00221A7025E00D
:100EF000174B1B78174AD35C002B19D1144B1B7866
:100F00001A46154B33F81230002B11D1104B1B78B9
:100F10001A46114B002123F812100D4B1A780F4B73
:100F20001A700B4B1B781A460D4B53F8223098471A
:100F3000074B1B780133DAB2054B1A70044B1B7850
:100F4000062BD5D9012000F0D7F89DE79CE700BF1C
:100F50009C000020A0000020A800002042000020EB
:100F60001C00002080B582B000AF104B7B60104B9E
:100F70003B6007E03B681A1D3A607A68111D796092
:100F800012681A603A680B4B9A42F3D30A480B492D
:100F90004FF000028842B8BF40F8042BFFF6FAAFCA
:100FA000FFF71EFB0837BD4680BD00BF1C1F0000B9
:100FB000000000204000002040000020B800002079
:100FC00080B400AFFEE700BF80B400AF084B1B78D1
:100FD000084A9B00134401229A70054B1B785A1C47
:100FE000D1B2034A11701846BD465DF8047B7047C4
:100FF000440000206400002080B483B000AF0346AA
:101000003960FB71FB79092B12D8FB790B4A9B00E5
:1010100013449B78012B0BD1FA793B681988074B55
:1010200023F82210FB79054A9B00134402229A7090
:101030000C37BD465DF8047B704700BF640000209C
:1010400080B483B000AF03463960FB71FB79092B94
:101050000BD8FA793B681988064B23F82210FB79E4
:10106000044A9B00134402229A700C37BD465DF877
:10107000047B70476400002080B485B000AF034655
:10108000FB710023FB73FB79074A9B0013449B7899
:10109000012B01D10123FB73FB7B18461437BD469E
:1010A0005DF8047B704700BF6400002080B485B009
:1010B00000AF03463960FB710023FB73FB790D4AD7
:1010C0009B0013449B78022B0DD1FA79094B33F81E
:1010D00022203B681A80FB79064A9B0013440122B8
:1010E0009A700123FB73FB7B18461437BD465DF8ED
:1010F000047B70476400002080B483B000AF0346D7
:10110000FB71FB79012B0AD0022B0FD0002B25D1CC
:10111000154B154A126842F040021A601EE0124B4D
:10112000114A126822F040021A6017E00F4B1B7838
:10113000002B09D10D4B01221A700B4B0A4A126881
:1011400022F040021A6008E0084B00221A70064B99
:10115000054A126842F040021A6000BF0C37BD46D3
:101160005DF8047B704700BFFC730040390000202D
:1011700080B483B000AF344B334A126842F400624B
:101180001A60314B304A126822F480021A602E4BEA
:101190002D4A126842F001021A602C4B6FF0400297
:1011A0001A60294B284A126822F470721A60264B82
:1011B000254A126842F460721A60234B224A126870
:1011C00022F030021A60204B1F4A12681A601E4B30
:1011D0001D4A126822F400521A601D4B7B6002E027
:1011E0007B68013B7B607B68002BF9D1164B164A6C
:1011F000126822F0F0621A60134B134A126842F030
:1012000080721A60104B104A126842F480021A6011
:1012100000BF0E4B1B6803F04003002BF9D00A4BB4
:10122000094A126822F400621A60094B7B6002E0EE
:101230007B68013B7B607B68002BF9D10C37BD4696
:101240005DF8047B704700BF60E00F4050E00F4046
:10125000400D030080B400AF62B6BD465DF8047B6C
:10126000704700BF80B400AF72B6BD465DF8047B26
:10127000704700BF80B500AF06200021FFF796FD44
:1012800080BD00BF00000000B0B586B000AF4FF4D5
:10129000FA73FB810023BB810023BB7500233B61F4
:1012A00019237B81964B1B7818469649FFF7FEFE63
:1012B000954B1B88013B9AB2934B1A80924B1B882B
:1012C000002B48D1904B04221A80904B1B88B3F519
:1012D000617F03D98B4B1B88632B0ED9894B1A88EE
:1012E0008A4B1B889A420CD9864B1B88B3F5617FC9
:1012F00003D9864B1B88632B03D9854B01221A70B7
:101300001AE0804B1B88B3F5617F03D97F4B1B88A4
:10131000632B0ED97B4B1A887C4B1B889A420BD2CD
:101320007A4B1B88B3F5617F03D9764B1B88632BFF
:1013300002D9774B00221A70744B1B881946714BE7
:101340001B881A46724B1B787248FFF7C3FA6D4B25
:101350001A886E4B1A80704B1B88013B9AB26E4BF9
:101360001A806D4B1B88002B40F007816A4B0A22C4
:101370001A800023FB750BE0FA7DFB7D591C674B3F
:1013800033F81110654B23F81210FB7D0133FB7508
:10139000FB7D032BF0D95B4B1A88604B1A815F4BA6
:1013A0001B891A465D4B1B88D31A7A8902FB03F30B
:1013B0003B617B895A4839691A46FFF78BFA544BCF
:1013C0001B78002B0BD03B69002B08DA7B894FF48C
:1013D000876202FB03F33A6913443B610DE04C4B17
:1013E0001B78002B09D13B69002B06DD7B894D4A18
:1013F00002FB03F33A6913443B614B483969FFF739
:1014000069FAFA893B699BB2D31A9BB23B81B7F95F
:101410000820464B1B88D31A9BB27A8902FB03F340
:101420009BB2FB80B7F908207B8992FBF3F39AB259
:10143000BB8913449BB2BB81B7F90830184600F052
:101440006DFA02460B461046194629A3D3E900233C
:1014500000F0CAFA02460B4614461D46B7F906309C
:10146000184600F05BFA02460B461046194622A3C6
:10147000D3E9002300F0B8FA02460B46204629467D
:1014800000F000F902460B46104619464FF00002E4
:101490004FF0000300F0F6F802460B4610461946DE
:1014A00000F0B4FC03469BB2BB80BB889AB2204BD1
:1014B0001B889BB213449BB29BB2BB80BB881BB200
:1014C000FF2B01DDFF23BB80BB881BB213F1FF0F95
:1014D00002DA4FF60173BB80BA88154B1A80BB88BD
:1014E0001BB2002B26DD0223BB752BE0AFF300807F
:1014F0007B14AE47E17AC43F7B14AE47E17A743F78
:1015000096000020480000203A0000204A000020F9
:101510004C000020CC1E00003C00002050000020A9
:10152000E81E0000C8FBFFFFFC1E00005A00002060
:101530005C0000200123BB75BB889BB25B429BB261
:101540009BB2BB80BA7DBB881BB20D4811461A46C0
:10155000FFF7C0F9BB7D1B029AB2BB88DBB29BB21E
:1015600013439BB2BB80074B1A783B1D10461946AC
:10157000FFF742FD3A89044B1A801837BD46B0BDCB
:10158000081F0000980000205A000020AFF30080E0
:1015900080B400AF044B1B780133DAB2024B1A70EF
:1015A000BD465DF8047B70476000002080B400AF4A
:1015B0001A4B1A4A126822F001021A60184B4CF2B8
:1015C0004F321A60174B4CF24F321A60164B164AC4
:1015D000126842F000721A60144B144A126822F02A
:1015E0007F421A60114B114A126842F0FC421A60A5
:1015F0000A4B0A4A126842F004021A60074B074A73
:10160000126842F002021A60044B044A126842F067
:1016100001021A60BD465DF8047B704710E000E0EF
:1016200018E000E014E000E004ED00E020ED00E050
:1016300080B483B000AF0023FB7172B6054B1B78FA
:10164000FB7162B6FB7918460C37BD465DF8047B2A
:10165000704700BF6000002080B400AF72B6054B39
:101660001B78013BDAB2034B1A7062B6BD465DF8D7
:10167000047B70476000002081F0004102E000BF61
:1016800083F0004330B54FEA41044FEA430594EA42
:10169000050F08BF90EA020F1FBF54EA000C55EA7D
:1016A000020C7FEA645C7FEA655C00F0E2804FEA4E
:1016B0005454D4EB5555B8BF6D420CDD2C4480EA30
:1016C000020281EA030382EA000083EA010180EA60
:1016D000020281EA0303362D88BF30BD11F0004FAE
:1016E0004FEA01314FF4801C4CEA113102D04042E4
:1016F00061EB410113F0004F4FEA03334CEA13331F
:1017000002D0524263EB430394EA050F00F0A78036
:10171000A4F10104D5F1200E0DDB02FA0EFC22FA31
:1017200005F2801841F1000103FA0EF2801843FA25
:1017300005F359410EE0A5F120050EF1200E012A16
:1017400003FA0EFC28BF4CF0020C43FA05F3C01854
:1017500051EBE37101F0004507D54FF0000EDCF1CD
:10176000000C7EEB00006EEB0101B1F5801F1BD376
:10177000B1F5001F0CD349085FEA30004FEA3C0C7A
:1017800004F101044FEA445212F5800F80F09A8070
:10179000BCF1004F08BF5FEA500C50F1000041EB74
:1017A000045141EA050130BD5FEA4C0C404141EB78
:1017B000010111F4801FA4F10104E9D191F0000F9F
:1017C00004BF01460020B1FA81F308BF2033A3F122
:1017D0000B03B3F120020CDA0C3208DD02F1140C19
:1017E000C2F10C0201FA0CF021FA02F10CE002F154
:1017F0001402D8BFC2F1200C01FA02F120FA0CFC4D
:10180000DCBF41EA0C019040E41AA2BF01EB045195
:10181000294330BD6FEA04041F3C1CDA0C340EDC93
:1018200004F11404C4F1200220FA04F001FA02F3D6
:1018300040EA030021FA04F345EA030130BDC4F194
:101840000C04C4F1200220FA02F001FA04F340EA89
:101850000300294630BD21FA04F0294630BD94F03A
:10186000000F83F4801306BF81F480110134013D21
:101870004EE77FEA645C18BF7FEA655C29D094EA92
:10188000050F08BF90EA020F05D054EA000C04BF10
:101890001946104630BD91EA030F1EBF00210020FB
:1018A00030BD5FEA545C05D14000494128BF41F09A
:1018B000004130BD14F580043CBF01F5801130BDFE
:1018C00001F0004545F0FE4141F470014FF0000089
:1018D00030BD7FEA645C1ABF194610467FEA655C3A
:1018E0001CBF0B46024650EA013406BF52EA0335DC
:1018F00091EA030F41F4002130BD00BF90F0000FCA
:1019000004BF0021704730B54FF4806404F1320405
:101910004FF000054FF0000150E700BF90F0000FBE
:1019200004BF0021704730B54FF4806404F13204E5
:1019300010F0004548BF40424FF000013EE700BFB5
:1019400042004FEAE2014FEA31014FEA02701FBF45
:1019500012F07F4393F07F4F81F06051704792F017
:10196000000F14BF93F07F4F704730B54FF4607491
:1019700001F0004521F0004120E700BF50EA0102DC
:1019800008BF704730B54FF000050AE050EA010289
:1019900008BF704730B511F0004502D5404261EBF9
:1019A00041014FF4806404F132045FEA915C3FF43A
:1019B000DCAE4FF003025FEADC0C18BF03325FEAD3
:1019C000DC0C18BF033202EBDC02C2F1200300FA88
:1019D00003FC20FA02F001FA03FE40EA0E0021FAAD
:1019E00002F11444C1E600BF70B54FF0FF0C4CF497
:1019F000E06C1CEA11541DBF1CEA135594EA0C0F4D
:101A000095EA0C0F00F0DEF82C4481EA030621EA87
:101A10004C5123EA4C5350EA013518BF52EA0335C2
:101A200041F4801143F4801338D0A0FB02CE4FF074
:101A30000005E1FB02E506F00042E0FB03E54FF0A4
:101A40000006E1FB03569CF0000F18BF4EF0010E9C
:101A5000A4F1FF04B6F5007F64F5407404D25FEA98
:101A60004E0E6D4146EB060642EAC62141EA55514B
:101A70004FEAC52040EA5E504FEACE2EB4F1FD0C8D
:101A800088BFBCF5E06F1ED8BEF1004F08BF5FEA0B
:101A9000500E50F1000041EB045170BD06F00046BD
:101AA00046EA010140EA020081EA0301B4EB5C046A
:101AB000C2BFD4EB0C0541EA045170BD41F4801162
:101AC0004FF0000E013C00F3AB8014F1360FDEBF87
:101AD000002001F0004170BDC4F10004203C35DA63
:101AE0000C341BDC04F11404C4F1200500FA05F3E6
:101AF00020FA04F001FA05F240EA020001F0004287
:101B000021F0004110EBD37021FA04F642EB0601FC
:101B10005EEA430E08BF20EAD37070BDC4F10C0426
:101B2000C4F1200500FA04F320FA05F001FA04F2EA
:101B300040EA020001F0004110EBD37041F10001D6
:101B40005EEA430E08BF20EAD37070BDC4F12005E1
:101B500000FA05F24EEA020E20FA04F301FA05F249
:101B600043EA020321FA04F001F0004121FA04F2F1
:101B700020EA020000EBD3705EEA430E08BF20EAC1
:101B8000D37070BD94F0000F0FD101F000464000FB
:101B900041EB010111F4801F08BF013CF7D041EA7D
:101BA000060195F0000F18BF704703F00046520081
:101BB00043EB030313F4801F08BF013DF7D043EA52
:101BC0000603704794EA0C0F0CEA135518BF95EA08
:101BD0000C0F0CD050EA410618BF52EA4306D1D18F
:101BE00081EA030101F000414FF0000070BD50EAAE
:101BF000410606BF1046194652EA430619D094EA38
:101C00000C0F02D150EA013613D195EA0C0F05D121
:101C100052EA03361CBF104619460AD181EA030175
:101C200001F0004141F0FE4141F470014FF000002D
:101C300070BD41F0FE4141F4780170BD70B54FF0C8
:101C4000FF0C4CF4E06C1CEA11541DBF1CEA135548
:101C500094EA0C0F95EA0C0F00F0A7F8A4EB05042A
:101C600081EA030E52EA03354FEA013100F0888021
:101C70004FEA03334FF0805545EA131343EA1263EA
:101C80004FEA022245EA111545EA10654FEA00269F
:101C90000EF000419D4208BF964244F1FD0404F558
:101CA000407402D25B084FEA3202B61A65EB0305B4
:101CB0005B084FEA32024FF480104FF4002CB6EB71
:101CC000020E75EB030E22BFB61A754640EA0C00F1
:101CD0005B084FEA3202B6EB020E75EB030E22BF31
:101CE000B61A754640EA5C005B084FEA3202B6EB72
:101CF000020E75EB030E22BFB61A754640EA9C0031
:101D00005B084FEA3202B6EB020E75EB030E22BF00
:101D1000B61A754640EADC0055EA060E18D04FEABE
:101D2000051545EA16754FEA06164FEAC30343EA5E
:101D300052734FEAC2025FEA1C1CC0D111F4801F2B
:101D40000BD141EA00014FF000004FF0004CB6E724
:101D500011F4801F04BF01430020B4F1FD0C88BFC3
:101D6000BCF5E06F3FF6AFAEB5EB030C04BFB6EBCE
:101D7000020C5FEA500C50F1000041EB045170BDC1
:101D80000EF0004E4EEA113114EB5C04C2BFD4EBEE
:101D90000C0541EA045170BD41F480114FF0000E72
:101DA000013C90E645EA060E8DE60CEA135594EAEE
:101DB0000C0F08BF95EA0C0F3FF43BAF94EA0C0FF1
:101DC0000AD150EA01347FF434AF95EA0C0F7FF466
:101DD00025AF104619462CE795EA0C0F06D152EABA
:101DE00003353FF4FDAE1046194622E750EA41069E
:101DF00018BF52EA43067FF4C5AE50EA41047FF4AF
:101E00000DAF52EA43057FF4EBAE12E74FEA410211
:101E100012F5001215D211D56FF47873B3EB62523C
:101E200012D94FEAC12343F0004343EA505311F063
:101E3000004F23FA02F018BF404270474FF00000F5
:101E4000704750EA013005D111F0004008BF6FF033
:101E5000004070474FF00000704700BF537461723C
:101E600074696E67205350492072780D0A00000093
:101E70005374617274696E67205350492074780DF1
:101E80000A0000005374617274696E672075700DEA
:101E90000A00000030313233343536373839616268
:101EA0006364656600000000941E00005374617254
:101EB00074696E6720756172742074780D0A000071
:101EC000200000004552524F520000006C703A2032
:101ED00025642C2063703A2025642C2074643A20F9
:101EE0002564200D0A00000073623A2025642C202E
:101EF00064743A2025640D0A0000000073613A20E2
:101F00002564200D0A0000006469723A2025642CC3
:0C1F10002070776D3A202564200D0A0037
:101F1C00A50500008506000075060000DD04000024
:101F2C00010300001903000075120000C105000038
:101F3C005107000005070000F104000089030000B0
:101F4C00CD03000089120000010104000A0000000A
:00000001FF
