:10000000885200207D170000D9170000D917000082
:10001000D9170000D9170000D91700000000000010
:10002000000000000000000000000000D9170000E0
:10003000D917000000000000D91700006923000054
:10004000D9170000D9170000D9170000D9170000F0
:10005000D9170000D9170000D9170000D9170000E0
:10006000D9170000D9170000D9170000D9170000D0
:10007000D9170000D9170000D9170000D9170000C0
:10008000D9170000D9170000D9170000D9170000B0
:10009000D9170000D9170000D9170000D9170000A0
:1000A000D9170000D9170000D9170000D917000090
:1000B000D9170000D9170000D9170000D917000080
:1000C000D9170000D9170000D9170000D917000070
:1000D000D9170000D9170000D9170000D917000060
:1000E000D9170000D9170000D9170000D917000050
:1000F000D9170000D9170000D9170000D917000040
:1001000080B400AF044B044A126842F002021A6045
:10011000BD465DF8047B70470480004080B400AFAA
:10012000044B044A126822F002021A60BD465DF8D0
:10013000047B70470480004080B582B000AF644B00
:10014000634A126842F001021A60614B1B68FB713E
:10015000604B604A126842F004021A605D4B5D4ACF
:10016000126842F008021A605A4B5A4A126842F06A
:1001700010021A60574B574A126842F020021A6068
:10018000554B554A126842F004021A60524B524ACB
:10019000126842F008021A604F4B4F4A126842F050
:1001A00010021A604C4B4C4A126842F020021A604E
:1001B0004A4B4A4A126822F004021A60474B474AE7
:1001C000126822F008021A60444B444A126822F076
:1001D00010021A60414B414A126822F020021A6054
:1001E0003F4B3F4A126822F004021A603C4B3C4AE3
:1001F000126822F008021A60394B394A126822F05C
:1002000010021A60364B364A126822F020021A6039
:10021000344B344A126822F004021A60314B314ADE
:10022000126822F008021A602E4B2E4A126822F041
:1002300010021A602B4B2B4A126822F020021A601F
:10024000294B294A126842F004021A60264B264ABA
:10025000126842F008021A60234B234A126842F0E7
:1002600010021A60204B204A126842F020021A60E5
:100270001E4B1E4A126842F004021A601B4B1B4AB6
:10028000126842F008021A60184B184A126842F0CD
:1002900010021A60154B154A126842F020021A60CB
:1002A000134B134A126842F010021A60FFF736FF30
:1002B000104B00221A60104B04221A600F4B41F2BF
:1002C0000B221A60FFF71CFF0837BD4680BD00BF38
:1002D00008E10F4020440040004500400C4500402C
:1002E00010450040144500401C45004000440040BB
:1002F00004E10F4004800040108000400080004076
:1003000080B500AF034800F07BFE0420002101F01F
:1003100059F980BDE842000080B500AF034800F005
:100320006FFE0520002101F04DF980BDFC42000068
:1003300080B485B000AF0346FB710023FB73FB79EB
:10034000002B06D0094B1B68DBB203F00203FB73E2
:1003500005E0064B1B68DBB203F00403FB73FB7B79
:1003600018461437BD465DF8047B70470C8000408A
:1003700080B400AF034B1B689BB21846BD465DF8C6
:10038000047B70470880004080B582B000AF08E071
:10039000FFF7EEFF0346FB80BB1D0648194601F040
:1003A000A9FB0020FFF7C4FF0346002BF0D108375C
:1003B000BD4680BD440A002080B582B000AF00BFBA
:1003C0000120FFF7B5FF0346002BF9D002E0074BF1
:1003D000FA881A60BB1D0648194601F0D3FB034694
:1003E000002BF4D10837BD4680BD00BF0880004017
:1003F000500A002080B500AF034800F001FE06203F
:10040000002101F0DFF880BD1043000080B582B00C
:1004100000AF0023FB710023BB80FB1D9D481946E4
:1004200001F0B0FB0346002B00F05E829A4B1B7874
:10043000012B1FD0022B38D0002B00D054E2FB79C7
:10044000662B0CD0702B00D013E0944B00221A7056
:10045000934B01221A70904B01221A7009E08F4BC6
:1004600001221A708E4B01221A708B4B01221A70D6
:1004700000BF39E2FB79702B02D0742B0AD013E055
:10048000884B00221A70884B00221A60824B02228D
:100490001A7009E0834B01221A70834B00221A6004
:1004A0007D4B02221A7000BF1EE27D4B1B78042B8D
:1004B00000F2188201A151F823F000BFD10400001E
:1004C000090500004105000079050000B1050000A4
:1004D000FB79392B17D8FB792F2B14D9724B1A685B
:1004E00013469B0013445B001A466F4B1A60FB795E
:1004F000A3F130026C4B1B681A446B4B1A60684BBB
:1005000001221A70EFE1EEE1FB79392B17D8FB7964
:100510002F2B14D9644B1A6813469B0013445B00BD
:100520001A46614B1A60FB79A3F130025E4B1B68DF
:100530001A445D4B1A605A4B02221A70D3E1D2E181
:10054000FB79392B17D8FB792F2B14D9564B1A6806
:1005500013469B0013445B001A46534B1A60FB7909
:10056000A3F13002504B1B681A444F4B1A604C4B9E
:1005700003221A70B7E1B6E1FB79392B17D8FB7962
:100580002F2B14D9484B1A6813469B0013445B0069
:100590001A46454B1A60FB79A3F13002424B1B68A7
:1005A0001A44414B1A603E4B04221A709BE19AE1B7
:1005B000FB79392B00F29581FB792F2B40F2918149
:1005C000394B1A6813469B0013445B001A46364B9E
:1005D0001A60FB79A3F13002334B1B681A44324B8B
:1005E0001A602E4B1B78012B7CD12F4B1B682F4A96
:1005F00083FB02015A189112DA178A1A4FF48761A5
:1006000001FB02F29A1A284B1A60264B1B78012B29
:1006100028D13B1D2648194601F0FEFABB881A4630
:10062000214B1B689A4207DDBA881F4B1B689BB29F
:10063000D31A9BB2BB8006E01B4B1B689AB2BB88E7
:10064000D31A9BB2BB80BB88082B40F24681184866
:10065000154901F011FA144B1B681648194600F0B1
:10066000CFFC3AE10F4B1B78002B40F036813B1D4D
:100670000F48194601F0D0FABB881A460A4B1B688E
:100680009A4219DDBA88084B1B689BB2D31A9BB2F9
:10069000BB8018E0140A0020A4080020A60800204F
:1006A00000000020A5080020A808002049D6B9F2C3
:1006B000080A00202C4300008D4B1B689AB2BB88AF
:1006C000D31A9BB2BB80BB88082B40F206818948B5
:1006D000874901F0D1F9864B1B688748194600F01D
:1006E0008FFCFAE0854B1B78002B40F0F680844BA2
:1006F0001B78012B78D13B1D8248194601F08CFAFA
:100700007B4B1B68B3F5876F03DD794B4FF4876232
:100710001A60774B1B68A3F50772754B1A60744B10
:100720001A6813465B001A44714B1A60704B1A68C2
:1007300013461B019B1A5B001A466D4B1A606C4BEB
:100740001B68714A82FB03121A449212DB17D21AF9
:10075000674B1A60BB881A46654B1B681A44644B8A
:100760001A60634B1B68002B05DA614B1B6803F5AD
:1007700087625F4B1A605E4B1B68634A82FB031201
:100780001A449112DA178A1A4FF4876101FB02F2B8
:100790009A1A574B1A603B1D5C48194601F03CFA07
:1007A000BB881A46524B1B689A4207DDBA88504BE9
:1007B0001B689BB2D31A9BB2BB8006E04C4B1B68F4
:1007C0009AB2BB88D31A9BB2BB80BB88082B40F27D
:1007D00084804E48464901F04FF9454B1B684C4810
:1007E000194600F00DFC78E0454B1B78002B74D1C6
:1007F0003B1D4848194601F00FFA3D4B1B68B3F505
:10080000F06F03DD3A4B4FF4F0621A60384B1B680F
:10081000A3F57072364B1A60354B1A6813465B00AD
:100820001A44334B1A60324B1B68462202FB03F218
:100830002F4B1A602E4B1B68374A82FB03121A4457
:100840009212DB17D21A2A4B1A60BB881A46284B21
:100850001B681A44264B1A60254B1B68002B05DACF
:10086000234B1B6803F58762214B1A60204B1B68E2
:10087000254A83FB02015A189112DA178A1A4FF49B
:10088000876101FB02F29A1A194B1A603B1D194845
:10089000194601F0C1F9BB881A46154B1B689A42EC
:1008A00007DDBA88124B1B689BB2D31A9BB2BB8080
:1008B00006E00F4B1B689AB2BB88D31A9BB2BB8071
:1008C000BB88082B09D90B48094901F0D5F8084B1A
:1008D0001B681248194600F093FB114B00221A7056
:1008E00001E000E000BF00BF0837BD4680BD00BF8B
:1008F000A8080020D809002038430000A6080020DE
:10090000A5080020CC09002049D6B9F2080A002029
:1009100044430000E409002089888888504300008F
:10092000A408002080B500AF034800F069FB072051
:10093000002100F047FE80BD5C4300000000000085
:10094000B0B584B000AF00237B8100233B8100233E
:10095000FB80674B1B88013B9AB2654B1A80644B46
:100960001B88002B40F0B980614B14221A8007F1DC
:100970000A036048194601F04FF907F108035E4881
:10098000194601F049F90346002B01D100233B81B0
:100990003A897B89D31A9BB2FB81B7F90E30B3F544
:1009A000077F05DDFB89A3F587639BB2FB8109E027
:1009B000B7F90E3013F5077F04DAFB8903F5876377
:1009C0009BB2FB81B7F90E204C4B1B881BB2D31A8C
:1009D0009BB21A46920013441A4691001A460B46DF
:1009E00013445B009BB2BB81B7F90E20444B1B68DC
:1009F0001A44434B1A60424B1A6840F6C4139A4299
:100A000004DD3F4B40F6C4121A6007E03C4B1A6805
:100A10003C4B9A4202DA3A4B3A4A1A60B7F90E3026
:100A2000184601F067FE04460D46354B1B68184614
:100A300001F060FE02460B461046194628A3D3E992
:100A4000002301F0BDFE02460B46104619464FF04A
:100A500000022D4B01F0DEFF02460B4620462946E0
:100A600001F0FCFC02460B4614461D46B7F90C305B
:100A7000184601F03FFE02460B46104619461AA3DF
:100A8000D3E9002301F09CFE02460B46204629468E
:100A900001F0E4FC02460B461046194602F0A2F8AB
:100AA00003469BB2FB80FB881AB240F2DC539A42A9
:100AB00003DD40F2DC53FB8007E0FB881AB2134BE6
:100AC0009A4202DA4FF62423FB80BB1D10481946D8
:100AD00000F0D2FF094BFA891A801037BD46B0BD2D
:100AE0009A9999999999A93F9A9999999999C93FE8
:100AF00002000020CC090020080A0020AC080020D9
:100B0000B00800203CF6FFFF0000494024FAFFFF38
:100B1000200A0020AFF3008080B500AF00204FF422
:100B2000FA7100F04FFD0248002100F069FA80BD23
:100B30007C43000080B500AF054B054A126882F087
:100B400001021A604FF4FA7000F0AEFC80BD00BFE5
:100B5000FC53024090B585B000AF01F073F901F08D
:100B6000F7F800F0ABF9FFF7E7FA00F043FC4A4C66
:100B70003B4618460121022200F03AFF23463A463E
:100B800007CA83E80700454C3B461846012102226C
:100B900000F02EFF23463A4607CA83E80700404C80
:100BA0003B4618460121022200F022FF23463A4626
:100BB00007CA83E807003B4C3B4618460121022246
:100BC00000F016FF23463A4607CA83E80700364C72
:100BD0003B4618460121022200F00AFF23463A460E
:100BE00007CA83E80700314C3B4618460121022220
:100BF00000F0FEFE23463A4607CA83E807002C4C65
:100C00003B4618460121022200F0F2FE23463A46F6
:100C100007CA83E80700274C3B46184601210222F9
:100C200000F0E6FE23463A4607CA83E80700224C56
:100C30003B4618460221022200F0DAFE23463A46DD
:100C400007CA83E807001D4C3B46184602210222D2
:100C500000F0CEFE23463A4607CA83E80700184C48
:100C60003B4618461021012200F0C2FE23463A46B8
:100C700007CA83E80700134C3B461846102101229F
:100C800000F0B6FE23463A4607CA83E8070001F0A3
:100C9000D1F800F0FBFCFEE7E4090020CC090020BD
:100CA000380A0020F0090020200A00202C0A002029
:100CB000080A0020D8090020500A0020440A002019
:100CC000FC090020140A002080B500AF034800F0A2
:100CD00097F90320002100F075FC80BD8C430000D3
:100CE00080B582B000AF0023FB800023BB800023CF
:100CF0007B8000233B80BB1C2848194600F042FF44
:100D00000346002B0AD07B889BB2C3F309039BB236
:100D100043F400639BB29BB2BB8014E03B46204887
:100D2000194600F02FFF0346002B0AD03B889BB2E8
:100D3000C3F309039BB243F440639BB29BB2BB80F5
:100D400001E00023BB803B1D1648194600F0D2FE8F
:100D5000BB1D1548194600F015FF0346002B19D09E
:100D6000FB8803F40063002B0AD0FB88C3F30A035B
:100D70009BB2FB80BB1D0D48194600F07DFE09E0CB
:100D8000FB88C3F30A039BB2FB80BB1D08481946CE
:100D900000F072FE0837BD4680BD00BF380A002053
:100DA000F0090020500A0020440A0020E409002035
:100DB000CC09002080B500AF0220002100F002FC29
:100DC00080BD00BF80B500AF034800F019F90120D5
:100DD000002100F0F7FB80BDC443000080B485B063
:100DE00000AF0346FB710023FB73FB79002B0AD095
:100DF0000D4B1B6803F02003002B14BF00230123BD
:100E0000DBB2FB7309E0084B1B6803F01003002BF7
:100E100014BF00230123DBB2FB73FB7B184614379E
:100E2000BD465DF8047B704718C0004080B400AF39
:100E3000034B1B68DBB21846BD465DF8047B704768
:100E400000C0004080B582B000AF0023FB800020CE
:100E5000FFF7C4FF0346002B0ED0094800F0CCFE7C
:100E60000346002B08D0FFF7E1FF0346FB80BB1DC4
:100E70000348194600F03EFE0837BD4680BD00BF5E
:100E8000140A002080B582B000AF00BF0120FFF738
:100E9000A5FF0346002BF9D0BB1D0648194600F0FC
:100EA00071FE0346002B02D0034BFA881A60083704
:100EB000BD4680BDFC09002000C0004080B400AFEA
:100EC000254B254A126842F001021A60234B234A3F
:100ED000126842F001021A60214B214A126842F066
:100EE00001021A601E4B1E4A126842F002021A608A
:100EF0001C4B1C4A126842F001021A60194B194A35
:100F0000126842F002021A60174B174A126822F068
:100F100001021A60154B154A126842F4FE621A600B
:100F2000134B1B221A60134B08221A60124B124AF1
:100F3000126842F070021A600B4B0B4A126842F4BE
:100F400080721A60084B084A126842F001021A6067
:100F5000BD465DF8047B704704E10F4008E10F4097
:100F6000204400401C45004030C0004044C00040C8
:100F700024C0004028C000402CC0004080B483B092
:100F800000AF78600B46FB7000BF074B1B6803F097
:100F90002003002BF9D1054BFA781A600C37BD46B7
:100FA0005DF8047B704700BF18C0004000C00040DF
:100FB00080B584B000AF786039600023BB60002347
:100FC000FB6014E07A68FB6813441B780A2B03D19A
:100FD00000200D21FFF7D2FF7A68FB6813441B78CD
:100FE000B8681946FFF7CAFFFB680133FB60FA686F
:100FF0003B689A42E6D3FB6818461037BD4680BD71
:101000000FB490B58FB000AF07F14C037B60E0E107
:1010100000237B6302E07B6B01337B63BA6C7B6BE9
:1010200013441B78252B05D0BA6C7B6B13441B78BB
:10103000002BF0D1B86C796BFFF7BAFFBA6C7B6B01
:101040001344BB64BB6C1B78252B40F0C281BB6C86
:101050000133BB640023FB62202387F82330BB6C81
:101060005A1CBA641B78253B532B00F2AD8101A1B9
:1010700051F823F0BB130000C9130000C91300008E
:10108000C9130000C9130000C9130000C9130000F0
:10109000C9130000C9130000C9130000C9130000E0
:1010A000C5110000C5110000C5110000C5110000E8
:1010B000C5110000C5110000C5110000C5110000D8
:1010C000C5110000C5110000C9130000C9130000BC
:1010D000C9130000C9130000C9130000C9130000A0
:1010E000C9130000C9130000C9130000C913000090
:1010F000C9130000C9130000C9130000C913000080
:10110000C9130000C9130000C9130000C91300006F
:10111000C9130000C9130000C9130000C91300005F
:10112000C9130000C9130000C9130000C91300004F
:10113000C9130000C9130000C9130000C91300003F
:10114000A3120000C9130000C9130000C913000056
:10115000C9130000C9130000C9130000C91300001F
:10116000C9130000C9130000C9130000F9110000E1
:1011700011120000C9130000C9130000C9130000B8
:10118000C9130000C9130000C9130000C9130000EF
:10119000C9130000C9130000C9130000C9130000DF
:1011A000A3120000C9130000C91300003B12000085
:1011B000C91300008B120000C9130000C9130000FE
:1011C000A3120000BB6C013B1B78302B05D1FB6ADE
:1011D000002B02D1302387F82330FA6A13469B0094
:1011E00013445B00FB62BB6C013B1B781A46FB6A35
:1011F0001344303BFB6232E77B681A1D7A601B6840
:10120000BB6107F1180318460121FFF7D1FEE0E0AA
:101210007B681A1D7A601B68BB6100233B63BB6956
:10122000002B05DABB695B42BB6101237B6201E0F5
:1012300000237B620A23BB623EE07B681A1D7A6052
:101240001B68FB6100237B6302E07B6B01337B63E4
:10125000FA697B6B13441B78002BF6D1F869796B24
:10126000FFF7A6FEFA6A7B6B9A420DD9FA6A7B6B8E
:10127000D31AFB6203E05C480121FFF799FEFB6A89
:101280005A1EFA62002BF6D1A3E07B681A1D7A6021
:101290001B68BB6100233B630A23BB6200237B62A4
:1012A0000AE07B681A1D7A601B68BB6100233B6300
:1012B0001023BB6200237B6201237B6307E07B6B0F
:1012C000BA6A02FB03F37B63FB6A013BFB627B6B45
:1012D000BA6A02FB03F2BB699A4209D87B6BBA6A0D
:1012E00002FB03F2BB6AB2FBF3F27B6B9A42E6D0DD
:1012F0007B6A002B02D0FB6A013BFB627B6A002BFE
:101300000ED097F82330302B0AD13B6B5A1C3A632E
:1013100007F1380213442D2203F8302C00237B629E
:10132000FB6A012B16D9FB6A0F2B13D8FB6A013B12
:10133000FB620CE03B6B5A1C3A6307F138010B442B
:1013400097F8232003F8302CFB6A013BFB62FB6A11
:10135000002BEFD17B6A002B09D03B6B5A1C3A6300
:1013600007F1380213442D2203F8302C1BE01AE059
:101370003B6B5A1C3A631D49B8697A6BB0FBF2F2B9
:10138000B86AB2FBF0F0BC6A04FB00F0121A0A441F
:10139000127807F138010B4403F8302C7A6BBB6AE2
:1013A000B2FBF3F37B637B6B002BE1D107F1080306
:1013B0001846396BFFF7FCFD0BE0BB6C013B184690
:1013C0000121FFF7F5FD04E009480521FFF7F0FDD5
:1013D00000BFBB6C1B78002B7FF41AAE3C37BD46B8
:1013E000BDE8904004B07047D8430000AC43000013
:1013F000DC43000080B400AF224B224A126842F066
:1014000020021A601F4B1F4A126842F040021A6005
:101410001C4B1C4A126842F008021A601A4B1A4A06
:10142000126842F002021A60184B184A126842F021
:1014300001021A60164B164A126842F040021A6006
:10144000144B144A126842F002021A60124B124AFC
:10145000126842F001021A60104B104A126842F002
:1014600040021A600E4B0E4A126842F001021A60E6
:101470000C4B0C4A126842F040021A60BD465DF8FF
:10148000047B704708E10F400064024000540240B2
:10149000007400401C6502401C5502401C75004051
:1014A000FC530240FC73004080B483B000AF03469D
:1014B000FB8072B6064B1B781A46064BF98823F858
:1014C000121062B60C37BD465DF8047B704700BF52
:1014D000BA0800206C0A002080B483B000AF034635
:1014E000FB8072B6064B1A88FB8813439AB2044BF2
:1014F0001A8062B60C37BD465DF8047B704700BFAA
:10150000B808002080B483B000AF0346FB8072B6F9
:10151000FB88DB439AB2074B1B889BB213409BB2FC
:101520009AB2044B1A8062B60C37BD465DF8047B54
:10153000704700BFB808002080B485B000AF0346F4
:10154000FB800023FB7372B6094B1A88FB8813409B
:101550009BB2002B0CBF00230123DBB2FB7362B6EE
:10156000FB7B18461437BD465DF8047B704700BF0F
:10157000B808002080B485B000AF0346FB7172B696
:10158000FA79064B33F81230FB8162B6FB891846B4
:101590001437BD465DF8047B704700BF6C0A00201D
:1015A00080B483B000AF0346FB7172B6FB79044A86
:1015B0000121D15462B60C37BD465DF8047B7047FB
:1015C000600A002080B483B000AF02460B46FA7177
:1015D000BB8072B6FB79094AD35C012B08D1FB7939
:1015E000064A0021D154FA79054BB98823F8121024
:1015F00062B60C37BD465DF8047B7047600A002078
:101600006C0A002080B483B000AF0023FB7100237C
:10161000FB710BE0FA79094B002123F81210FB79DA
:10162000074A0121D154FB790133FB71FB790A2B65
:10163000F0D90C37BD465DF8047B70476C0A00207A
:10164000600A002080B582B000AF0023FB71002348
:10165000FB7110E0FA790B4B53F82230002B07D0C6
:10166000094BFA791A70FA79064B53F822309847E9
:10167000FB790133FB71FB790A2BEBD90837BD46A7
:1016800080BD00BF04000020BA08002080B500AF74
:1016900072B6FFF7B7FFFFF7D5FF00F073FE62B633
:1016A00000F0B2FE0346002B5CD0002000F014FBDB
:1016B00000F0BEFE2C4B00221A701DE02A4B1B7856
:1016C0002A4AD35C002B11D1274B1B781A46284B92
:1016D00033F81230002B09D0234B1B78244A32F800
:1016E0001320013A91B2224A22F813101E4B1B78A4
:1016F0000133DAB21C4B1A701B4B1B780A2BDDD955
:10170000194B00221A7025E0174B1B78174AD35C3F
:10171000002B19D1144B1B781A46154B33F8123095
:10172000002B11D1104B1B781A46114B002123F8C6
:1017300012100D4B1A780F4B1A700B4B1B781A4670
:101740000D4B53F822309847074B1B780133DAB220
:10175000054B1A70044B1B780A2BD5D9012000F0D9
:10176000BBFA9DE79CE700BF5C0A0020600A0020EE
:101770006C0A0020BA0800203000002080B582B03A
:1017800000AF104B7B60104B3B6007E03B681A1DBD
:101790003A607A68111D796012681A603A680B4BDA
:1017A0009A42F3D30A480B494FF000028842B8BF6F
:1017B00040F8042BFFF6FAAFFFF7CCF90837BD4627
:1017C00080BD00BF6844000000000020A408002085
:1017D000A4080020880A002080B400AFFEE700BF04
:1017E00080B500AF09200021FFF7ECFE80BD00BFEF
:1017F000B0B584B000AF00237B8100233B81002380
:10180000FB80714B1B88013B9AB26F4B1A806E4B69
:101810001B88002B40F0CA806B4B14221A8007F102
:101820000A036A48194600F0F7F907F10803684807
:10183000194600F0F1F90346002B01D100233B814A
:101840003B89CD2B0DD93B89B3F5577F09D23B8915
:10185000B3F5057F02D2CD233B8102E04FF45773ED
:101860003B813A897B89D31A9BB2FB81B7F90E3051
:10187000B3F5077F05DDFB89A3F587639BB2FB8189
:1018800009E0B7F90E3013F5077F04DAFB8903F599
:1018900087639BB2FB81B7F90E204E4B1B881BB2AE
:1018A000D31A9BB21A46920013441A4691001A4664
:1018B0000B4613445B009BB2BB81B7F90E20464B2D
:1018C0001B681A44444B1A60434B1A6840F6C41311
:1018D0009A4204DD404B40F6C4121A6007E03E4BCA
:1018E0001A683E4B9A4202DA3B4B3C4A1A60B7F9FF
:1018F0000E30184600F0FEFE04460D46364B1B68BF
:10190000184600F0F7FE02460B46104619462AA379
:10191000D3E9002300F054FF02460B461046194657
:101920004FF000022E4B01F075F802460B462046A0
:10193000294600F093FD02460B4614461D46B7F9B2
:101940000C30184600F0D6FE02460B4610461946EB
:101950001BA3D3E9002300F033FF02460B462046C9
:10196000294600F07BFD02460B461046194601F061
:1019700039F903469BB2FB80FB881AB240F2DC5374
:101980009A4203DD40F2DC53FB8007E0FB881AB289
:10199000144B9A4202DA4FF62423FB80BB1D1248F7
:1019A000194600F069F80B4BFA891A801037BD46CA
:1019B000B0BD00BFAFF300809A9999999999A93F5A
:1019C0009A9999999999C93F5C000020E4090020EF
:1019D000D8090020BC080020C00800203CF6FFFF0A
:1019E0000000494024FAFFFF2C0A0020AFF30080DA
:1019F00080B586B000AF786013460A46FA70BB70B7
:101A0000FA78BB781046194601F014F903463B6199
:101A10003B69002B03D11448FFF7F2FA02E01348A8
:101A2000FFF7EEFA00233B7300237B73BB78BB7395
:101A3000FB78FB7300233B7500237B750C4B1B78F5
:101A40005A1CD1B20A4A1170BB75BB7B09481946B2
:101A5000FFF7D6FA7B6807F10C0207CA83E8070094
:101A600078681837BD4680BDE44300000444000098
:101A7000C80800201844000080B582B000AF78602C
:101A800039607B681B787A68D278B3FBF2F102FB8D
:101A900001F29B1ADAB27B681A707B681A7A7B684B
:101AA000DB789A4206D27B681B7A0133DAB27B6814
:101AB0001A7202E07B6801225A727B6859687B685F
:101AC0009B787A681278013A02FB03F37A68D2783D
:101AD00093FBF2F002FB00F29B1A9B00CA187B6892
:101AE0009B78104639681A4601F078FB0837BD46E6
:101AF00080BD00BF90B585B000AF7860396000232D
:101B0000FB737B681B787A68D278B3FBF2F102FB37
:101B100001F29B1ADAB27B681A707B685B7A002B41
:101B200006D07B681A787B685A707B6800225A72EC
:101B30007B681A7A7B68DB789A421DD27B681B7AB5
:101B40000133DAB27B681A727B685A687B689B78CB
:101B500019467B681B78581CC4B27868047003FB74
:101B600001F39B001A447B689B78104639681A463B
:101B700001F034FB0123FB73FB7B18461437BD4691
:101B800090BD00BF90B585B000AF7860396000238C
:101B9000FB737B681B7A002B29D07B681B7A013B87
:101BA000DAB27B681A727B685A687B689B78194640
:101BB0007B685B78581CC4B27868447003FB01F3FF
:101BC0009B001A447B689B78386811461A4601F0DE
:101BD00005FB7B685B787A68D278B3FBF2F102FB95
:101BE00001F29B1ADAB27B685A700123FB73FB7B0C
:101BF00018461437BD4690BD80B483B000AF7860FE
:101C00007B68DA787B681B7AD31ADBB218460C370C
:101C1000BD465DF8047B704780B584B000AF786046
:101C200039600023FB737B681B7A002B12D07B6822
:101C30005A687B689B787968497801FB03F39B00BD
:101C40001A447B689B78386811461A4601F0C6FA38
:101C50000123FB73FB7B18461037BD4680BD00BFD8
:101C600080B483B000AF0346FB71FB79012B0AD02F
:101C7000022B0FD0002B25D1154B154A126842F0CC
:101C800002021A601EE0124B114A126822F0020290
:101C90001A6017E00F4B1B78002B09D10D4B012266
:101CA0001A700B4B0A4A126822F002021A6008E00E
:101CB000084B00221A70064B054A126842F00202D5
:101CC0001A6000BF0C37BD465DF8047B704700BF4B
:101CD000FC6302405E00002080B483B000AF034686
:101CE000FB71FB79012B0AD0022B0FD0002B25D1E1
:101CF000154B154A126842F040021A601EE0124B62
:101D0000114A126822F040021A6017E00F4B1B784C
:101D1000002B09D10D4B01221A700B4B0A4A126895
:101D200022F040021A6008E0084B00221A70064BAD
:101D3000054A126842F040021A6000BF0C37BD46E7
:101D40005DF8047B704700BFFC7300405F0000201B
:101D500080B483B000AF344B334A126842F400625F
:101D60001A60314B304A126822F480021A602E4BFE
:101D70002D4A126842F001021A602C4B6FF04002AB
:101D80001A60294B284A126822F470721A60264B96
:101D9000254A126842F460721A60234B224A126884
:101DA00022F030021A60204B1F4A12681A601E4B44
:101DB0001D4A126822F400521A601D4B7B6002E03B
:101DC0007B68013B7B607B68002BF9D1164B164A80
:101DD000126822F0F0621A60134B134A126842F044
:101DE00080721A60104B104A126842F480021A6026
:101DF00000BF0E4B1B6803F04003002BF9D00A4BC9
:101E0000094A126822F400621A60094B7B6002E002
:101E10007B68013B7B607B68002BF9D10C37BD46AA
:101E20005DF8047B704700BF60E00F4050E00F405A
:101E3000400D030080B400AF62B6BD465DF8047B80
:101E4000704700BF80B400AF72B6BD465DF8047B3A
:101E5000704700BF80B500AF0348FFF7D1F80A20F4
:101E60000021FFF7AFFB80BD24440000000000000C
:101E7000B0B586B000AF00237B810023FB80002338
:101E8000BB7500233B618E4B1B88013B9AB28C4B88
:101E90001A808B4B1B88002B40F00081884B32222C
:101EA0001A80BB1D87481946FFF7B6FE07F10A03E3
:101EB00085481946FFF7B0FE0023FB750BE0FA7D5D
:101EC000FB7D591C814B33F81110804B23F8121005
:101ED000FB7D0133FB75FB7D012BF0D97A897B4BB0
:101EE0009A807A4B9B881A46784B1B88D21A1346E5
:101EF0009B0013445B003B613A69754B9A4205DADB
:101F00003B6903F5285330333B6109E03A6940F2FD
:101F1000DC539A4204DD3B69A3F52853303B3B6117
:101F2000FB889AB23B699BB2D31A9BB2FB81B7F98B
:101F30000E20684B1B88D31A9BB21A46920013449A
:101F40005B009BB2BB81644B1B889AB2FB89134434
:101F50009BB29AB2604B1A805F4B1B881BB2B3F5E1
:101F60007A7F04DD5C4B4FF47A721A8009E05A4B99
:101F70001B881BB213F57A7F03DA574B4FF61842D2
:101F80001A80B7F90E30184600F0B4FB02460B4633
:101F90001046194644A3D3E9002300F011FC024681
:101FA0000B4614461D46B7F90C30184600F0A2FB4C
:101FB00002460B46104619463DA3D3E9002300F024
:101FC000FFFB02460B462046294600F047FA024630
:101FD0000B4614461D46404B1B881BB2184600F0AA
:101FE00089FB02460B461046194633A3D3E900236A
:101FF00000F0E6FB02460B46104619464FF0000281
:10200000364B00F007FD02460B462046294600F0FD
:1020100025FA02460B461046194600F0E3FD03463A
:102020009BB23B813B899AB22D4B1B889BB21344D8
:102030009BB29BB23B813B891BB2FF2B02DDFF238E
:102040003B8107E03B891BB213F1FF0F02DA4FF629
:1020500001733B813A89224B1A80FA891D4B1A8001
:102060003B891BB2002B02DD0123BB7507E0022375
:10207000BB753B899BB25B429BB29BB23B81BB7DF4
:102080001B029AB23B89DBB29BB213439BB23B81EA
:1020900007F1080313481946FFF72CFD1837BD4612
:1020A000B0BD00BFAFF30080A4703D0AD7A3C03F0E
:1020B0000AD7A3703D0AA73FFA7E6ABC7493583FC3
:1020C000600000202C0A0020E4090020CC08002039
:1020D00024FAFFFFD2080020D4080020000024408A
:1020E000D6080020F009002080B500AF0348FEF7B5
:1020F00087FF08200021FFF765FA80BD40440000FB
:10210000B0B586B000AF00237B810023FB800023A5
:10211000BB7500233B618A4B1B88013B9AB2884BFD
:102120001A80874B1B88002B40F0F880844B1E22BE
:102130001A80BB1D83481946FFF76EFD07F10A039D
:1021400081481946FFF768FD0023FB750BE0FA7D17
:10215000FB7D591C7D4B33F811107C4B23F812107A
:10216000FB7D0133FB75FB7D012BF0D97A89774B21
:102170009A80764B9B881A46744B1B88D31A1B0196
:102180003B613A69724B9A4204DA3B6903F5874333
:102190003B6108E03A6940F2DC539A4203DD3B6957
:1021A000A3F587433B61FB889AB23B699BB2D31A84
:1021B0009BB2FB81B7F90E20664B1B88D31A9BB2EA
:1021C0001B019BB2BB81644B1B889AB2FB891344F1
:1021D0009BB29AB2604B1A805F4B1B881BB2B3F55F
:1021E000C86F04DD5C4B4FF4C8621A8009E05A4B9B
:1021F0001B881BB213F5C86F03DA574B4FF6C0129A
:102200001A80B7F90E30184600F074FA02460B46F1
:102210001046194644A3D3E9002300F0D1FA024640
:102220000B4614461D46B7F90C30184600F062FA0A
:1022300002460B46104619463DA3D3E9002300F0A1
:10224000BFFA02460B462046294600F007F902462F
:102250000B4614461D46404B1B881BB2184600F027
:1022600049FA02460B461046194633A3D3E9002328
:1022700000F0A6FA02460B46104619464FF000023F
:10228000364B00F0C7FB02460B462046294600F0BD
:10229000E5F802460B461046194600F0A3FC03463B
:1022A0009BB23B813B899AB22D4B1B889BB2134456
:1022B0009BB29BB23B813B891BB2FF2B02DDFF230C
:1022C0003B8107E03B891BB213F1FF0F02DA4FF6A7
:1022D00001733B813A89224B1A80FA891D4B1A807F
:1022E0003B891BB2002B02DD0223BB7507E00123F3
:1022F000BB753B899BB25B429BB29BB23B81BB7D72
:102300001B029AB23B89DBB29BB213439BB23B8167
:1023100007F1080313481946FFF7ECFB1837BD46D1
:10232000B0BD00BFAFF30080757632384A5EBD3F66
:10233000B7EBA529029C8E3F4B3ACAC16C029C3F69
:1023400064000020200A0020CC090020D8080020CA
:1023500024FAFFFFDE080020E008002000003040E3
:10236000E2080020380A002080B400AF044B1B783C
:102370000133DAB2024B1A70BD465DF8047B704738
:10238000E408002080B400AF1A4B1A4A126822F009
:1023900001021A60184B4CF24F321A60174B4CF284
:1023A0004F321A60164B164A126842F000721A60D9
:1023B000144B144A126822F07F421A60114B114AE2
:1023C000126842F0FC421A600A4B0A4A126842F054
:1023D00004021A60074B074A126842F002021A60B0
:1023E000044B044A126842F001021A60BD465DF8CF
:1023F000047B704710E000E018E000E014E000E02B
:1024000004ED00E020ED00E080B483B000AF0023D5
:10241000FB7172B6054B1B78FB7162B6FB791846EF
:102420000C37BD465DF8047B704700BFE408002010
:1024300080B400AF72B6054B1B78013BDAB2034B98
:102440001A7062B6BD465DF8047B7047E408002050
:1024500081F0004102E000BF83F0004330B54FEA55
:1024600041044FEA430594EA050F08BF90EA020FC2
:102470001FBF54EA000C55EA020C7FEA645C7FEA55
:10248000655C00F0E2804FEA5454D4EB5555B8BF78
:102490006D420CDD2C4480EA020281EA030382EAE9
:1024A000000083EA010180EA020281EA0303362D7B
:1024B00088BF30BD11F0004F4FEA01314FF4801C4E
:1024C0004CEA113102D0404261EB410113F0004F60
:1024D0004FEA03334CEA133302D0524263EB430317
:1024E00094EA050F00F0A780A4F10104D5F1200EB5
:1024F0000DDB02FA0EFC22FA05F2801841F1000110
:1025000003FA0EF2801843FA05F359410EE0A5F1E3
:1025100020050EF1200E012A03FA0EFC28BF4CF014
:10252000020C43FA05F3C01851EBE37101F00045CA
:1025300007D54FF0000EDCF1000C7EEB00006EEBD7
:102540000101B1F5801F1BD3B1F5001F0CD3490861
:102550005FEA30004FEA3C0C04F101044FEA4452B8
:1025600012F5800F80F09A80BCF1004F08BF5FEA3F
:10257000500C50F1000041EB045141EA050130BD1F
:102580005FEA4C0C404141EB010111F4801FA4F1C2
:102590000104E9D191F0000F04BF01460020B1FA17
:1025A00081F308BF2033A3F10B03B3F120020CDA4F
:1025B0000C3208DD02F1140CC2F10C0201FA0CF02D
:1025C00021FA02F10CE002F11402D8BFC2F1200C92
:1025D00001FA02F120FA0CFCDCBF41EA0C01904048
:1025E000E41AA2BF01EB0451294330BD6FEA040491
:1025F0001F3C1CDA0C340EDC04F11404C4F120027C
:1026000020FA04F001FA02F340EA030021FA04F38D
:1026100045EA030130BDC4F10C04C4F1200220FAE4
:1026200002F001FA04F340EA0300294630BD21FA22
:1026300004F0294630BD94F0000F83F4801306BFE8
:1026400081F480110134013D4EE77FEA645C18BFDC
:102650007FEA655C29D094EA050F08BF90EA020F73
:1026600005D054EA000C04BF1946104630BD91EA6B
:10267000030F1EBF0021002030BD5FEA545C05D16E
:102680004000494128BF41F0004130BD14F58004AD
:102690003CBF01F5801130BD01F0004545F0FE4121
:1026A00041F470014FF0000030BD7FEA645C1ABF56
:1026B000194610467FEA655C1CBF0B46024650EA8D
:1026C000013406BF52EA033591EA030F41F40021B9
:1026D00030BD00BF90F0000F04BF0021704730B53F
:1026E0004FF4806404F132044FF000054FF0000114
:1026F00050E700BF90F0000F04BF0021704730B5D5
:102700004FF4806404F1320410F0004548BF4042A9
:102710004FF000013EE700BF42004FEAE2014FEAFE
:1027200031014FEA02701FBF12F07F4393F07F4FD9
:1027300081F06051704792F0000F14BF93F07F4F0B
:10274000704730B54FF4607401F0004521F000414E
:1027500020E700BF50EA010208BF704730B54FF0D4
:1027600000050AE050EA010208BF704730B511F0D9
:10277000004502D5404261EB41014FF4806404F111
:1027800032045FEA915C3FF4DCAE4FF003025FEA93
:10279000DC0C18BF03325FEADC0C18BF033202EB1B
:1027A000DC02C2F1200300FA03FC20FA02F001FA75
:1027B00003FE40EA0E0021FA02F11444C1E600BF14
:1027C00070B54FF0FF0C4CF4E06C1CEA11541DBFC7
:1027D0001CEA135594EA0C0F95EA0C0F00F0DEF892
:1027E0002C4481EA030621EA4C5123EA4C5350EA77
:1027F000013518BF52EA033541F4801143F48013C8
:1028000038D0A0FB02CE4FF00005E1FB02E506F058
:102810000042E0FB03E54FF00006E1FB03569CF0AD
:10282000000F18BF4EF0010EA4F1FF04B6F5007FB3
:1028300064F5407404D25FEA4E0E6D4146EB060625
:1028400042EAC62141EA55514FEAC52040EA5E50AE
:102850004FEACE2EB4F1FD0C88BFBCF5E06F1ED858
:10286000BEF1004F08BF5FEA500E50F1000041EB8F
:10287000045170BD06F0004646EA010140EA02003C
:1028800081EA0301B4EB5C04C2BFD4EB0C0541EA5E
:10289000045170BD41F480114FF0000E013C00F373
:1028A000AB8014F1360FDEBF002001F0004170BD97
:1028B000C4F10004203C35DA0C341BDC04F11404B0
:1028C000C4F1200500FA05F320FA04F001FA05F23C
:1028D00040EA020001F0004221F0004110EBD37009
:1028E00021FA04F642EB06015EEA430E08BF20EA35
:1028F000D37070BDC4F10C04C4F1200500FA04F3D8
:1029000020FA05F001FA04F240EA020001F0004169
:1029100010EBD37041F100015EEA430E08BF20EADC
:10292000D37070BDC4F1200500FA05F24EEA020E24
:1029300020FA04F301FA05F243EA020321FA04F053
:1029400001F0004121FA04F220EA020000EBD3700A
:102950005EEA430E08BF20EAD37070BD94F0000F0A
:102960000FD101F00046400041EB010111F4801F3E
:1029700008BF013CF7D041EA060195F0000F18BFEF
:10298000704703F00046520043EB030313F4801F2B
:1029900008BF013DF7D043EA0603704794EA0C0FE5
:1029A0000CEA135518BF95EA0C0F0CD050EA4106FB
:1029B00018BF52EA4306D1D181EA030101F0004178
:1029C0004FF0000070BD50EA410606BF10461946A0
:1029D00052EA430619D094EA0C0F02D150EA0136AC
:1029E00013D195EA0C0F05D152EA03361CBF1046ED
:1029F00019460AD181EA030101F0004141F0FE418C
:102A000041F470014FF0000070BD41F0FE4141F40F
:102A1000780170BD70B54FF0FF0C4CF4E06C1CEA0F
:102A200011541DBF1CEA135594EA0C0F95EA0C0FC4
:102A300000F0A7F8A4EB050481EA030E52EA03357F
:102A40004FEA013100F088804FEA03334FF08055A0
:102A500045EA131343EA12634FEA022245EA1115CD
:102A600045EA10654FEA00260EF000419D4208BF7E
:102A7000964244F1FD0404F5407402D25B084FEA2B
:102A80003202B61A65EB03055B084FEA32024FF4D7
:102A900080104FF4002CB6EB020E75EB030E22BF34
:102AA000B61A754640EA0C005B084FEA3202B6EBF4
:102AB000020E75EB030E22BFB61A754640EA5C00A3
:102AC0005B084FEA3202B6EB020E75EB030E22BF33
:102AD000B61A754640EA9C005B084FEA3202B6EB34
:102AE000020E75EB030E22BFB61A754640EADC00F3
:102AF00055EA060E18D04FEA051545EA16754FEA55
:102B000006164FEAC30343EA52734FEAC2025FEA72
:102B10001C1CC0D111F4801F0BD141EA00014FF001
:102B200000004FF0004CB6E711F4801F04BF0143D2
:102B30000020B4F1FD0C88BFBCF5E06F3FF6AFAEEE
:102B4000B5EB030C04BFB6EB020C5FEA500C50F17E
:102B5000000041EB045170BD0EF0004E4EEA113101
:102B600014EB5C04C2BFD4EB0C0541EA045170BD08
:102B700041F480114FF0000E013C90E645EA060E4C
:102B80008DE60CEA135594EA0C0F08BF95EA0C0F7A
:102B90003FF43BAF94EA0C0F0AD150EA01347FF4C2
:102BA00034AF95EA0C0F7FF425AF104619462CE799
:102BB00095EA0C0F06D152EA03353FF4FDAE1046FC
:102BC000194622E750EA410618BF52EA43067FF44D
:102BD000C5AE50EA41047FF40DAF52EA43057FF4DD
:102BE000EBAE12E74FEA410212F5001215D211D5F1
:102BF0006FF47873B3EB625212D94FEAC12343F0FA
:102C0000004343EA505311F0004F23FA02F018BF7B
:102C1000404270474FF00000704750EA013005D144
:102C200011F0004008BF6FF0004070474FF0000007
:102C3000704700BF024B0A460146186800F002B810
:102C40009004002010B502FB01F100F02BF80446BF
:102C500068B150F8042C22F00302043A242A18D850
:102C6000132A06D8034600221A605A609A6020464A
:102C700010BD00231B2A036043600FD9242A836000
:102C8000C36005BF0361436100F1100300F1180345
:102C9000E9E7002100F018FB204610BD00F1080311
:102CA000E1E700BF2DE9F04F01F10B05162D83B0D0
:102CB000064627D935F0070527D4A94225D830463E
:102CC00000F04CFBB5F5FC7F26D2C14F4FEAD50C86
:102CD00007EBCC03DC689C4200F0D2816368E268B9
:102CE00023F0030323445868A16840F00105CA603B
:102CF000304691605D6000F033FB0834204603B03D
:102D0000BDE8F08F1025A942D9D900240C23204614
:102D1000336003B0BDE8F08F5FEA552C00F0898086
:102D2000BCF1040F00F260814FEA951C0CF1380CE5
:102D30004FEA4C01A64F07EB8101CC68A14205D1B7
:102D40000CE0002B79DAE468A14207D0626822F037
:102D50000302531B0F2BF4DD0CF1FF3C0CF1010CB3
:102D60009B4B3C6903F1080E744500F07E8161685D
:102D700021F003014A1B0F2A00F36481002AC3F8E3
:102D800014E0C3F810E069DAB1F5007F80F03A8111
:102D9000C9088A104FF0010808FA02F803EBC101D4
:102DA0005A68886848EA0202A060E1605A608C6054
:102DB000C4604FEAAC030120984090425BD80242C5
:102DC00006D12CF0030C400002420CF1040CFAD0A6
:102DD00007EBCC084446E146E3689C4207D146E154
:102DE000002A80F25781DB689C4200F040815968DC
:102DF00021F003014A1B0F2AF2DD1C4654F808CFCC
:102E0000D96845F0010942F001081D44C3F8049057
:102E10003046CCF80C10C1F808C07D613D61C5F8A2
:102E20000CE0C5F808E0C5F80480AA5000F098FA54
:102E300064E77E214FF03F0C7CE722445068E36852
:102E4000A16840F00105CB6030469960556000F004
:102E500087FA0834204603B0BDE8F08F21444B6860
:102E6000304643F001034B6000F07AFA0834204604
:102E700003B0BDE8F08FBC68636823F00309A9457F
:102E800004D3C5EB09030F2B00F39180514B524A39
:102E90001968136805EB010A013304EB090B00F014
:102EA00061810AF5805A0AF10F0A2AF47F6A2AF032
:102EB0000F0A30465146019200F054FAB0F1FF3F3C
:102EC0008046019A00F00181834500F2FB80DFF823
:102ED00014C1C345DCF800305344CCF8003000F096
:102EE0004A8112683C4901321BBFCBEB080B5B44A3
:102EF000C1F80080CCF8003018F0070300F014810E
:102F0000C3F10802C3F5805390440833C244CAF3A6
:102F10000B0ACAEB030A51463046CDF804C000F054
:102F200021FA431CDDF804C000F03581C8EB000233
:102F3000524442F00102DCF80030BC425344C7F86E
:102F40000880CCF80030C8F80420DFF898A015D02D
:102F5000B9F10F0F40F2EB806168A9F10C0222F089
:102F6000070201F0010142EA010E0520A1180F2A13
:102F7000C4F804E04860886000F21181174ABC6818
:102F800011688B4288BF1360154A11688B4288BF55
:102F90001360626822F003029542C5EB020301D878
:102FA0000F2B04DC304600F0DBF90024A6E645F0E8
:102FB000010243F00103254462603046BD606B604E
:102FC00000F0CEF90834204603B0BDE8F08F00BF12
:102FD00094040020F0080020A0080020EC08002045
:102FE000E8080020F4080020BCF1140F61D9BCF1FE
:102FF000540F00F28F804FEA153C0CF16E0C4FEA33
:103000004C0197E64B0A042B58D9142B00F2AD80E3
:1030100003F15B02500007EB80008368DFF8B881A2
:10302000834200F08A805A6822F00302914202D261
:103030009B689842F7D1D9687A68E160A3608C6098
:10304000DC60B6E645F0010742F001012544676007
:1030500030465D611D61C5F80CE0C5F808E06960A7
:10306000AA50083400F07CF948E65A68A1E609F154
:10307000010919F0030F04F108047FF4ADAE2DE04F
:1030800004F108036469A34208BF0CF1020C3FF489
:1030900067AE23E6194448681C4654F8082FDB68DD
:1030A00040F001054D603046D3609A6000F058F959
:1030B00024E60CF15B0C4FEA4C013BE68A093832FE
:1030C0005000A8E7BC423FF402AFBC68626822F03F
:1030D000030261E7D8F8008098457AD11CF0030F0D
:1030E000A8F108030CF1FF3CF4D17B6823EA00034C
:1030F0007B60400098423FF6BEAE00283FF4BBAE76
:103100000342CC467FF464AE400003420CF1040C51
:10311000FAD05DE6BCF5AA7F19D84FEAD53C0CF190
:10312000770C4FEA4C0105E64FF48053EEE601239D
:10313000C8F80430444600222EE792100120904047
:10314000D8F8042019460243C8F8042075E740F275
:1031500054539C451BD84FEA954C0CF17C0C4FEA1C
:103160004C01E7E50AF1100AA3E6542B1FD80A0B1D
:103170006E3250004FE7CBF30B0100297FF4B1AE64
:103180000AEB0901BA6841F001015160F6E6FC2141
:103190004FF07E0CCEE501224FF0000ACBE604F1A1
:1031A0000801304600F03EF9DAF80030E6E6B3F503
:1031B000AA7F03D8CA0B773250002CE740F2545252
:1031C000934203D88A0C7C32500024E7FC207E22F4
:1031D00021E77B688DE700BF94040020844641EA24
:1031E000000313F0030349D1403A23D30B68036073
:1031F0004B6843608B688360CB68C3600B69036175
:103200004B6943618B698361CB69C3610B6A03625C
:103210004B6A43628B6A8362CB6AC3620B6B036344
:103220004B6B43638B6B8363CB6BC3634030403129
:10323000403ADBD230320BD30B6803604B684360FB
:103240008B688360CB68C36010301031103AF3D2C2
:103250000C3205D351F8043B40F8043B043AF9D250
:10326000043208D0D2071CBF11F8013B00F8013B23
:1032700001D30B8803806046704700BF082A13D330
:103280008B07B1D010F00303AED0C3F10403D21A00
:10329000DB071CBF11F8013B00F8013BA4D331F858
:1032A000023B20F8023B9FE7043AD9D3013A11F8D8
:1032B000013B00F8013BF9D20B7803704B78437067
:1032C0008B78837060467047F0B4840743D0541EF7
:1032D000002A3ED0CDB2034603E0621E002C38D057
:1032E000144603F8015B9A07F7D1032C2AD9CDB213
:1032F00045EA05250F2C45EA054515D9A4F1100727
:103300003F0903F1100606EB07161A4615605560D3
:103310009560D5601032B242F8D104F00F04013745
:10332000032C03EB07130DD91E462246043A032A49
:1033300046F8045BFAD8221F22F003020432134439
:1033400004F003042CB1C9B21C4403F8011BA342CE
:10335000FBD1F0BC704714460346C6E7704700BF78
:10336000704700BF38B5074C002305460846236068
:1033700000F0F8FA431C00D038BD2368002BFBD0C6
:103380002B6038BD840A0020F8B5234D0F46044653
:10339000FFF7E4FFAB685E6826F00306F11B01F659
:1033A000EF7121F47F6121F00F01A1F58057B7F58E
:1033B000805F07DB20460021FFF7D4FFAB68334472
:1033C000984204D02046FFF7CBFF0020F8BD2046EE
:1033D0007942FFF7C7FF01300DD0104BAA6819687A
:1033E000F61B46F001062046C91B56601960FFF720
:1033F000B7FF0120F8BD20460021FFF7B3FFAB68FF
:10340000C21A0F2ADEDD064D04492D6842F0010282
:10341000401B5A600860D5E794040020F40800209F
:10342000A00800202DE9F0410D460646002955D0A0
:10343000FFF794FF55F8041CDFF870C1A5F10804EC
:1034400021F00103E218DCF808005768904227F0E9
:10345000030768D011F00101576032D00021D01964
:103460004068C00706D43B44906800294DD0D2681C
:10347000C260906043F001026260E350E1B9B3F5CD
:10348000007F2DD35A0A042A69D8980938304100A0
:103490000CEB810CDCF808204449624565D051688A
:1034A00021F003018B4202D292689445F7D1D36890
:1034B000E360A2609C60D4603046BDE8F041FFF755
:1034C0004FBF55F8085C0CF10808641BA0682B443A
:1034D000404542D0E568C560A860C0E7BDE8F0811E
:1034E000DB089A1001209040DCF804100CEBC303B9
:1034F0009A680143A260E360CCF8041030469C60F7
:10350000D460BDE8F041FFF72BBF294DA842AED1F2
:1035100043F00102CCF81440CCF81040E060A06009
:103520006260E350C8E71F44CB0707D455F8081C76
:10353000641AE368A2680F44D3609A601D4B47F099
:1035400001021B6862609F42CCF80840B4D31A4B5A
:1035500030461968FFF718FFAEE701217FE7142A0C
:103560000BD802F15B00410092E7801001258540F5
:1035700048681346284348609AE7542A03D8180B32
:103580006E30410084E7B2F5AA7F03D8D80B7730BC
:1035900041007DE740F254518A4203D8980C7C30B8
:1035A000410075E7FC217E2072E700BF94040020F3
:1035B0009C0400209C080020F008002038B50C4630
:1035C0000968054609B1FFF7F9FF28462146BDE81D
:1035D0003840FFF727BF00BF224B70B51B68054678
:1035E000984232D0C26CAAB100231E4652F8231072
:1035F00009B907E021460C682846FFF713FF002CA5
:10360000F8D1EA6C0136202E3346EFD11146284618
:10361000FFF708FF296C11B12846FFF703FFD5F823
:10362000481159B105F5A676B14201D106E021460F
:103630000C682846FFF7F6FEA642F8D1696D11B175
:103640002846FFF7EFFEAB6B03B970BDEB6B284666
:103650009847D5F8E0120029F7D02846BDE8704019
:10366000FFF7ACBF900400200B4B10B50446186860
:1036700008B1836B4BB1132C0BD8084850F8343089
:10368000013306D000EBC40010BD00F02FFB132C5B
:10369000F3D9002010BD00BF900400202C090020A9
:1036A00070B500F0F1FA132504460026284631468D
:1036B000ABBE05464FF0FF30256070BDF0B5224C23
:1036C00085B00322002301940125039201AE0293E9
:1036D00028463146ABBE06461C4D04230322019406
:1036E0002E6003920DEB0307029301263046394604
:1036F000ABBE0746164E032208230194376003929F
:1037000001AF0293012420463946ABBE0446114B5B
:10371000621C1C6013D036680F4800234FF0FF3145
:10372000C1500833A02B0C4AFAD12968002311603C
:10373000966014615360D360536105B0F0BD326888
:1037400014461A601646E7E764440000200900208A
:103750001C090020280900202C09002030B585B064
:10376000019002910392062401AD20462946ABBE8A
:103770000446631C02D0204605B030BDFFF790FF21
:1037800005B030BD70B50E461546FFF76DFF044617
:1037900058B1314600682A46FFF7E0FF431C03D0CA
:1037A0006368281A0344636070BD00F06DFA092352
:1037B00003604FF0FF3070BDF0B583B00C46164685
:1037C000FFF752FF0546002839D0022E26D8012ED9
:1037D00021D0022E11D06E462B680A278DE81800E2
:1037E00038463146ABBE0646731C1ED03046002814
:1037F00022DB6C60204603B0F0BD036802AE46F8E1
:10380000083D0C2738463146ABBE0746791C0FD021
:1038100038460444E0E74368E418DCD500F034FAA5
:10382000162303604FF0FF30E5E7FFF739FFDEE7CF
:10383000FFF736FF421CECD14FF0FF30DBE700F022
:1038400023FA092303604FF0FF30D4E7FFF7B4BF3A
:1038500030B585B0019002910392052401AD204658
:103860002946ABBE0446631C02D0204605B030BDDD
:10387000FFF716FF05B030BD70B50E461546FFF7D1
:10388000F3FE0446E0B1314600682A46FFF7E0FF48
:10389000031E12DB6268E81A02449D42626000D097
:1038A00070BD00F0F1F91325044600262846314684
:1038B000ABBE05460020256070BD4FF0FF30EFE73E
:1038C00000F0E2F9092303604FF0FF3070BD00BF44
:1038D00030B583B002AC44F8040D022528462146D9
:1038E000ABBE0446631C02D0204603B030BDFFF7D8
:1038F000D7FE03B030BD00BF70B582B00446FFF7FD
:10390000B3FE054618B3013C012C11D92B6802AC5B
:1039100044F8043D022630462146ABBE0446631CF3
:1039200010D0204610B94FF0FF332B6002B070BDAD
:103930000A4B9A681B699A42E8D14FF0FF33036043
:103940000020F3E7FFF7ACFE0028EFD1EBE700F033
:103950009BF9092303604FF0FF30E7E72C090020B3
:103960000120704708B50A4B01461A686AB1104633
:10397000421869468A4201D81A6008BD00F084F9ED
:103980000C2303604FF0FF3008BD02481860EFE7DA
:1039900024090020880E002070B50C46FFF764FE55
:1039A0000546B0B163684FF4806243F4005363602E
:1039B000E2620C2630462946ABBE05466A1C03D09F
:1039C00028462061002070BDFFF76AFE431CF8D135
:1039D00070BD00F059F9092303604FF0FF3070BD4E
:1039E00038B50C460546002120463C22FFF76CFC0A
:1039F00028462146BDE83840FFF7CEBF38B50D4612
:103A0000044600213C222846FFF75EFC20460021A8
:103A100000F012F8431C04460BD06B68294643F4AF
:103A200001436B60FFF7B8FF05462046FFF764FFD0
:103A30002C46204638BD00BF2DE9F047324E90B0ED
:103A400082468846002456F83450E7006B1C0CD0A0
:103A50000134142CF7D100F017F9182303604FF04C
:103A6000FF35284610B0BDE8F08708F42063B3F5B1
:103A7000206F0DF104093BD040F20163C8F300450B
:103A800018F0020F08EA030318BF45F002050BB156
:103A900045F0040518F0080F18BF25F0040550463E
:103AA00018BF45F00805CDF804A000F08BFA029588
:103AB0000390012528464946ABBE0546002D09DB8B
:103AC00046F8345025463744002328467B6010B022
:103AD000BDE8F08700F0D8F81326044600273046EA
:103AE0003946ABBE06462846266010B0BDE8F087D2
:103AF00049465046FFF782FF0130BDD000F0C4F8C0
:103B000011230360ADE700BF2C0900200EB400B5FF
:103B10000199FFF791FF5DF804EB03B0704700BF18
:103B200008B500F0B1F8582303604FF0FF3008BD2E
:103B300070B582B0009000F045FA0E2401906D46F9
:103B400020462946ABBE0446013402D0002002B014
:103B500070BD00F099F8132504460026284631462A
:103B6000ABBE05464FF0FF30256002B070BD00BF10
:103B7000F0B505460C4640B11126002730463946BF
:103B8000ABBE064600232E606B6014B10023236099
:103B900063600020F0BD00BF30B510240025204632
:103BA0002946ABBE0446204630BD00BF70B5044672
:103BB0001025002628463146ABBE054624B1002319
:103BC00025606360A360E360284670BD70B5FFF7B1
:103BD0004BFD044698B1092528462146ABBE044654
:103BE000012C0AD000F050F8132405460026204688
:103BF0003146ABBE064600242E60204670BD00F064
:103C000043F809230360F8E730B583B0D8B10090DA
:103C100000F0D8F9122401906D4620462946ABBE2B
:103C20000446631C0BD0FF2C204606D82CB1400064
:103C3000C0F3072301D0A342F9D103B030BDFFF791
:103C40002FFD0446EFE7012003B030BD30B585B04D
:103C50000C46009000F0B6F901902046029400F066
:103C6000B1F90F2403906D4620462946ABBE0446A9
:103C7000631C06D02046003018BF0120404205B02A
:103C800030BDFFF70DFDF6E7014B1868704700BF28
:103C9000900400200020704700207047014900F088
:103CA00001B900BFF140000070B54B1E682505FB4F
:103CB00003F50E4605F17401FEF7F4FF044640B12A
:103CC00000210C30666005F168022160A060FFF7FA
:103CD000FBFA204670BD00BF024B0349186800F094
:103CE000E1B800BF60440000F14000002DE9F04F52
:103CF000846B83B00746002C65D17D68334804236C
:103D0000032107F53B72F863C7F8E412C7F8E8220D
:103D1000C7F8E04205F15C00AB812C606C60AC60E0
:103D20006C66EC812C616C61AC6121460822FFF766
:103D3000CBFADFF89CB0BE68DFF898A0DFF8989067
:103D4000DFF8988001230922ED61C5F820B0C5F89D
:103D500024A0C5F82890C5F82C802146F381B281B3
:103D600034607460B460746634617461B461082254
:103D700006F15C000193FFF7A7FAFD68122002220A
:103D8000F661C6F820B0C6F824A0C6F82890C6F898
:103D90002C802146A881EA812C606C60AC606C6646
:103DA0002C616C61AC6105F15C000822FFF78CFAB4
:103DB000019BED61C5F820B0C5F824A0C5F8289096
:103DC000C5F82C80BB6303B0BDE8F08F9D3C0000BC
:103DD000393F0000613F0000993F0000BD3F0000F7
:103DE000214B70B51D680646AB6B002B2CD005F53A
:103DF00038756B68AC68013B05D521E0013B5A1C66
:103E000004F168041CD0B4F90C20002AF6D1002576
:103E100001234FF6FF72E281A38165662560A560EC
:103E2000656025616561A561294604F15C00082291
:103E3000FFF74AFA256365636564A564204670BD93
:103E40002B682BB11D46D4E72846FFF74FFFCEE77E
:103E500030460421FFF728FF286008B10546C8E76F
:103E60000C23336070BD00BF60440000704700BF8A
:103E7000704700BF704700BF704700BF024B034947
:103E8000186800F00FB800BF90040020953C0000B7
:103E9000024B0349186800F005B800BF90040020E9
:103EA000993C00002DE9F04110F53877884619D08B
:103EB00000267D68BC68013D0ED4A389013D012B1D
:103EC00006D9B4F90E302046013301D0C04706436D
:103ED0006B1C04F16804F0D13F68002FE9D1304633
:103EE000BDE8F0813E463046BDE8F0812DE9F8435B
:103EF00010F53876804689461AD000277568B46870
:103F0000013D0FD4A389013D012B07D9B4F90E302F
:103F100021460133404601D0C84707436B1C04F1DA
:103F20006804EFD13668002EE8D13846BDE8F88342
:103F300037463846BDE8F88310B50C46B1F90E1087
:103F400000F0BEF9002803DB236D0344236510BD98
:103F5000A38923F48053A38110BD00BF00207047C4
:103F60002DE9F0410C4689891D46CB0516460746CA
:103F700006D5B4F90E100022022300F08DF9A189B4
:103F800021F48051A1813846B4F90E1032462B46F7
:103F9000BDE8F04100F046B810B50C46B1F90E107E
:103FA00000F07AF9421CA38904D043F480532065C1
:103FB000A38110BD23F48053A38110BDB1F90E106D
:103FC00000F044B820F0030110F00300C0F100003D
:103FD00051F8043B00F1040C4FEACC0C6FF00002E6
:103FE0001CBF22FA0CF213434FF0010C4CEA0C2CCC
:103FF0004CEA0C4CA3EB0C0222EA030212EACC12AC
:1040000004BF51F8043B0430F4D013F0FF0F1FBF7E
:10401000013013F47F4F013013F47F0F18BF0130CC
:10402000704700BF70B5084C06460025084611468B
:104030001A462560FFF720FC431C00D070BD2368A2
:10404000002BFBD0336070BD840A002038B5074CCC
:104050000023054608462360FFF74EFC431C00D0B2
:1040600038BD2368002BFBD02B6038BD840A0020AC
:1040700070B50C46054631B110B1836B002B2FD0C3
:10408000B4F90C300BB9002070BD2846214600F071
:10409000DBF8E36A064633B12846E1699847002811
:1040A000B8BF4FF0FF36A3891B061CD4216B41B16A
:1040B00004F14003994202D02846FFF7B3F90023E8
:1040C0002363616C21B12846FFF7ACF900236364D8
:1040D000FFF7CCFE0023A381FFF7CAFE304670BD78
:1040E000FFF704FECCE728462169FFF79BF9DDE7DF
:1040F000024B01461868FFF7BBBF00BF90040020C9
:104100008B892DE9F0419AB20D46110780463CD4C7
:104110006A6843F40063002AAB8159DDAC6A002C65
:104120004BD09BB203F48052002192B2D8F80060C9
:10413000C8F80010002A4FD02A6D5F0705D56968BE
:104140002B6B521A0BB1EB6BD21A4046E969002374
:10415000A047441C4AD0AB892A6923F400639BB270
:1041600000212A60DA04AB8169604CD4296BC8F85D
:10417000006011B305F14003994202D04046FFF7B9
:1041800051F900202863BDE8F0812E69AEB1910796
:104190002C680CBF6B6900232E60A41BAB600AE087
:1041A000324623466F6A4046E969B8470028C0EBAB
:1041B0000404064404DD002CF2DC0020BDE8F0819C
:1041C000AB894FF0FF3043F04003AB81BDE8F08195
:1041D000EA6B002AA2DCF0E701234046E969A04728
:1041E000431C02461ED0AB89AC6AA6E7D8F8003063
:1041F0005BB9AA89296922F4006292B26B60D30488
:10420000AA812960B2D52865B0E71D2B01D0162BF5
:1042100013D1A9892B6921F400610022A9812B60A7
:104220006A60A3E7D8F80030002BDCD01D2B01D04A
:10423000162BC5D1C8F80060BFE7AB8943F0400337
:10424000AB81BDE8F08100BF10B5044682B008B173
:10425000836B53B1B1F90C0008B902B010BD204610
:1042600002B0BDE81040FFF74BBF0191FFF73EFDE4
:104270000199EFE720B1054B01461868FFF7E4BF4D
:10428000034B04491868FFF731BE00BF90040020BB
:10429000604400004942000070B5084C0646002505
:1042A000084611461A462560FFF7D0FA431C00D095
:1042B00070BD2368002BFBD0336070BD840A0020E2
:1042C00070B5084C06460025084611461A4625607A
:1042D000FFF758FA431C00D070BD2368002BFBD0B9
:1042E000336070BD840A00205374617274696E6714
:1042F000205350492072780D0A00000053746172F7
:1043000074696E67205350492074780D0A000000CC
:104310005374617274696E6720436F6E7665727450
:104320006572205461736B0D0A00000046543A20F8
:1043300025640D0A0000000046503A2025640D0A4D
:104340000000000050543A2025640D0A00000000CF
:1043500050503A2025640D0A000000005374617229
:1043600074696E6720506F736974696F6E20546949
:104370006C74205461736B0D0A00000053746172F9
:1043800074696E672075700D0A00000053746172C5
:1043900074696E6720436F6D6D756E6963617469D2
:1043A0006F6E205461736B0D0A00000030313233A0
:1043B0003435363738396162636465660000000061
:1043C000AC4300005374617274696E67207561724A
:1043D000742074780D0A0000200000004552524FEE
:1043E00052000000556E61626C6520746F20616C34
:1043F0006C6F63617465206D656D6F7279200D0A55
:10440000000000004D656D6F727920616C6C6F6308
:10441000617465640D0A000073697A652025642063
:104420000D0A00005374617274696E6720537065E1
:1044300065642050616E205461736B0D0A000000AA
:104440005374617274696E6720537065656420549B
:10445000696C74205461736B0D0A00004300000006
:08446000680000203A747400AA
:1044680001001400190B0000C50D0000B50D000077
:10447800C90C00000103000019030000F503000047
:1044880025090000E9200000E1170000551E000082
:10449800350B0000850E0000450E0000E10C000001
:1044A80089030000B90300000D0400004109000061
:1044B80001210000F1170000711E00001400010125
:1044C800320001001E00010000000000540300201B
:1044D800BC030020240400200000000000000000AD
:1044E80000000000000000000000000000000000C4
:1044F8000000000000000000000000005C44000014
:1045080000000000000000000000000000000000A3
:104518000000000000000000000000000000000093
:104528000000000000000000000000000000000083
:104538000000000000000000000000000000000073
:104548000000000000000000000000000000000063
:104558000000000000000000000000000000000053
:104568000000000000000000000000000000000043
:1045780001000000000000000E33CDAB34126DE6E0
:10458800ECDE05000B000000000000000000000049
:104598000000000000000000000000000000000013
:1045A8000000000000000000000000000000000003
:1045B80000000000000000000000000000000000F3
:1045C80000000000000000000000000000000000E3
:1048F8006800002000000000000000009404002070
:10490800940400209C0400209C040020A40400209F
:10491800A4040020AC040020AC040020B40400204F
:10492800B4040020BC040020BC040020C4040020FF
:10493800C4040020CC040020CC040020D4040020AF
:10494800D4040020DC040020DC040020E40400205F
:10495800E4040020EC040020EC040020F40400200F
:10496800F4040020FC040020FC04002004050020BE
:10497800040500200C0500200C050020140500206B
:10498800140500201C0500201C050020240500201B
:10499800240500202C0500202C05002034050020CB
:1049A800340500203C0500203C050020440500207B
:1049B800440500204C0500204C050020540500202B
:1049C800540500205C0500205C05002064050020DB
:1049D800640500206C0500206C050020740500208B
:1049E800740500207C0500207C050020840500203B
:1049F800840500208C0500208C05002094050020EB
:104A0800940500209C0500209C050020A40500209A
:104A1800A4050020AC050020AC050020B40500204A
:104A2800B4050020BC050020BC050020C4050020FA
:104A3800C4050020CC050020CC050020D4050020AA
:104A4800D4050020DC050020DC050020E40500205A
:104A5800E4050020EC050020EC050020F40500200A
:104A6800F4050020FC050020FC05002004060020B9
:104A7800040600200C0600200C0600201406002066
:104A8800140600201C0600201C0600202406002016
:104A9800240600202C0600202C06002034060020C6
:104AA800340600203C0600203C0600204406002076
:104AB800440600204C0600204C0600205406002026
:104AC800540600205C0600205C06002064060020D6
:104AD800640600206C0600206C0600207406002086
:104AE800740600207C0600207C0600208406002036
:104AF800840600208C0600208C06002094060020E6
:104B0800940600209C0600209C060020A406002095
:104B1800A4060020AC060020AC060020B406002045
:104B2800B4060020BC060020BC060020C4060020F5
:104B3800C4060020CC060020CC060020D4060020A5
:104B4800D4060020DC060020DC060020E406002055
:104B5800E4060020EC060020EC060020F406002005
:104B6800F4060020FC060020FC06002004070020B4
:104B7800040700200C0700200C0700201407002061
:104B8800140700201C0700201C0700202407002011
:104B9800240700202C0700202C07002034070020C1
:104BA800340700203C0700203C0700204407002071
:104BB800440700204C0700204C0700205407002021
:104BC800540700205C0700205C07002064070020D1
:104BD800640700206C0700206C0700207407002081
:104BE800740700207C0700207C0700208407002031
:104BF800840700208C0700208C07002094070020E1
:104C0800940700209C0700209C070020A407002090
:104C1800A4070020AC070020AC070020B407002040
:104C2800B4070020BC070020BC070020C4070020F0
:104C3800C4070020CC070020CC070020D4070020A0
:104C4800D4070020DC070020DC070020E407002050
:104C5800E4070020EC070020EC070020F407002000
:104C6800F4070020FC070020FC07002004080020AF
:104C7800040800200C0800200C080020140800205C
:104C8800140800201C0800201C080020240800200C
:104C9800240800202C0800202C08002034080020BC
:104CA800340800203C0800203C080020440800206C
:104CB800440800204C0800204C080020540800201C
:104CC800540800205C0800205C08002064080020CC
:104CD800640800206C0800206C080020740800207C
:104CE800740800207C0800207C080020840800202C
:104CF800840800208C0800208C0800200000020096
:044D0800FFFFFFFFAB
:00000001FF
