:1000000020050020A1140000FD140000FD140000D4
:10001000FD140000FD140000FD14000000000000AD
:10002000000000000000000000000000FD140000BF
:10003000FD14000000000000FD140000F11E00008F
:10004000FD140000FD140000FD140000FD1400006C
:10005000FD140000FD140000FD140000FD1400005C
:10006000FD140000FD140000FD140000FD1400004C
:10007000FD140000FD140000FD140000FD1400003C
:10008000FD140000FD140000FD140000FD1400002C
:10009000FD140000FD140000FD140000FD1400001C
:1000A000FD140000FD140000FD140000FD1400000C
:1000B000FD140000FD140000FD140000FD140000FC
:1000C000FD140000FD140000FD140000FD140000EC
:1000D000FD140000FD140000FD140000FD140000DC
:1000E000FD140000FD140000FD140000FD140000CC
:1000F000FD140000FD140000FD140000FD140000BC
:1001000080B400AF044B044A126842F002021A6045
:10011000BD465DF8047B70470480004080B400AFAA
:10012000044B044A126822F002021A60BD465DF8D0
:10013000047B70470480004080B582B000AF644B00
:10014000634A126842F001021A60614B1B68FB713E
:10015000604B604A126842F004021A605D4B5D4ACF
:10016000126842F008021A605A4B5A4A126842F06A
:1001700010021A60574B574A126842F020021A6068
:10018000554B554A126842F004021A60524B524ACB
:10019000126842F008021A604F4B4F4A126842F050
:1001A00010021A604C4B4C4A126842F020021A604E
:1001B0004A4B4A4A126822F004021A60474B474AE7
:1001C000126822F008021A60444B444A126822F076
:1001D00010021A60414B414A126822F020021A6054
:1001E0003F4B3F4A126822F004021A603C4B3C4AE3
:1001F000126822F008021A60394B394A126822F05C
:1002000010021A60364B364A126822F020021A6039
:10021000344B344A126822F004021A60314B314ADE
:10022000126822F008021A602E4B2E4A126822F041
:1002300010021A602B4B2B4A126822F020021A601F
:10024000294B294A126842F004021A60264B264ABA
:10025000126842F008021A60234B234A126842F0E7
:1002600010021A60204B204A126842F020021A60E5
:100270001E4B1E4A126842F004021A601B4B1B4AB6
:10028000126842F008021A60184B184A126842F0CD
:1002900010021A60154B154A126842F020021A60CB
:1002A000134B134A126842F010021A60FFF736FF30
:1002B000104B00221A60104B04221A600F4B41F2BF
:1002C0000B221A60FFF71CFF0837BD4680BD00BF38
:1002D00008E10F4020440040004500400C4500402C
:1002E00010450040144500401C45004000440040BB
:1002F00004E10F4004800040108000400080004076
:1003000080B500AF034800F083FD0420002100F019
:10031000EBFF80BDBC27000080B500AF034800F0B4
:1003200077FD0520002100F0DFFF80BDD027000011
:1003300080B485B000AF0346FB710023FB73FB79EB
:10034000002B06D0094B1B68DBB203F00203FB73E2
:1003500005E0064B1B68DBB203F00403FB73FB7B79
:1003600018461437BD465DF8047B70470C8000408A
:1003700080B400AF034B1B689BB21846BD465DF8C6
:10038000047B70470880004080B582B000AF002039
:10039000FFF7CEFF0346002B12D00B4B1B781846FD
:1003A00001F018FA0346002B0AD0FFF7E1FF0346DD
:1003B000FB80054B1A78BB1D1046194601F0AAF9BF
:1003C0000837BD4680BD00BFEA00002080B582B07E
:1003D00000AF00BF0120FFF7ABFF0346002BF9D0B1
:1003E000074B1A78BB1D1046194601F00DFA03465B
:1003F000002B02D0034BFA881A600837BD4680BD37
:10040000EB0000200880004080B500AF06200021EE
:1004100000F06AFF80BD00BF80B582B000AF00234E
:10042000FB710023BB809B4B1A78FB1D10461946BD
:1004300001F0EAF90346002B00F0BC81964B1B78D3
:10044000012B25D0022B44D0002B00D0B2E1FB7948
:10045000662B0FD0702B00D019E0904B00221A7041
:100460008F4B01221A708C4B01221A708D4800F0BC
:10047000CFFC0CE0894B01221A70894B01221A70C3
:10048000854B01221A70884800F0C2FC00BF91E140
:10049000FB79702B02D0742B0DD019E0834B002216
:1004A0001A70834B00221A607B4B02221A7081481B
:1004B00000F0AEFC0CE07D4B01221A707C4B002258
:1004C0001A60754B02221A707B4800F0A1FC00BF35
:1004D00070E1734B1B78042B00F26A8101A252F881
:1004E00023F000BFF90400003B0500007D0500007B
:1004F000BF05000001060000FB79392B1CD8FB79F1
:100500002F2B19D96A4B1A6813469B0013445B00C2
:100510001A46674B1A60FB79A3F13002644B1B68E3
:100520001A44634B1A605E4B01221A70FB796348D0
:10053000194600F06DFC3CE13BE1FB79392B1CD8FE
:10054000FB792F2B19D95A4B1A6813469B00134479
:100550005B001A46564B1A60FB79A3F13002544BEC
:100560001B681A44524B1A604D4B02221A70FB79D9
:100570005248194600F04CFC1BE11AE1FB79392B7B
:100580001CD8FB792F2B19D9494B1A6813469B00AD
:1005900013445B001A46464B1A60FB79A3F1300204
:1005A000434B1B681A44424B1A603D4B03221A709E
:1005B000FB794248194600F02BFCFAE0F9E0FB79A0
:1005C000392B1CD8FB792F2B19D9394B1A681346B4
:1005D0009B0013445B001A46354B1A60FB79A3F16C
:1005E0003002334B1B681A44314B1A602C4B0422E7
:1005F0001A70FB793148194600F00AFCD9E0D8E0BE
:10060000FB79392B00F2D380FB792F2B40F2CF807E
:10061000274B1A6813469B0013445B001A46244B71
:100620001A60FB79A3F13002214B1B681A44204B5E
:100630001A60FB792248194600F0EAFB174B1B7839
:10064000012B45D11A4B1B681E4A83FB02015A1825
:100650009112DA178A1A4FF4876101FB02F29A1A93
:10066000134B1A60114B1B78012B06D1164B1B78CC
:1006700018460F4901F092F895E00C4B1B78002BBF
:1006800040F09180114B1B781846094901F086F81B
:1006900089E000BFE9000020680000206A00002017
:1006A00000000020E4270000EC2700006900002083
:1006B0006C000020F4270000FC2700000428000044
:1006C0000828000049D6B9F2F0000020ED00002013
:1006D0003A4B1B78002B66D1394B1B78012B2FD15D
:1006E000384B1A783B1D1046194601F037F803467F
:1006F000BB80354B1B68A3F50772334B1A60324B36
:1007000000221A60BB881A462F4B1B681A442E4BD6
:100710001A602D4B1B682D4A83FB02015A18911257
:10072000DA178A1A4FF4876101FB02F29A1A264BF4
:100730001A60274B1B781846234901F02FF832E046
:100740001F4B1B78002B2ED1224B1A783B1D1046D5
:10075000194601F003F80346BB801B4B1B68A3F549
:100760007072194B1A60184B00221A60BB881A4627
:10077000154B1B681A44144B1A60134B1B68134A21
:1007800083FB02015A189112DA178A1A4FF4876113
:1007900001FB02F29A1A0C4B1A600F4B1B78184699
:1007A000094900F0FBFF0D4B00221A7001E000E048
:1007B00000BF00BF0837BD4680BD00BF6A000020F3
:1007C00069000020EC0000206C00002049D6B9F23E
:1007D000F0000020EE000020ED0000206800002066
:1007E00080B500AF0720002100F07EFD80BD00BF76
:1007F000B0B584B000AF00237B8100233B81002390
:10080000FB805E4B1B88013B9AB25C4B1A805B4BB2
:100810001B88002B40F0AE80584B14221A80584B96
:100820001A7807F10A031046194600F097FF554B56
:100830001A7807F108031046194600F08FFF0346A7
:10084000002B01D100233B813A897B89D31A9BB2CB
:10085000FB81B7F90E30B3F5077F05DDFB89A3F502
:1008600087639BB2FB8109E0B7F90E3013F5077F70
:1008700004DAFB8903F587639BB2FB81B7F90E208D
:10088000414B1B881BB2D31A9BB21A4692001344E9
:100890001A4691001A460B4613445B009BB2BB817B
:1008A000B7F90E20394B1B681A44384B1A60374B86
:1008B0001B68FA2B03DD354BFA221A6008E0334B34
:1008C0001B6813F1FA0F03DA304B6FF0F9021A606C
:1008D000B7F90E30184601F0D1FC02460B4610461F
:1008E00019464FF000022A4B01F02EFD02460B463E
:1008F00014461D46254B1B68264A82FB0312121123
:10090000DB17D31A184601F0B9FC02460B46204605
:10091000294601F067FB02460B46104619464FF088
:1009200000024FF0000301F05DFB02460B4610464B
:10093000194601F01BFF03469BB2FB80FB881AB2ED
:1009400040F2DC539A4203DD40F2DC53FB8007E0C7
:10095000FB881AB2104B9A4202DA4FF62423FB802E
:100960000E4B1A78BB1D1046194600F017FF064BB8
:10097000FA891A801037BD46B0BD00BF02000020C2
:10098000EC000020F0000020700000207400002027
:100990000000E03F1F85EB5124FAFFFFF20000202A
:1009A00080B500AF00204FF4FA7100F09DFC0248C2
:1009B000002100F02DFA80BD1028000080B500AFA6
:1009C000054B054A126882F001021A604FF4FA7072
:1009D00000F072FC80BD00BFFC53024080B500AF48
:1009E00000F0EEFF00F072FF00F070F9FFF7A4FBDB
:1009F00000F008FC00F076FE03461A46244B1A70FD
:100A000000F070FE03461A46224B1A7000F06AFE90
:100A100003461A46204B1A7000F064FE03461A463D
:100A20001E4B1A7000F05EFE03461A461C4B1A70ED
:100A300000F058FE03461A461A4B1A7000F052FE98
:100A400003461A46184B1A7000F04CFE03461A462D
:100A5000164B1A7000F046FE03461A46144B1A70E5
:100A600000F040FE03461A46124B1A7000F03AFEA0
:100A700003461A46104B1A7000F034FE03461A461D
:100A80000E4B1A7000F094FF00F092FCFEE700BFDE
:100A9000E8000020E9000020EB000020EA00002030
:100AA000EE000020EC000020F1000020EF0000200C
:100AB000F2000020F3000020F0000020ED000020F4
:100AC00080B500AF0320002100F00EFC80BD00BF08
:100AD00080B582B000AF0023BB8000237B80002361
:100AE0003B802F4B1A78BB1C1046194600F08CFE39
:100AF0000346002B0AD07B889BB2C3F309039BB249
:100B000043F400639BB29BB2BB8016E0254B1A787E
:100B10003B461046194600F077FE0346002B0AD0EC
:100B20003B889BB2C3F309039BB243F440639BB27F
:100B30009BB2BB8001E00023BB801B4B1A783B1D9E
:100B40001046194600F0E6FD184B1A78BB1D1046FA
:100B5000194600F059FE0346002B1DD0FB8803F414
:100B60000063002B0CD0FB88C3F30A039BB2FB800D
:100B70000F4B1A78BB1D1046194600F00FFE0BE014
:100B8000FB88C3F30A039BB2FB800A4B1A78BB1D98
:100B90001046194600F002FE0837BD4680BD00BF72
:100BA000F1000020EF000020EB000020EA00002010
:100BB000EE000020EC00002080B500AF02200021F4
:100BC00000F092FB80BD00BF80B500AF034800F08D
:100BD0001FF90120002100F087FB80BD38280000AC
:100BE00080B485B000AF0346FB710023FB73FB7933
:100BF000002B0AD00D4B1B6803F02003002B14BF01
:100C000000230123DBB2FB7309E0084B1B6803F0F0
:100C10001003002B14BF00230123DBB2FB73FB7B0B
:100C200018461437BD465DF8047B704718C0004075
:100C300080B400AF034B1B68DBB21846BD465DF8BD
:100C4000047B704700C0004080B582B000AF002335
:100C5000FB800020FFF7C4FF0346002B12D00B4B94
:100C60001B78184600F0B6FD0346002B0AD0FFF7AC
:100C7000DFFF0346FB80054B1A78BB1D1046194663
:100C800000F048FD0837BD4680BD00BFE9000020E8
:100C900080B582B000AF00BF0120FFF7A1FF03467F
:100CA000002BF9D0074B1A78BB1D1046194600F0EF
:100CB000ABFD0346002B02D0034BFA881A600837BD
:100CC000BD4680BDE800002000C0004080B400AFF9
:100CD000254B254A126842F001021A60234B234A31
:100CE000126842F001021A60214B214A126842F058
:100CF00001021A601E4B1E4A126842F002021A607C
:100D00001C4B1C4A126842F001021A60194B194A26
:100D1000126842F002021A60174B174A126822F05A
:100D200001021A60154B154A126842F4FE621A60FD
:100D3000134B1B221A60134B08221A60124B124AE3
:100D4000126842F070021A600B4B0B4A126842F4B0
:100D500080721A60084B084A126842F001021A6059
:100D6000BD465DF8047B704704E10F4008E10F4089
:100D7000204400401C45004030C0004044C00040BA
:100D800024C0004028C000402CC0004080B483B084
:100D900000AF78600B46FB7000BF074B1B6803F089
:100DA0002003002BF9D1054BFA781A600C37BD46A9
:100DB0005DF8047B704700BF18C0004000C00040D1
:100DC00080B584B000AF786039600023BB60002339
:100DD000FB6014E07A68FB6813441B780A2B03D18C
:100DE00000200D21FFF7D2FF7A68FB6813441B78BF
:100DF000B8681946FFF7CAFFFB680133FB60FA6861
:100E00003B689A42E6D3FB6818461037BD4680BD62
:100E10000FB490B58FB000AF07F14C037B60E0E1F9
:100E200000237B6302E07B6B01337B63BA6C7B6BDB
:100E300013441B78252B05D0BA6C7B6B13441B78AD
:100E4000002BF0D1B86C796BFFF7BAFFBA6C7B6BF3
:100E50001344BB64BB6C1B78252B40F0C281BB6C78
:100E60000133BB640023FB62202387F82330BB6C73
:100E70005A1CBA641B78253B532B00F2AD8101A1AB
:100E800051F823F0CB110000D9110000D911000056
:100E9000D9110000D9110000D9110000D9110000AA
:100EA000D9110000D9110000D9110000D91100009A
:100EB000D50F0000D50F0000D50F0000D50F0000A2
:100EC000D50F0000D50F0000D50F0000D50F000092
:100ED000D50F0000D50F0000D9110000D911000076
:100EE000D9110000D9110000D9110000D91100005A
:100EF000D9110000D9110000D9110000D91100004A
:100F0000D9110000D9110000D9110000D911000039
:100F1000D9110000D9110000D9110000D911000029
:100F2000D9110000D9110000D9110000D911000019
:100F3000D9110000D9110000D9110000D911000009
:100F4000D9110000D9110000D9110000D9110000F9
:100F5000B3100000D9110000D9110000D911000010
:100F6000D9110000D9110000D9110000D9110000D9
:100F7000D9110000D9110000D9110000091000009A
:100F800021100000D9110000D9110000D911000072
:100F9000D9110000D9110000D9110000D9110000A9
:100FA000D9110000D9110000D9110000D911000099
:100FB000B3100000D9110000D91100004B1000003F
:100FC000D91100009B100000D9110000D9110000B8
:100FD000B3100000BB6C013B1B78302B05D1FB6AC2
:100FE000002B02D1302387F82330FA6A13469B0086
:100FF00013445B00FB62BB6C013B1B781A46FB6A27
:101000001344303BFB6232E77B681A1D7A601B6831
:10101000BB6107F1180318460121FFF7D1FEE0E09C
:101020007B681A1D7A601B68BB6100233B63BB6948
:10103000002B05DABB695B42BB6101237B6201E0E7
:1010400000237B620A23BB623EE07B681A1D7A6044
:101050001B68FB6100237B6302E07B6B01337B63D6
:10106000FA697B6B13441B78002BF6D1F869796B16
:10107000FFF7A6FEFA6A7B6B9A420DD9FA6A7B6B80
:10108000D31AFB6203E05C480121FFF799FEFB6A7B
:101090005A1EFA62002BF6D1A3E07B681A1D7A6013
:1010A0001B68BB6100233B630A23BB6200237B6296
:1010B0000AE07B681A1D7A601B68BB6100233B63F2
:1010C0001023BB6200237B6201237B6307E07B6B01
:1010D000BA6A02FB03F37B63FB6A013BFB627B6B37
:1010E000BA6A02FB03F2BB699A4209D87B6BBA6AFF
:1010F00002FB03F2BB6AB2FBF3F27B6B9A42E6D0CF
:101100007B6A002B02D0FB6A013BFB627B6A002BEF
:101110000ED097F82330302B0AD13B6B5A1C3A6320
:1011200007F1380213442D2203F8302C00237B6290
:10113000FB6A012B16D9FB6A0F2B13D8FB6A013B04
:10114000FB620CE03B6B5A1C3A6307F138010B441D
:1011500097F8232003F8302CFB6A013BFB62FB6A03
:10116000002BEFD17B6A002B09D03B6B5A1C3A63F2
:1011700007F1380213442D2203F8302C1BE01AE04B
:101180003B6B5A1C3A631D49B8697A6BB0FBF2F2AB
:10119000B86AB2FBF0F0BC6A04FB00F0121A0A4411
:1011A000127807F138010B4403F8302C7A6BBB6AD4
:1011B000B2FBF3F37B637B6B002BE1D107F10803F8
:1011C0001846396BFFF7FCFD0BE0BB6C013B184682
:1011D0000121FFF7F5FD04E009480521FFF7F0FDC7
:1011E00000BFBB6C1B78002B7FF41AAE3C37BD46AA
:1011F000BDE8904004B070474C2800002028000053
:101200005028000080B400AF224B224A126842F0FE
:1012100020021A601F4B1F4A126842F040021A60F7
:101220001C4B1C4A126842F008021A601A4B1A4AF8
:10123000126842F002021A60184B184A126842F013
:1012400001021A60164B164A126842F040021A60F8
:10125000144B144A126842F002021A60124B124AEE
:10126000126842F001021A60104B104A126842F0F4
:1012700040021A600E4B0E4A126842F001021A60D8
:101280000C4B0C4A126842F040021A60BD465DF8F1
:10129000047B704708E10F400064024000540240A4
:1012A000007400401C6502401C5502401C75004043
:1012B000FC530240FC73004080B483B000AF03468F
:1012C000FB8072B6064B1B781A46064BF98823F84A
:1012D000121062B60C37BD465DF8047B704700BF44
:1012E0007E0000200401002080B483B000AF0246DD
:1012F0000B46FA71BB8072B6FB79094AD35C012BAD
:1013000008D1FB79064A0021D154FA79054BB988F6
:1013100023F8121062B60C37BD465DF8047B7047A7
:10132000F80000200401002080B483B000AF002347
:10133000FB710023FB710BE0FA79094B002123F8C4
:101340001210FB79074A0121D154FB790133FB715B
:10135000FB790A2BF0D90C37BD465DF8047B70474A
:1013600004010020F800002080B582B000AF002307
:10137000FB710023FB7110E0FA790B4B53F822301C
:10138000002B07D0094BFA791A70FA79064B53F8FB
:1013900022309847FB790133FB71FB790A2BEBD99B
:1013A0000837BD4680BD00BF040000207E0000203D
:1013B00080B500AF72B6FFF7B7FFFFF7D5FF00F0BB
:1013C000A5FD62B600F0E4FD0346002B5CD00020D2
:1013D00000F040FA00F0F0FD2C4B00221A701DE0E6
:1013E0002A4B1B782A4AD35C002B11D1274B1B7840
:1013F0001A46284B33F81230002B09D0234B1B78A8
:10140000244A32F81320013A91B2224A22F81310EA
:101410001E4B1B780133DAB21C4B1A701B4B1B7826
:101420000A2BDDD9194B00221A7025E0174B1B78C7
:10143000174AD35C002B19D1144B1B781A46154B55
:1014400033F81230002B11D1104B1B781A46114B78
:10145000002123F812100D4B1A780F4B1A700B4B0A
:101460001B781A460D4B53F822309847074B1B78D0
:101470000133DAB2054B1A70044B1B780A2BD5D90D
:10148000012000F0E7F99DE79CE700BFF400002091
:10149000F8000020040100207E0000203000002021
:1014A00080B582B000AF104B7B60104B3B6007E013
:1014B0003B681A1D3A607A68111D796012681A60DB
:1014C0003A680B4B9A42F3D30A480B494FF000029B
:1014D0008842B8BF40F8042BFFF6FAAFFFF77EFA58
:1014E0000837BD4680BD00BF58280000000000201E
:1014F00068000020680000201C01002080B400AFBC
:10150000FEE700BF80B500AF09200021FFF7ECFE29
:1015100080BD00BFB0B584B000AF00237B81002345
:101520003B810023FB80664B1B88013B9AB2644BD6
:101530001A80634B1B88002B40F0BF80604B142245
:101540001A80604B1A7807F10A031046194600F01A
:1015500005F95D4B1A7807F108031046194600F0AB
:10156000FDF80346002B01D100233B813B89CD2BA5
:101570000DD93B89B3F5577F09D23B89B3F5057F78
:1015800002D2CD233B8102E04FF457733B813A896D
:101590007B89D31A9BB2FB81B7F90E30B3F5077F75
:1015A00005DDFB89A3F587639BB2FB8109E0B7F9F1
:1015B0000E3013F5077F04DAFB8903F587639BB2CE
:1015C000FB81B7F90E20414B1B881BB2D31A9BB28B
:1015D0001A46920013441A4691001A460B461344C9
:1015E0005B009BB2BB81B7F90E20394B1B681A44D4
:1015F000374B1A60364B1B68FA2B03DD344BFA224B
:101600001A6008E0324B1B6813F1FA0F03DA304B13
:101610006FF0F9021A60B7F90E30184600F02EFE8E
:1016200002460B46104619464FF00002294B00F0C7
:101630008BFE02460B4614461D46254B1B68264A68
:1016400082FB03121211DB17D31A184600F016FEA4
:1016500002460B462046294600F0C4FC02460B46D3
:10166000104619464FF000024FF0000300F0BAFC9C
:1016700002460B461046194601F078F803469BB225
:10168000FB80FB881AB240F2DC539A4203DD40F241
:10169000DC53FB8007E0FB881AB2104B9A4202DA57
:1016A0004FF62423FB800E4B1A78BB1D10461946BB
:1016B00000F074F8054BFA891A801037BD46B0BDAA
:1016C0005C000020EE000020ED00002080000020E3
:1016D000840000200000E03F1F85EB5124FAFFFF4B
:1016E000F300002080B400AF084B1B78084A9B0031
:1016F000134401229A70054B1B785A1CD1B2034A3D
:1017000011701846BD465DF8047B70478C000020C0
:10171000AC00002080B483B000AF03463960FB7199
:10172000FB790E2B12D8FB790B4A9B0013449B7854
:10173000012B0BD1FA793B681988074B23F822104B
:10174000FB79054A9B00134402229A700C37BD4670
:101750005DF8047B704700BFAC00002080B485B00A
:1017600000AF03463960FB710023FB73FB790A4A23
:101770009B0013449B78022B07D1FA79064B33F870
:1017800022203B681A800123FB73FB7B1846143729
:10179000BD465DF8047B7047AC00002080B483B088
:1017A00000AF03463960FB71FB790E2B0BD8FA7939
:1017B0003B681988064B23F82210FB79044A9B00EA
:1017C000134402229A700C37BD465DF8047B7047C3
:1017D000AC00002080B485B000AF0346FB7100234D
:1017E000FB73FB79074A9B0013449B78012B01D1C3
:1017F0000123FB73FB7B18461437BD465DF8047B61
:10180000704700BFAC00002080B485B000AF034635
:101810003960FB710023FB73FB790D4A9B00134475
:101820009B78022B0DD1FA79094B33F822203B68C3
:101830001A80FB79064A9B00134401229A70012307
:10184000FB73FB7B18461437BD465DF8047B70477D
:10185000AC00002080B483B000AF0346FB71FB797D
:10186000012B0AD0022B0FD0002B25D1154B154A86
:10187000126842F040021A601EE0124B114A1268D0
:1018800022F040021A6017E00F4B1B78002B09D1A1
:101890000D4B01221A700B4B0A4A126822F04002CB
:1018A0001A6008E0084B00221A70064B054A1268BD
:1018B00042F040021A6000BF0C37BD465DF8047B61
:1018C000704700BFFC7300405F00002080B483B00D
:1018D00000AF344B334A126842F400621A60314B55
:1018E000304A126822F480021A602E4B2D4A126888
:1018F00042F001021A602C4B6FF040021A60294B33
:10190000284A126822F470721A60264B254A12681F
:1019100042F460721A60234B224A126822F03002AD
:101920001A60204B1F4A12681A601E4B1D4A12682B
:1019300022F400521A601D4B7B6002E07B68013B81
:101940007B607B68002BF9D1164B164A126822F097
:10195000F0621A60134B134A126842F080721A60E8
:10196000104B104A126842F480021A6000BF0E4BFE
:101970001B6803F04003002BF9D00A4B094A126898
:1019800022F400621A60094B7B6002E07B68013B35
:101990007B607B68002BF9D10C37BD465DF8047B7A
:1019A000704700BF60E00F4050E00F40400D030063
:1019B00080B400AF62B6BD465DF8047B704700BFDF
:1019C00080B400AF72B6BD465DF8047B704700BFBF
:1019D00080B500AF0A200021FFF786FC80BD00BF64
:1019E000B0B586B000AF00237B810023FB800023CD
:1019F000BB7500233B61904B1B88013B9AB28E4B19
:101A00001A808D4B1B88002B40F006818A4B3222B6
:101A10001A808A4B1A78BB1D10461946FFF79EFEA6
:101A2000874B1A7807F10A0310461946FFF796FE0E
:101A30000023FB750BE0FA7DFB7D591C814B33F8CD
:101A40001110804B23F81210FB7D0133FB75FB7DD9
:101A5000012BF0D97A897B4B9A807A4B9B881A4666
:101A6000784B1B88D21A13469B0013445B003B61E2
:101A70003A69754B9A4205DA3B6903F528533033CE
:101A80003B6109E03A6940F2DC539A4204DD3B696C
:101A9000A3F52853303B3B61FB889AB23B699BB26C
:101AA000D31A9BB2FB81B7F90E20684B1B88D31A5F
:101AB0009BB21A46920013445B009BB2BB81644BFD
:101AC0001B889AB2FB8913449BB29AB2604B1A806E
:101AD0005F4B1B881BB2B3F57A7F04DD5C4B4FF480
:101AE0007A721A8009E05A4B1B881BB213F57A7F71
:101AF00003DA574B4FF618421A80B7F90E301846E2
:101B000000F0BCFB02460B461046194644A3D3E93D
:101B1000002300F019FC02460B4614461D46B7F997
:101B20000C30184600F0AAFB02460B461046194638
:101B30003DA3D3E9002300F007FC02460B462046F4
:101B4000294600F04FFA02460B4614461D46404B0C
:101B50001B881BB2184600F091FB02460B4610464C
:101B6000194633A3D3E9002300F0EEFB02460B46EF
:101B7000104619464FF00002364B00F00FFD0246AA
:101B80000B462046294600F02DFA02460B46104629
:101B9000194600F0EBFD03469BB23B813B899AB2AC
:101BA0002D4B1B889BB213449BB29BB23B813B895C
:101BB0001BB2FF2B02DDFF233B8107E03B891BB2F9
:101BC00013F1FF0F02DA4FF601733B813A89224B82
:101BD0001A80FA891D4B1A803B891BB2002B02DD4B
:101BE0000123BB7507E00223BB753B899BB25B42B7
:101BF0009BB29BB23B81BB7D1B029AB23B89DBB29D
:101C00009BB213439BB23B81144B1A7807F1080334
:101C100010461946FFF77EFD1837BD46B0BD00BF20
:101C2000A4703D0AD7A3C03F0AD7A3703D0AA73FBF
:101C3000FA7E6ABC7493583F60000020F3000020D5
:101C4000EE0000209000002024FAFFFF9600002004
:101C500098000020000024409A000020EF0000209F
:101C600080B500AF08200021FFF73EFB80BD00BF1C
:101C7000B0B586B000AF00237B810023FB8000233A
:101C8000BB7500233B61904B1B88013B9AB28E4B86
:101C90001A808D4B1B88002B40F006818A4B322224
:101CA0001A808A4B1A78BB1D10461946FFF756FD5D
:101CB000874B1A7807F10A0310461946FFF74EFDC5
:101CC0000023FB750BE0FA7DFB7D591C814B33F83B
:101CD0001110804B23F81210FB7D0133FB75FB7D47
:101CE000012BF0D97A897B4B9A807A4B9B881A46D4
:101CF000784B1B88D21A13469B0013445B003B6150
:101D00003A69754B9A4205DA3B6903F5285330333B
:101D10003B6109E03A6940F2DC539A4204DD3B69D9
:101D2000A3F52853303B3B61FB889AB23B699BB2D9
:101D3000D31A9BB2FB81B7F90E20684B1B88D31ACC
:101D40009BB21A46920013445B009BB2BB81644B6A
:101D50001B889AB2FB8913449BB29AB2604B1A80DB
:101D60005F4B1B881BB2B3F57A7F04DD5C4B4FF4ED
:101D70007A721A8009E05A4B1B881BB213F57A7FDE
:101D800003DA574B4FF618421A80B7F90E3018464F
:101D900000F074FA02460B461046194644A3D3E9F4
:101DA000002300F0D1FA02460B4614461D46B7F94F
:101DB0000C30184600F062FA02460B4610461946EF
:101DC0003DA3D3E9002300F0BFFA02460B462046AC
:101DD000294600F007F902460B4614461D46404BC3
:101DE0001B881BB2184600F049FA02460B46104603
:101DF000194633A3D3E9002300F0A6FA02460B46A6
:101E0000104619464FF00002364B00F0C7FB024661
:101E10000B462046294600F0E5F802460B461046E0
:101E2000194600F0A3FC03469BB23B813B899AB262
:101E30002D4B1B889BB213449BB29BB23B813B89C9
:101E40001BB2FF2B02DDFF233B8107E03B891BB266
:101E500013F1FF0F02DA4FF601733B813A89224BEF
:101E60001A80FA891D4B1A803B891BB2002B02DDB8
:101E70000223BB7507E00123BB753B899BB25B4224
:101E80009BB29BB23B81BB7D1B029AB23B89DBB20A
:101E90009BB213439BB23B81144B1A7807F10803A2
:101EA00010461946FFF736FC1837BD46B0BD00BFD7
:101EB000A4703D0AD7A3C03F0AD7A3703D0AA73F2D
:101EC000FA7E6ABC7493583F64000020F200002040
:101ED000EC0000209C00002024FAFFFFA20000205C
:101EE000A400002000002440A6000020F1000020F3
:101EF00080B400AF044B1B780133DAB2024B1A7086
:101F0000BD465DF8047B7047A800002080B400AF98
:101F10001A4B1A4A126822F001021A60184B4CF24E
:101F20004F321A60174B4CF24F321A60164B164A5A
:101F3000126842F000721A60144B144A126822F0C0
:101F40007F421A60114B114A126842F0FC421A603B
:101F50000A4B0A4A126842F004021A60074B074A09
:101F6000126842F002021A60044B044A126842F0FE
:101F700001021A60BD465DF8047B704710E000E086
:101F800018E000E014E000E004ED00E020ED00E0E7
:101F900080B483B000AF0023FB7172B6054B1B7891
:101FA000FB7162B6FB7918460C37BD465DF8047BC1
:101FB000704700BFA800002080B400AF72B6054B88
:101FC0001B78013BDAB2034B1A7062B6BD465DF86E
:101FD000047B7047A800002081F0004102E000BFB0
:101FE00083F0004330B54FEA41044FEA430594EAD9
:101FF000050F08BF90EA020F1FBF54EA000C55EA14
:10200000020C7FEA645C7FEA655C00F0E2804FEAE4
:102010005454D4EB5555B8BF6D420CDD2C4480EAC6
:10202000020281EA030382EA000083EA010180EAF6
:10203000020281EA0303362D88BF30BD11F0004F44
:102040004FEA01314FF4801C4CEA113102D040427A
:1020500061EB410113F0004F4FEA03334CEA1333B5
:1020600002D0524263EB430394EA050F00F0A780CD
:10207000A4F10104D5F1200E0DDB02FA0EFC22FAC8
:1020800005F2801841F1000103FA0EF2801843FABC
:1020900005F359410EE0A5F120050EF1200E012AAD
:1020A00003FA0EFC28BF4CF0020C43FA05F3C018EB
:1020B00051EBE37101F0004507D54FF0000EDCF164
:1020C000000C7EEB00006EEB0101B1F5801F1BD30D
:1020D000B1F5001F0CD349085FEA30004FEA3C0C11
:1020E00004F101044FEA445212F5800F80F09A8007
:1020F000BCF1004F08BF5FEA500C50F1000041EB0B
:10210000045141EA050130BD5FEA4C0C404141EB0E
:10211000010111F4801FA4F10104E9D191F0000F35
:1021200004BF01460020B1FA81F308BF2033A3F1B8
:102130000B03B3F120020CDA0C3208DD02F1140CAF
:10214000C2F10C0201FA0CF021FA02F10CE002F1EA
:102150001402D8BFC2F1200C01FA02F120FA0CFCE3
:10216000DCBF41EA0C019040E41AA2BF01EB04512C
:10217000294330BD6FEA04041F3C1CDA0C340EDC2A
:1021800004F11404C4F1200220FA04F001FA02F36D
:1021900040EA030021FA04F345EA030130BDC4F12B
:1021A0000C04C4F1200220FA02F001FA04F340EA20
:1021B0000300294630BD21FA04F0294630BD94F0D1
:1021C000000F83F4801306BF81F480110134013DB8
:1021D0004EE77FEA645C18BF7FEA655C29D094EA29
:1021E000050F08BF90EA020F05D054EA000C04BFA7
:1021F0001946104630BD91EA030F1EBF0021002092
:1022000030BD5FEA545C05D14000494128BF41F030
:10221000004130BD14F580043CBF01F5801130BD94
:1022200001F0004545F0FE4141F470014FF000001F
:1022300030BD7FEA645C1ABF194610467FEA655CD0
:102240001CBF0B46024650EA013406BF52EA033572
:1022500091EA030F41F4002130BD00BF90F0000F60
:1022600004BF0021704730B54FF4806404F132049C
:102270004FF000054FF0000150E700BF90F0000F55
:1022800004BF0021704730B54FF4806404F132047C
:1022900010F0004548BF40424FF000013EE700BF4C
:1022A00042004FEAE2014FEA31014FEA02701FBFDC
:1022B00012F07F4393F07F4F81F06051704792F0AE
:1022C000000F14BF93F07F4F704730B54FF4607428
:1022D00001F0004521F0004120E700BF50EA010273
:1022E00008BF704730B54FF000050AE050EA010220
:1022F00008BF704730B511F0004502D5404261EB90
:1023000041014FF4806404F132045FEA915C3FF4D0
:10231000DCAE4FF003025FEADC0C18BF03325FEA69
:10232000DC0C18BF033202EBDC02C2F1200300FA1E
:1023300003FC20FA02F001FA03FE40EA0E0021FA43
:1023400002F11444C1E600BF70B54FF0FF0C4CF42D
:10235000E06C1CEA11541DBF1CEA135594EA0C0FE3
:1023600095EA0C0F00F0DEF82C4481EA030621EA1E
:102370004C5123EA4C5350EA013518BF52EA033559
:1023800041F4801143F4801338D0A0FB02CE4FF00B
:102390000005E1FB02E506F00042E0FB03E54FF03B
:1023A0000006E1FB03569CF0000F18BF4EF0010E33
:1023B000A4F1FF04B6F5007F64F5407404D25FEA2F
:1023C0004E0E6D4146EB060642EAC62141EA5551E2
:1023D0004FEAC52040EA5E504FEACE2EB4F1FD0C24
:1023E00088BFBCF5E06F1ED8BEF1004F08BF5FEAA2
:1023F000500E50F1000041EB045170BD06F0004654
:1024000046EA010140EA020081EA0301B4EB5C0400
:10241000C2BFD4EB0C0541EA045170BD41F48011F8
:102420004FF0000E013C00F3AB8014F1360FDEBF1D
:10243000002001F0004170BDC4F10004203C35DAF9
:102440000C341BDC04F11404C4F1200500FA05F37C
:1024500020FA04F001FA05F240EA020001F000421D
:1024600021F0004110EBD37021FA04F642EB060193
:102470005EEA430E08BF20EAD37070BDC4F10C04BD
:10248000C4F1200500FA04F320FA05F001FA04F281
:1024900040EA020001F0004110EBD37041F100016D
:1024A0005EEA430E08BF20EAD37070BDC4F1200578
:1024B00000FA05F24EEA020E20FA04F301FA05F2E0
:1024C00043EA020321FA04F001F0004121FA04F288
:1024D00020EA020000EBD3705EEA430E08BF20EA58
:1024E000D37070BD94F0000F0FD101F00046400092
:1024F00041EB010111F4801F08BF013CF7D041EA14
:10250000060195F0000F18BF704703F00046520017
:1025100043EB030313F4801F08BF013DF7D043EAE8
:102520000603704794EA0C0F0CEA135518BF95EA9E
:102530000C0F0CD050EA410618BF52EA4306D1D125
:1025400081EA030101F000414FF0000070BD50EA44
:10255000410606BF1046194652EA430619D094EACE
:102560000C0F02D150EA013613D195EA0C0F05D1B8
:1025700052EA03361CBF104619460AD181EA03010C
:1025800001F0004141F0FE4141F470014FF00000C4
:1025900070BD41F0FE4141F4780170BD70B54FF05F
:1025A000FF0C4CF4E06C1CEA11541DBF1CEA1355DF
:1025B00094EA0C0F95EA0C0F00F0A7F8A4EB0504C1
:1025C00081EA030E52EA03354FEA013100F08880B8
:1025D0004FEA03334FF0805545EA131343EA126381
:1025E0004FEA022245EA111545EA10654FEA002636
:1025F0000EF000419D4208BF964244F1FD0404F5EF
:10260000407402D25B084FEA3202B61A65EB03054A
:102610005B084FEA32024FF480104FF4002CB6EB07
:10262000020E75EB030E22BFB61A754640EA0C0087
:102630005B084FEA3202B6EB020E75EB030E22BFC7
:10264000B61A754640EA5C005B084FEA3202B6EB08
:10265000020E75EB030E22BFB61A754640EA9C00C7
:102660005B084FEA3202B6EB020E75EB030E22BF97
:10267000B61A754640EADC0055EA060E18D04FEA55
:10268000051545EA16754FEA06164FEAC30343EAF5
:1026900052734FEAC2025FEA1C1CC0D111F4801FC2
:1026A0000BD141EA00014FF000004FF0004CB6E7BB
:1026B00011F4801F04BF01430020B4F1FD0C88BF5A
:1026C000BCF5E06F3FF6AFAEB5EB030C04BFB6EB65
:1026D000020C5FEA500C50F1000041EB045170BD58
:1026E0000EF0004E4EEA113114EB5C04C2BFD4EB85
:1026F0000C0541EA045170BD41F480114FF0000E09
:10270000013C90E645EA060E8DE60CEA135594EA84
:102710000C0F08BF95EA0C0F3FF43BAF94EA0C0F87
:102720000AD150EA01347FF434AF95EA0C0F7FF4FC
:1027300025AF104619462CE795EA0C0F06D152EA50
:1027400003353FF4FDAE1046194622E750EA410634
:1027500018BF52EA43067FF4C5AE50EA41047FF445
:102760000DAF52EA43057FF4EBAE12E74FEA4102A8
:1027700012F5001215D211D56FF47873B3EB6252D3
:1027800012D94FEAC12343F0004343EA505311F0FA
:10279000004F23FA02F018BF404270474FF000008C
:1027A000704750EA013005D111F0004008BF6FF0CA
:1027B000004070474FF00000704700BF53746172D3
:1027C00074696E67205350492072780D0A0000002A
:1027D0005374617274696E67205350492074780D88
:1027E0000A00000070780D0A0000000066690D0AFA
:1027F0000000000070616E0D0A00000074696C74C6
:102800000D0A00002563000025630D0A000000008A
:102810005374617274696E672075700D0A00000050
:102820003031323334353637383961626364656646
:1028300000000000202800005374617274696E6704
:1028400020756172742074780D0A00002000000069
:082850004552524F52000000F6
:1028580001001400A1090000C90B0000B90B000019
:10286800C10A000001030000190300000904000068
:10287800E1070000611C000005150000D1190000E7
:10288800BD090000910C0000490C0000D10A0000AD
:1028980089030000CD03000019040000F1070000BF
:1028A800711C000015150000E11900001400010159
:0828B8003200010032000100B2
:00000001FF
