:10000000280500202D150000891500008915000025
:100010008915000089150000891500000000000006
:100020000000000000000000000000008915000032
:100030008915000000000000891500000120000063
:100040008915000089150000891500008915000038
:100050008915000089150000891500008915000028
:100060008915000089150000891500008915000018
:100070008915000089150000891500008915000008
:100080008915000089150000891500005D0B00002E
:1000900089150000891500008915000089150000E8
:1000A00089150000891500008915000089150000D8
:1000B00089150000891500008915000089150000C8
:1000C00089150000891500008915000089150000B8
:1000D00089150000891500008915000089150000A8
:1000E0008915000089150000891500008915000098
:1000F0008915000089150000891500008915000088
:1001000080B400AF044B044A126842F002021A6045
:10011000BD465DF8047B70470480004080B400AFAA
:10012000044B044A126822F002021A60BD465DF8D0
:10013000047B70470480004080B582B000AF644B00
:10014000634A126842F001021A60614B1B68FB713E
:10015000604B604A126842F004021A605D4B5D4ACF
:10016000126842F008021A605A4B5A4A126842F06A
:1001700010021A60574B574A126842F020021A6068
:10018000554B554A126842F004021A60524B524ACB
:10019000126842F008021A604F4B4F4A126842F050
:1001A00010021A604C4B4C4A126842F020021A604E
:1001B0004A4B4A4A126822F004021A60474B474AE7
:1001C000126822F008021A60444B444A126822F076
:1001D00010021A60414B414A126822F020021A6054
:1001E0003F4B3F4A126822F004021A603C4B3C4AE3
:1001F000126822F008021A60394B394A126822F05C
:1002000010021A60364B364A126822F020021A6039
:10021000344B344A126822F004021A60314B314ADE
:10022000126822F008021A602E4B2E4A126822F041
:1002300010021A602B4B2B4A126822F020021A601F
:10024000294B294A126842F004021A60264B264ABA
:10025000126842F008021A60234B234A126842F0E7
:1002600010021A60204B204A126842F020021A60E5
:100270001E4B1E4A126842F004021A601B4B1B4AB6
:10028000126842F008021A60184B184A126842F0CD
:1002900010021A60154B154A126842F020021A60CB
:1002A000134B134A126842F010021A60FFF736FF30
:1002B000104B00221A60104B04221A600F4B41F2BF
:1002C0000B221A60FFF71CFF0837BD4680BD00BF38
:1002D00008E10F4020440040004500400C4500402C
:1002E00010450040144500401C45004000440040BB
:1002F00004E10F4004800040108000400080004076
:1003000080B500AF034800F0C9FD0220002101F0D4
:1003100031F880BDCC28000080B500AF034800F064
:10032000BDFD0120002101F025F880BDE02800007E
:1003300080B485B000AF0346FB710023FB73FB79EB
:10034000002B06D0094B1B68DBB203F00203FB73E2
:1003500005E0064B1B68DBB203F00403FB73FB7B79
:1003600018461437BD465DF8047B70470C8000408A
:1003700080B400AF034B1B689BB21846BD465DF8C6
:10038000047B70470880004080B582B000AF002039
:10039000FFF7CEFF0346002B12D00B4B1B781846FD
:1003A00001F066FA0346002B0AD0FFF7E1FF03468F
:1003B000FB80054B1A78BB1D1046194601F0F8F971
:1003C0000837BD4680BD00BFF200002080B582B076
:1003D00000AF00BF0120FFF7ABFF0346002BF9D0B1
:1003E000074B1A78BB1D1046194601F05BFA03460D
:1003F000002B02D0034BFA881A600837BD4680BD37
:10040000F30000200880004080B500AF06200021E6
:1004100000F0B0FF80BD00BF80B582B000AF002308
:10042000FB710023BB809A4B1A78FB1D10461946BE
:1004300001F038FA0346002B00F0C881954B1B7879
:10044000012B25D0022B44D0002B00D0BEE1FB793C
:10045000662B0FD0702B00D019E08F4B00221A7042
:100460008E4B01221A708B4B01221A708C4800F0BF
:1004700015FD0CE0884B01221A70884B01221A707E
:10048000844B01221A70874800F008FD00BF9DE1EF
:10049000FB79702B02D0742B0DD019E0824B002217
:1004A0001A70824B00221A607A4B02221A7080481E
:1004B00000F0F4FC0CE07C4B01221A707B4B002214
:1004C0001A60744B02221A707A4800F0E7FC00BFF1
:1004D0007CE1724B1B78042B00F2768101A252F86A
:1004E00023F000BFF9040000370500007505000087
:1004F000B3050000F1050000FB79392B1AD8FB7910
:100500002F2B17D9694B1A6813469B0013445B00C5
:100510001A46664B1A60FB79A3F13002634B1B68E5
:100520001A44624B1A605D4B01221A70624800F057
:10053000B5FC4AE149E1FB79392B1AD8FB792F2B1D
:1005400017D95A4B1A6813469B0013445B001A468E
:10055000564B1A60FB79A3F13002544B1B681A44C6
:10056000524B1A604D4B02221A70544800F096FC10
:100570002BE12AE1FB79392B1AD8FB792F2B17D9DC
:100580004A4B1A6813469B0013445B001A46474BBC
:100590001A60FB79A3F13002444B1B681A44434BA9
:1005A0001A603E4B03221A70454800F077FC0CE1BC
:1005B0000BE1FB79392B1AD8FB792F2B17D93B4B41
:1005C0001A6813469B0013445B001A46374B1A60A7
:1005D000FB79A3F13002354B1B681A44334B1A6088
:1005E0002E4B04221A70354800F058FCEDE0ECE088
:1005F000FB79392B00F2E780FB792F2B40F2E38067
:100600002A4B1A6813469B0013445B001A46274B7B
:100610001A60FB79A3F13002244B1B681A44234B68
:100620001A60284800F03AFC1B4B1B78012B55D16F
:100630001E4B1B68244A83FB02015A189112DA17D9
:100640008A1A4FF4876101FB02F29A1A174B1A605B
:10065000154B1B78012B0CD11C4B1B7818461349EA
:1006600001F0EAF8114B1B681948194600F016FC16
:10067000A5E00D4B1B78002B40F0A180154B1B789B
:1006800018460A4901F0D8F8134800F007FC96E034
:10069000F1000020680000206A0000200000002017
:1006A000F4280000FC280000690000206C000020F5
:1006B000042900000C290000142900001C29000056
:1006C000202900002429000049D6B9F2F8000020B2
:1006D00028290000F5000020342900003D4B1B783C
:1006E000002B6CD13C4B1B78012B32D13B4B1A7841
:1006F0003B1D1046194601F07FF80346BB80384B7E
:100700001B68A3F50772364B1A60354B00221A603E
:10071000BB881A46324B1B681A44314B1A60304B67
:100720001B68304A83FB02015A189112DA178A1AA1
:100730004FF4876101FB02F29A1A294B1A602A4B87
:100740001B781846264901F077F8284800F0A6FBE8
:1007500035E0214B1B78002B31D1254B1A783B1DFE
:100760001046194601F048F80346BB801C4B1B6835
:10077000A3F570721A4B1A60194B00221A60BB88DD
:100780001A46174B1B681A44154B1A60144B1B680A
:10079000144A83FB02015A189112DA178A1A4FF48D
:1007A000876101FB02F29A1A0D4B1A60114B1B78FC
:1007B00018460B4901F040F80F4800F06FFB0F4B53
:1007C00000221A7001E000E000BF00BF0837BD46FC
:1007D00080BD00BF6A00002069000020F4000020F6
:1007E0006C00002049D6B9F2F80000203C29000036
:1007F000F6000020F50000204429000068000020D9
:1008000080B500AF0720002100F0B4FD80BD00BF1F
:1008100080B586B002AF00237B8100233B8100239B
:10082000FB804E4B1B88013B9AB24C4B1A804B4BC2
:100830001B88002B40F08E80484B28221A80484BA2
:100840001A7807F10A031046194600F0D5FF454B08
:100850001A7807F108031046194600F0CDFF034649
:10086000002B01D100233B813A897B89D31A9BB2AB
:10087000FB81B7F90E30B3F5077F05DDFB89A3F5E2
:1008800087639BB2FB8109E0B7F90E3013F5077F50
:1008900004DAFB8903F587639BB2FB81B7F90E206D
:1008A000314B1B881BB2D31A9BB21A4692001344D9
:1008B0001A4691001A460B4613449BB2BB81B7F906
:1008C0000E202A4B1B681A44284B1A60274B1A68C3
:1008D00041F288339A4204DD244B41F288321A6097
:1008E00007E0224B1A68224B9A4202DA1F4B204A39
:1008F0001A603B891A46B7F90E30B7F90C1000910F
:100900001C4811461A46002300F0C8FAFB89FB80F8
:10091000FB881AB240F2DC539A4203DD40F2DC530A
:10092000FB8007E0FB881AB2134B9A4202DA4FF6BB
:100930002423FB80114B1A78BB1D1046194600F08A
:100940007BFFFB881BB20E48194600F0A7FA064B46
:10095000FA891A801037BD4680BD00BF0200002012
:10096000F4000020F8000020700000207400002037
:1009700078ECFFFF4C29000024FAFFFFFA0000206A
:100980006829000080B500AF03204FF4FA7100F031
:10099000F1FC0248002100F081FA80BD70290000BE
:1009A00080B500AF054B054A126882F001021A605B
:1009B0004FF4FA7000F0C6FC80BD00BFFC5302404B
:1009C00080B500AF01F04AF800F0CEFF00F0C4F9A6
:1009D000FFF7B2FB00F05CFC00F0D2FE03461A46C3
:1009E000244B1A7000F0CCFE03461A46224B1A70B4
:1009F00000F0C6FE03461A46204B1A7000F0C0FEF7
:100A000003461A461E4B1A7000F0BAFE03461A46F9
:100A10001C4B1A7000F0B4FE03461A461A4B1A70AB
:100A200000F0AEFE03461A46184B1A7000F0A8FEFE
:100A300003461A46164B1A7000F0A2FE03461A46E9
:100A4000144B1A7000F09CFE03461A46124B1A70A3
:100A500000F096FE03461A46104B1A7000F090FE06
:100A600003461A460E4B1A7000F0F0FF00F0E6FC49
:100A7000FEE700BFF0000020F1000020F30000209E
:100A8000F2000020F6000020F4000020F900002011
:100A9000F7000020FA000020FB000020F8000020F2
:100AA000F500002080B400AF224B224A126842F4C5
:100AB00080321A60204B204A126822F001021A602C
:100AC0001E4B00221A601E4B1D4A126822F00302C0
:100AD0001A601B4B1A4A126842F002021A60194B44
:100AE000194A1A60194B194A126842F001021A6039
:100AF000174B174A126842F400221A60154B154A28
:100B0000126822F07F421A60124B124A126842F0B9
:100B100080521A60104B104A126842F400221A6088
:100B2000054B054A126842F001021A60BD465DF8A5
:100B3000047B704704E10F400C00034000000340B9
:100B4000040003402800034040787D011800034062
:100B500080E200E010E400E000E100E080B500AFDA
:100B600000F07CFF034B034A126842F001021A6056
:100B700080BD00BF2400034080B500AFFFF792FFA7
:100B80000020002100F0F6FB80BD00BF80B582B0E0
:100B900000AF00237B8000233B800023FB80244B9D
:100BA0001A783B461046194600F07CFE0346002B9F
:100BB0000AD03B889BB2C3F309039BB243F40063A2
:100BC0009BB29BB27B8001E000237B80194B1A789B
:100BD000BB1C1046194600F0EBFD174B1A783B1D65
:100BE0001046194600F05EFE0346002B1DD0BB8860
:100BF00003F40063002B0CD0BB88C3F30A039BB241
:100C0000BB800E4B1A783B1D1046194600F014FEAF
:100C10000BE0BB88C3F30A039BB2BB80084B1A7876
:100C20003B1D1046194600F007FE0837BD4680BD43
:100C3000F9000020F3000020F2000020F600002060
:100C4000F400002080B500AF0520002100F092FBE9
:100C500080BD00BF80B500AF034800F01FF904203D
:100C6000002100F087FB80BD9829000080B485B08A
:100C700000AF0346FB710023FB73FB79002B0AD006
:100C80000D4B1B6803F02003002B14BF002301232E
:100C9000DBB2FB7309E0084B1B6803F01003002B69
:100CA00014BF00230123DBB2FB73FB7B1846143710
:100CB000BD465DF8047B704718C0004080B400AFAB
:100CC000034B1B68DBB21846BD465DF8047B7047DA
:100CD00000C0004080B582B000AF0023FB80002040
:100CE000FFF7C4FF0346002B12D00B4B1B781846AE
:100CF00000F0BEFD0346002B0AD0FFF7DFFF0346DE
:100D0000FB80054B1A78BB1D1046194600F050FDBC
:100D10000837BD4680BD00BFF100002080B582B01D
:100D200000AF00BF0120FFF7A1FF0346002BF9D061
:100D3000074B1A78BB1D1046194600F0B3FD034659
:100D4000002B02D0034BFA881A600837BD4680BDDD
:100D5000F000002000C0004080B400AF254B254AC1
:100D6000126842F001021A60234B234A126842F0D3
:100D700001021A60214B214A126842F001021A60F6
:100D80001E4B1E4A126842F002021A601C4B1C4A9B
:100D9000126842F001021A60194B194A126842F0B7
:100DA00002021A60174B174A126822F001021A60F9
:100DB000154B154A126842F4FE621A60134B1B224F
:100DC0001A60134B08221A60124B124A126842F042
:100DD00070021A600B4B0B4A126842F480721A6060
:100DE000084B084A126842F001021A60BD465DF8DD
:100DF000047B704704E10F4008E10F4020440040AD
:100E00001C45004030C0004044C0004024C00040A9
:100E100028C000402CC0004080B483B000AF786090
:100E20000B46FB7000BF074B1B6803F02003002B31
:100E3000F9D1054BFA781A600C37BD465DF8047B92
:100E4000704700BF18C0004000C0004080B584B0AB
:100E500000AF786039600023BB600023FB6014E0C2
:100E60007A68FB6813441B780A2B03D100200D21FC
:100E7000FFF7D2FF7A68FB6813441B78B8681946FD
:100E8000FFF7CAFFFB680133FB60FA683B689A42D0
:100E9000E6D3FB6818461037BD4680BD0FB490B549
:100EA0008FB000AF07F14C037B60E0E100237B6370
:100EB00002E07B6B01337B63BA6C7B6B13441B7862
:100EC000252B05D0BA6C7B6B13441B78002BF0D11B
:100ED000B86C796BFFF7BAFFBA6C7B6B1344BB64D9
:100EE000BB6C1B78252B40F0C281BB6C0133BB640B
:100EF0000023FB62202387F82330BB6C5A1CBA64A2
:100F00001B78253B532B00F2AD8101A151F823F052
:100F10005712000065120000651200006512000003
:100F200065120000651200006512000065120000E5
:100F300065120000651200006512000061100000DB
:100F400061100000611000006110000061100000DD
:100F500061100000611000006110000061100000CD
:100F600061100000651200006512000065120000AB
:100F70006512000065120000651200006512000095
:100F80006512000065120000651200006512000085
:100F90006512000065120000651200006512000075
:100FA0006512000065120000651200006512000065
:100FB0006512000065120000651200006512000055
:100FC0006512000065120000651200006512000045
:100FD0006512000065120000651200003F1100005C
:100FE0006512000065120000651200006512000025
:100FF0006512000065120000651200006512000015
:10100000651200006512000095100000AD10000090
:1010100065120000651200006512000065120000F4
:1010200065120000651200006512000065120000E4
:101030006512000065120000651200003F110000FB
:101040006512000065120000D71000006512000054
:101050002711000065120000651200003F1100001A
:10106000BB6C013B1B78302B05D1FB6A002B02D1F6
:10107000302387F82330FA6A13469B0013445B0041
:10108000FB62BB6C013B1B781A46FB6A1344303B86
:10109000FB6232E77B681A1D7A601B68BB6107F14F
:1010A000180318460121FFF7D1FEE0E07B681A1D06
:1010B0007A601B68BB6100233B63BB69002B05DAC8
:1010C000BB695B42BB6101237B6201E000237B6261
:1010D0000A23BB623EE07B681A1D7A601B68FB61D5
:1010E00000237B6302E07B6B01337B63FA697B6BDC
:1010F00013441B78002BF6D1F869796BFFF7A6FE35
:10110000FA6A7B6B9A420DD9FA6A7B6BD31AFB623F
:1011100003E05C480121FFF799FEFB6A5A1EFA6260
:10112000002BF6D1A3E07B681A1D7A601B68BB61B7
:1011300000233B630A23BB6200237B620AE07B68D7
:101140001A1D7A601B68BB6100233B631023BB62DE
:1011500000237B6201237B6307E07B6BBA6A02FB9F
:1011600003F37B63FB6A013BFB627B6BBA6A02FBA6
:1011700003F2BB699A4209D87B6BBA6A02FB03F29D
:10118000BB6AB2FBF3F27B6B9A42E6D07B6A002B20
:1011900002D0FB6A013BFB627B6A002B0ED097F802
:1011A0002330302B0AD13B6B5A1C3A6307F13802CB
:1011B00013442D2203F8302C00237B62FB6A012BA1
:1011C00016D9FB6A0F2B13D8FB6A013BFB620CE0BC
:1011D0003B6B5A1C3A6307F138010B4497F8232004
:1011E00003F8302CFB6A013BFB62FB6A002BEFD15A
:1011F0007B6A002B09D03B6B5A1C3A6307F138021B
:1012000013442D2203F8302C1BE01AE03B6B5A1CD0
:101210003A631D49B8697A6BB0FBF2F2B86AB2FB67
:10122000F0F0BC6A04FB00F0121A0A44127807F1CD
:1012300038010B4403F8302C7A6BBB6AB2FBF3F332
:101240007B637B6B002BE1D107F108031846396BF8
:10125000FFF7FCFD0BE0BB6C013B18460121FFF7DB
:10126000F5FD04E009480521FFF7F0FD00BFBB6C68
:101270001B78002B7FF41AAE3C37BD46BDE890408A
:1012800004B07047AC29000080290000B02900009C
:1012900080B400AF224B224A126842F020021A604A
:1012A0001F4B1F4A126842F040021A601C4B1C4A36
:1012B000126842F008021A601A4B1A4A126842F089
:1012C00002021A60184B184A126842F001021A60B2
:1012D000164B164A126842F040021A60144B144A28
:1012E000126842F002021A60124B124A126842F06F
:1012F00001021A60104B104A126842F040021A6054
:101300000E4B0E4A126842F001021A600C4B0C4A56
:10131000126842F040021A60BD465DF8047B7047D7
:1013200008E10F4000640240005402400074004095
:101330001C6502401C5502401C750040FC530240D5
:10134000FC73004080B483B000AF0346FB8072B6EC
:10135000064B1B781A46064BF98823F8121062B622
:101360000C37BD465DF8047B704700BF7E0000204F
:101370000C01002080B483B000AF02460B46FA7126
:10138000BB8072B6FB79094AD35C012B08D1FB798B
:10139000064A0021D154FA79054BB98823F8121076
:1013A00062B60C37BD465DF8047B70470001002033
:1013B0000C01002080B483B000AF0023FB71002338
:1013C000FB710BE0FA79094B002123F81210FB792D
:1013D000074A0121D154FB790133FB71FB790A2BB8
:1013E000F0D90C37BD465DF8047B70470C01002036
:1013F0000001002080B582B000AF0023FB71002304
:10140000FB7110E0FA790B4B53F82230002B07D018
:10141000094BFA791A70FA79064B53F8223098473B
:10142000FB790133FB71FB790A2BEBD90837BD46F9
:1014300080BD00BF040000207E00002080B500AF0A
:1014400072B6FFF7B7FFFFF7D5FF00F0E7FD62B612
:1014500000F026FE0346002B5CD0002000F048FA86
:1014600000F032FE2C4B00221A701DE02A4B1B7834
:101470002A4AD35C002B11D1274B1B781A46284BE4
:1014800033F81230002B09D0234B1B78244A32F852
:101490001320013A91B2224A22F813101E4B1B78F6
:1014A0000133DAB21C4B1A701B4B1B780A2BDDD9A7
:1014B000194B00221A7025E0174B1B78174AD35C92
:1014C000002B19D1144B1B781A46154B33F81230E8
:1014D000002B11D1104B1B781A46114B002123F819
:1014E00012100D4B1A780F4B1A700B4B1B781A46C3
:1014F0000D4B53F822309847074B1B780133DAB273
:10150000054B1A70044B1B780A2BD5D9012000F02B
:10151000EFF99DE79CE700BFFC00002000010020E0
:101520000C0100207E0000203000002080B582B039
:1015300000AF104B7B60104B3B6007E03B681A1D0F
:101540003A607A68111D796012681A603A680B4B2C
:101550009A42F3D30A480B494FF000028842B8BFC1
:1015600040F8042BFFF6FAAFFFF72AFA0837BD461A
:1015700080BD00BFD82900000000002068000020C6
:10158000680000202401002080B400AFFEE700BF07
:1015900080B500AF09200021FFF7ECFE80BD00BF41
:1015A000B0B584B000AF00237B8100233B810023D2
:1015B000FB80684B1B88013B9AB2664B1A80654BD7
:1015C0001B88002B40F0C380624B14221A80624BB0
:1015D0001A7807F10A031046194600F00DF95F4B1F
:1015E0001A7807F108031046194600F005F903467A
:1015F000002B01D100233B813B89CD2B0DD93B89A9
:10160000B3F5577F09D23B89B3F5057F02D2CD23CD
:101610003B8102E04FF457733B813A897B89D31AAF
:101620009BB2FB81B7F90E30B3F5077F05DDFB896F
:10163000A3F587639BB2FB8109E0B7F90E3013F580
:10164000077F04DAFB8903F587639BB2FB81B7F957
:101650000E20434B1B881BB2D31A4FF47A7202FB45
:1016600003F3404A82FB0312D210DB17D31ABB816B
:10167000B7F90E203C4B1B681A443B4B1A603A4B9F
:101680001A6842F210739A4204DD374B42F210722C
:101690001A6007E0344B1A68344B9A4202DA324B34
:1016A000324A1A60B7F90E30184600F06FFE024653
:1016B0000B46104619464FF000022D4B00F0CCFEB1
:1016C00002460B4614461D46274B1A6813465B001C
:1016D0001344284A82FB03125213DB17D31A18460D
:1016E00000F054FE02460B462046294600F002FD5B
:1016F00002460B46104619464FF000024FF0000319
:1017000000F0F8FC02460B461046194601F0B6F808
:1017100003469BB2FB80FB881AB240F2DC539A422C
:1017200003DD40F2DC53FB8007E0FB881AB2124B6A
:101730009A4202DA4FF62423FB80104B1A78BB1D25
:101740001046194600F078F8054BFA891A801037D0
:10175000BD46B0BD5C000020F6000020F500002072
:10176000800000206766666684000020F0D8FFFFD6
:101770000000E03FAD8BDB6824FAFFFFFB00002098
:1017800080B400AF084B1B78084A9B001344012229
:101790009A70054B1B785A1CD1B2034A1170184637
:1017A000BD465DF8047B70478C000020B40000202B
:1017B00080B483B000AF03463960FB71FB790E2B18
:1017C00012D8FB790B4A9B0013449B78012B0BD159
:1017D000FA793B681988074B23F82210FB79054AF0
:1017E0009B00134402229A700C37BD465DF8047BBF
:1017F000704700BFB400002080B485B000AF03463E
:101800003960FB710023FB73FB790A4A9B00134488
:101810009B78022B07D1FA79064B33F822203B68DC
:101820001A800123FB73FB7B18461437BD465DF815
:10183000047B7047B400002080B483B000AF03463F
:101840003960FB71FB790E2B0BD8FA793B6819884C
:10185000064B23F82210FB79044A9B001344022212
:101860009A700C37BD465DF8047B7047B4000020C9
:1018700080B485B000AF0346FB710023FB73FB7996
:10188000074A9B0013449B78012B01D10123FB7372
:10189000FB7B18461437BD465DF8047B704700BFDC
:1018A000B400002080B485B000AF03463960FB71FE
:1018B0000023FB73FB790D4A9B0013449B78022B9A
:1018C0000DD1FA79094B33F822203B681A80FB7955
:1018D000064A9B00134401229A700123FB73FB7B91
:1018E00018461437BD465DF8047B7047B4000020ED
:1018F00080B483B000AF0346FB71FB79012B0AD0A3
:10190000022B0FD0002B25D1154B154A126842F03F
:1019100040021A601EE0124B114A126822F0400287
:101920001A6017E00F4B1B78002B09D10D4B0122D9
:101930001A700B4B0A4A126822F040021A6008E043
:10194000084B00221A70064B054A126842F040020A
:101950001A6000BF0C37BD465DF8047B704700BFBE
:10196000FC7300405F00002080B483B000AF344BB4
:10197000334A126842F400621A60314B304A1268EE
:1019800022F480021A602E4B2D4A126842F00102A6
:101990001A602C4B6FF040021A60294B284A1268DB
:1019A00022F470721A60264B254A126842F4607263
:1019B0001A60234B224A126822F030021A60204B30
:1019C0001F4A12681A601E4B1D4A126822F4005208
:1019D0001A601D4B7B6002E07B68013B7B607B688B
:1019E000002BF9D1164B164A126822F0F0621A60E9
:1019F000134B134A126842F080721A60104B104A5F
:101A0000126842F480021A6000BF0E4B1B6803F09C
:101A10004003002BF9D00A4B094A126822F40062F5
:101A20001A60094B7B6002E07B68013B7B607B684E
:101A3000002BF9D10C37BD465DF8047B704700BF21
:101A400060E00F4050E00F40400D030080B400AF55
:101A500062B6BD465DF8047B704700BF80B400AF3E
:101A600072B6BD465DF8047B704700BF80B500AF1D
:101A70000A200021FFF77EFC80BD00BF00000000AF
:101A8000B0B584B000AF0023FB8100233B8000236E
:101A90003B730023BB60944B1B88013B9AB2924B73
:101AA0001A80914B1B88002B40F00F818E4B28220F
:101AB0001A808E4B1A783B4610461946FFF7F2FE05
:101AC0008B4B1B7818468B49FFF796FE00237B73E0
:101AD0000BE07A7B7B7B591C874B33F81110864BCC
:101AE00023F812107B7B01337B737B7B012BF0D9B6
:101AF000804B1A88804B9A807F4B9B881A467E4B7E
:101B00001B88D31A4FF47A7202FB03F37B4A82FBE1
:101B100003125211DB17D31ABB60BA68784B9A4292
:101B200005DABB6803F552533C33BB6009E0BA6881
:101B300040F2DC539A4204DDBB68A3F552533C3BB0
:101B4000BB603B889AB2BB689BB2D31A9BB2FB8046
:101B5000B7F906206B4B1B88D31A4FF47A7202FB3D
:101B600003F3664A82FB03125211DB17D31ABB80C0
:101B7000FA89FB8813449BB2FB81B7F90E2040F22F
:101B8000E2439A4203DD40F2E243FB8107E0B7F90A
:101B90000E205D4B9A4202DA4FF61E33FB81B7F9F5
:101BA0000630184600F0F2FB02460B461046194676
:101BB00047A3D3E9002300F04FFC02460B4614462E
:101BC0001D46B7F90430184600F0E0FB02460B460C
:101BD0001046194640A3D3E9002300F03DFC02461D
:101BE0000B462046294600F085FA02460B4614466D
:101BF0001D46B7F90E30184600F0C8FB02460B46EA
:101C00001046194636A3D3E9002300F025FC02460E
:101C10000B46104619464FF000023C4B00F046FDC3
:101C200002460B46104619464FF00002384B00F0B2
:101C30003DFD02460B462046294600F05BFA02466F
:101C40000B461046194600F019FE03469BB27B80F6
:101C50007B889AB22F4B1B889BB213449BB29BB2DA
:101C60007B807B881BB2FF2B02DDFF237B8007E09C
:101C70007B881BB213F1FF0F02DA4FF601737B80F2
:101C80007A88244B1A80FA881E4B1A807B881BB2F4
:101C9000002B02DD02233B7307E001233B737B88AB
:101CA0009BB25B429BB29BB27B803B7B1B029AB296
:101CB0007B88DBB29BB213439BB27B80164B1A78B6
:101CC000BB1C10461946FFF773FD1037BD46B0BD6B
:101CD000A4703D0AD7A3C03F0AD7A3703D0AA73F0F
:101CE000FA7E6ABC7493583F60000020FB0000201D
:101CF000F6000020900000209400002067666666D1
:101D000024FAFFFF9A0000201EFBFFFF00408F40D7
:101D1000000054409C000020F7000020AFF300803A
:101D200080B500AF08200021FFF724FB80BD00BF75
:101D3000B0B584B000AF00233B800023BB73002309
:101D4000BB609F4B1B88013B9AB29D4B1A809C4BFA
:101D50001B88002B40F02581994B28221A80994B33
:101D60001A783B4610461946FFF746FD3B881BB2E2
:101D700095481946FFF792F8944B1B7818469449FA
:101D8000FFF73AFD0023FB730BE0FA7BFB7B591C4A
:101D9000904B33F811108F4B23F81210FB7B01335B
:101DA000FB73FB7B012BF0D9894B1A88894B9A80F6
:101DB000884B9B881A46874B1B88D31A4FF47A723C
:101DC00002FB03F3844A82FB03125211DB17D31A7E
:101DD000BB60BA68814B9A4205DABB6803F552537F
:101DE0003C33BB6009E0BA6840F2DC539A4204DD40
:101DF000BB68A3F552533C3BBB603B889AB2BB68BF
:101E00009BB2D31A9BB2FB80B7F90620744B1B8898
:101E1000D31A4FF47A7202FB03F36F4A82FB031268
:101E20005211DB17D31ABB806E4B1B889AB2FB880A
:101E300013449BB29AB26B4B1A806A4B1B881AB23E
:101E400040F2E2439A4204DD664B40F2E2421A80DD
:101E500009E0644B1B881AB2634B9A4203DA614B68
:101E60004FF61E321A80B7F90630184600F08EFA87
:101E700002460B46104619464BA3D3E9002300F057
:101E8000EBFA02460B4614461D46B7F904301846D5
:101E900000F07CFA02460B461046194644A3D3E9EB
:101EA000002300F0D9FA02460B462046294600F0EE
:101EB00021F902460B4614461D464A4B1B881BB2AD
:101EC000184600F063FA02460B46104619463AA33C
:101ED000D3E9002300F0C0FA02460B46104619462B
:101EE0004FF00002414B00F0E1FB02460B4610466A
:101EF00019464FF000023E4B00F0D8FB02460B465D
:101F00002046294600F0F6F802460B4610461946D0
:101F100000F0B4FC03469BB27B807B889AB2354BC1
:101F20001B889BB213449BB29BB27B807B881BB205
:101F3000FF2B02DDFF237B8007E07B881BB213F1C0
:101F4000FF0F02DA4FF601737B807A88294B1A80E3
:101F5000FA88234B1A807B881BB22748B9681A4637
:101F6000FEF79CFF7B881BB2002B02DD0223BB73B4
:101F700007E00123BB737B889BB25B429BB29BB2A1
:101F80007B80BB7B1B029AB27B88DBB29BB2134384
:101F90009BB27B80194B1A78BB1C10461946FFF781
:101FA0004BFC1037BD46B0BDA4703D0AD7A3C03F5F
:101FB0000AD7A3703D0AA73FFA7E6ABC7493583FC4
:101FC00064000020FA000020B8290000F40000207E
:101FD000A0000020A40000206766666624FAFFFFC8
:101FE000AA000020AC0000201EFBFFFF00408F4035
:101FF00000005440AE000020C4290000F900002079
:1020000080B400AF044B1B780133DAB2024B1A7074
:10201000BD465DF8047B7047B000002080B400AF7F
:102020001A4B1A4A126822F001021A60184B4CF23D
:102030004F321A60174B4CF24F321A60164B164A49
:10204000126842F000721A60144B144A126822F0AF
:102050007F421A60114B114A126842F0FC421A602A
:102060000A4B0A4A126842F004021A60074B074AF8
:10207000126842F002021A60044B044A126842F0ED
:1020800001021A60BD465DF8047B704710E000E075
:1020900018E000E014E000E004ED00E020ED00E0D6
:1020A00080B483B000AF0023FB7172B6054B1B7880
:1020B000FB7162B6FB7918460C37BD465DF8047BB0
:1020C000704700BFB000002080B400AF72B6054B6F
:1020D0001B78013BDAB2034B1A7062B6BD465DF85D
:1020E000047B7047B000002081F0004102E000BF97
:1020F00083F0004330B54FEA41044FEA430594EAC8
:10210000050F08BF90EA020F1FBF54EA000C55EA02
:10211000020C7FEA645C7FEA655C00F0E2804FEAD3
:102120005454D4EB5555B8BF6D420CDD2C4480EAB5
:10213000020281EA030382EA000083EA010180EAE5
:10214000020281EA0303362D88BF30BD11F0004F33
:102150004FEA01314FF4801C4CEA113102D0404269
:1021600061EB410113F0004F4FEA03334CEA1333A4
:1021700002D0524263EB430394EA050F00F0A780BC
:10218000A4F10104D5F1200E0DDB02FA0EFC22FAB7
:1021900005F2801841F1000103FA0EF2801843FAAB
:1021A00005F359410EE0A5F120050EF1200E012A9C
:1021B00003FA0EFC28BF4CF0020C43FA05F3C018DA
:1021C00051EBE37101F0004507D54FF0000EDCF153
:1021D000000C7EEB00006EEB0101B1F5801F1BD3FC
:1021E000B1F5001F0CD349085FEA30004FEA3C0C00
:1021F00004F101044FEA445212F5800F80F09A80F6
:10220000BCF1004F08BF5FEA500C50F1000041EBF9
:10221000045141EA050130BD5FEA4C0C404141EBFD
:10222000010111F4801FA4F10104E9D191F0000F24
:1022300004BF01460020B1FA81F308BF2033A3F1A7
:102240000B03B3F120020CDA0C3208DD02F1140C9E
:10225000C2F10C0201FA0CF021FA02F10CE002F1D9
:102260001402D8BFC2F1200C01FA02F120FA0CFCD2
:10227000DCBF41EA0C019040E41AA2BF01EB04511B
:10228000294330BD6FEA04041F3C1CDA0C340EDC19
:1022900004F11404C4F1200220FA04F001FA02F35C
:1022A00040EA030021FA04F345EA030130BDC4F11A
:1022B0000C04C4F1200220FA02F001FA04F340EA0F
:1022C0000300294630BD21FA04F0294630BD94F0C0
:1022D000000F83F4801306BF81F480110134013DA7
:1022E0004EE77FEA645C18BF7FEA655C29D094EA18
:1022F000050F08BF90EA020F05D054EA000C04BF96
:102300001946104630BD91EA030F1EBF0021002080
:1023100030BD5FEA545C05D14000494128BF41F01F
:10232000004130BD14F580043CBF01F5801130BD83
:1023300001F0004545F0FE4141F470014FF000000E
:1023400030BD7FEA645C1ABF194610467FEA655CBF
:102350001CBF0B46024650EA013406BF52EA033561
:1023600091EA030F41F4002130BD00BF90F0000F4F
:1023700004BF0021704730B54FF4806404F132048B
:102380004FF000054FF0000150E700BF90F0000F44
:1023900004BF0021704730B54FF4806404F132046B
:1023A00010F0004548BF40424FF000013EE700BF3B
:1023B00042004FEAE2014FEA31014FEA02701FBFCB
:1023C00012F07F4393F07F4F81F06051704792F09D
:1023D000000F14BF93F07F4F704730B54FF4607417
:1023E00001F0004521F0004120E700BF50EA010262
:1023F00008BF704730B54FF000050AE050EA01020F
:1024000008BF704730B511F0004502D5404261EB7E
:1024100041014FF4806404F132045FEA915C3FF4BF
:10242000DCAE4FF003025FEADC0C18BF03325FEA58
:10243000DC0C18BF033202EBDC02C2F1200300FA0D
:1024400003FC20FA02F001FA03FE40EA0E0021FA32
:1024500002F11444C1E600BF70B54FF0FF0C4CF41C
:10246000E06C1CEA11541DBF1CEA135594EA0C0FD2
:1024700095EA0C0F00F0DEF82C4481EA030621EA0D
:102480004C5123EA4C5350EA013518BF52EA033548
:1024900041F4801143F4801338D0A0FB02CE4FF0FA
:1024A0000005E1FB02E506F00042E0FB03E54FF02A
:1024B0000006E1FB03569CF0000F18BF4EF0010E22
:1024C000A4F1FF04B6F5007F64F5407404D25FEA1E
:1024D0004E0E6D4146EB060642EAC62141EA5551D1
:1024E0004FEAC52040EA5E504FEACE2EB4F1FD0C13
:1024F00088BFBCF5E06F1ED8BEF1004F08BF5FEA91
:10250000500E50F1000041EB045170BD06F0004642
:1025100046EA010140EA020081EA0301B4EB5C04EF
:10252000C2BFD4EB0C0541EA045170BD41F48011E7
:102530004FF0000E013C00F3AB8014F1360FDEBF0C
:10254000002001F0004170BDC4F10004203C35DAE8
:102550000C341BDC04F11404C4F1200500FA05F36B
:1025600020FA04F001FA05F240EA020001F000420C
:1025700021F0004110EBD37021FA04F642EB060182
:102580005EEA430E08BF20EAD37070BDC4F10C04AC
:10259000C4F1200500FA04F320FA05F001FA04F270
:1025A00040EA020001F0004110EBD37041F100015C
:1025B0005EEA430E08BF20EAD37070BDC4F1200567
:1025C00000FA05F24EEA020E20FA04F301FA05F2CF
:1025D00043EA020321FA04F001F0004121FA04F277
:1025E00020EA020000EBD3705EEA430E08BF20EA47
:1025F000D37070BD94F0000F0FD101F00046400081
:1026000041EB010111F4801F08BF013CF7D041EA02
:10261000060195F0000F18BF704703F00046520006
:1026200043EB030313F4801F08BF013DF7D043EAD7
:102630000603704794EA0C0F0CEA135518BF95EA8D
:102640000C0F0CD050EA410618BF52EA4306D1D114
:1026500081EA030101F000414FF0000070BD50EA33
:10266000410606BF1046194652EA430619D094EABD
:102670000C0F02D150EA013613D195EA0C0F05D1A7
:1026800052EA03361CBF104619460AD181EA0301FB
:1026900001F0004141F0FE4141F470014FF00000B3
:1026A00070BD41F0FE4141F4780170BD70B54FF04E
:1026B000FF0C4CF4E06C1CEA11541DBF1CEA1355CE
:1026C00094EA0C0F95EA0C0F00F0A7F8A4EB0504B0
:1026D00081EA030E52EA03354FEA013100F08880A7
:1026E0004FEA03334FF0805545EA131343EA126370
:1026F0004FEA022245EA111545EA10654FEA002625
:102700000EF000419D4208BF964244F1FD0404F5DD
:10271000407402D25B084FEA3202B61A65EB030539
:102720005B084FEA32024FF480104FF4002CB6EBF6
:10273000020E75EB030E22BFB61A754640EA0C0076
:102740005B084FEA3202B6EB020E75EB030E22BFB6
:10275000B61A754640EA5C005B084FEA3202B6EBF7
:10276000020E75EB030E22BFB61A754640EA9C00B6
:102770005B084FEA3202B6EB020E75EB030E22BF86
:10278000B61A754640EADC0055EA060E18D04FEA44
:10279000051545EA16754FEA06164FEAC30343EAE4
:1027A00052734FEAC2025FEA1C1CC0D111F4801FB1
:1027B0000BD141EA00014FF000004FF0004CB6E7AA
:1027C00011F4801F04BF01430020B4F1FD0C88BF49
:1027D000BCF5E06F3FF6AFAEB5EB030C04BFB6EB54
:1027E000020C5FEA500C50F1000041EB045170BD47
:1027F0000EF0004E4EEA113114EB5C04C2BFD4EB74
:102800000C0541EA045170BD41F480114FF0000EF7
:10281000013C90E645EA060E8DE60CEA135594EA73
:102820000C0F08BF95EA0C0F3FF43BAF94EA0C0F76
:102830000AD150EA01347FF434AF95EA0C0F7FF4EB
:1028400025AF104619462CE795EA0C0F06D152EA3F
:1028500003353FF4FDAE1046194622E750EA410623
:1028600018BF52EA43067FF4C5AE50EA41047FF434
:102870000DAF52EA43057FF4EBAE12E74FEA410297
:1028800012F5001215D211D56FF47873B3EB6252C2
:1028900012D94FEAC12343F0004343EA505311F0E9
:1028A000004F23FA02F018BF404270474FF000007B
:1028B000704750EA013005D111F0004008BF6FF0B9
:1028C000004070474FF00000704700BF53746172C2
:1028D00074696E67205350492072780D0A00000019
:1028E0005374617274696E67205350492074780D77
:1028F0000A00000070780D0A0000000066690D0AE9
:102900000000000070616E0D0A00000074696C74B4
:102910000D0A000054540D0A00000000740D0A0056
:10292000680D0A006F0D0A006669543A2025640D8F
:102930000A0000006669500D0A0000007078540D0E
:102940000A0000007078500D0A00000047503A2538
:10295000642C65723A25642C69653A25642C64659B
:102960003A25640D0A00000057533A25640D0A0009
:102970005374617274696E672075700D0A000000EF
:1029800030313233343536373839616263646566E5
:1029900000000000802900005374617274696E6742
:1029A00020756172742074780D0A00002000000008
:1029B0004552524F5200000047533A2025640D0AF9
:1029C0000000000063733A2025642C2070776D3A74
:0829D0002025640D0A0000003F
:1029D80001002800790B0000190300000103000022
:1029E80085090000550C0000450C00000904000092
:1029F80001080000211D0000911500006D1A00005B
:102A08008D0B0000CD03000089030000A109000020
:102A18001D0D0000D50C000019040000110800006D
:102A2800311D0000A1150000811A000014000101E9
:082A3800280001002800010044
:00000001FF
