:1000000020050020D11600002D1700002D1700003C
:100010002D1700002D1700002D1700000000000014
:100020000000000000000000000000002D1700008C
:100030002D170000000000002D17000051210000C6
:100040002D1700002D1700002D1700002D170000A0
:100050002D1700002D1700002D1700002D17000090
:100060002D1700002D1700002D1700002D17000080
:100070002D1700002D1700002D1700002D17000070
:100080002D1700002D1700002D1700002D17000060
:100090002D1700002D1700002D1700002D17000050
:1000A0002D1700002D1700002D1700002D17000040
:1000B0002D1700002D1700002D1700002D17000030
:1000C0002D1700002D1700002D1700002D17000020
:1000D0002D1700002D1700002D1700002D17000010
:1000E0002D1700002D1700002D1700002D17000000
:1000F0002D1700002D1700002D1700002D170000F0
:1001000080B400AF044B044A126842F002021A6045
:10011000BD465DF8047B70470480004080B400AFAA
:10012000044B044A126822F002021A60BD465DF8D0
:10013000047B70470480004080B582B000AF644B00
:10014000634A126842F001021A60614B1B68FB713E
:10015000604B604A126842F004021A605D4B5D4ACF
:10016000126842F008021A605A4B5A4A126842F06A
:1001700010021A60574B574A126842F020021A6068
:10018000554B554A126842F004021A60524B524ACB
:10019000126842F008021A604F4B4F4A126842F050
:1001A00010021A604C4B4C4A126842F020021A604E
:1001B0004A4B4A4A126822F004021A60474B474AE7
:1001C000126822F008021A60444B444A126822F076
:1001D00010021A60414B414A126822F020021A6054
:1001E0003F4B3F4A126822F004021A603C4B3C4AE3
:1001F000126822F008021A60394B394A126822F05C
:1002000010021A60364B364A126822F020021A6039
:10021000344B344A126822F004021A60314B314ADE
:10022000126822F008021A602E4B2E4A126822F041
:1002300010021A602B4B2B4A126822F020021A601F
:10024000294B294A126842F004021A60264B264ABA
:10025000126842F008021A60234B234A126842F0E7
:1002600010021A60204B204A126842F020021A60E5
:100270001E4B1E4A126842F004021A601B4B1B4AB6
:10028000126842F008021A60184B184A126842F0CD
:1002900010021A60154B154A126842F020021A60CB
:1002A000134B134A126842F010021A60FFF736FF30
:1002B000104B00221A60104B04221A600F4B41F2BF
:1002C0000B221A60FFF71CFF0837BD4680BD00BF38
:1002D00008E10F4020440040004500400C4500402C
:1002E00010450040144500401C45004000440040BB
:1002F00004E10F4004800040108000400080004076
:1003000080B500AF034800F09BFE0420002101F0FF
:1003100003F980BD1C2A000080B500AF034800F03F
:100320008FFE0520002101F0F7F880BD302A000083
:1003300080B485B000AF0346FB710023FB73FB79EB
:10034000002B06D0094B1B68DBB203F00203FB73E2
:1003500005E0064B1B68DBB203F00403FB73FB7B79
:1003600018461437BD465DF8047B70470C8000408A
:1003700080B400AF034B1B689BB21846BD465DF8C6
:10038000047B70470880004080B582B000AF002039
:10039000FFF7CEFF0346002B12D00B4B1B781846FD
:1003A00001F04EFB0346002B0AD0FFF7E1FF0346A6
:1003B000FB80054B1A78BB1D1046194601F0E0FA88
:1003C0000837BD4680BD00BFEA00002080B582B07E
:1003D00000AF00BF0120FFF7ABFF0346002BF9D0B1
:1003E000074B1A78BB1D1046194601F043FB034624
:1003F000002B02D0034BFA881A600837BD4680BD37
:10040000EB0000200880004080B500AF06200021EE
:1004100001F082F880BD00BF80B582B000AF00233C
:10042000FB710023BB809C4B1A78FB1D10461946BC
:1004300001F020FB0346002B00F0B882974B1B789D
:10044000012B25D0022B44D0002B00D0AEE2FB794B
:10045000662B0FD0702B00D019E0914B00221A7040
:10046000904B01221A708D4B01221A708E4800F0B9
:10047000E7FD0CE08A4B01221A708A4B01221A70A8
:10048000864B01221A70894800F0DAFD00BF8DE228
:10049000FB79702B02D0742B0DD019E0844B002215
:1004A0001A70844B00221A607C4B02221A70824818
:1004B00000F0C6FD0CE07E4B01221A707D4B00223D
:1004C0001A60764B02221A707C4800F0B9FD00BF1A
:1004D0006CE2744B1B78042B00F2668201A151F888
:1004E00023F000BFF90400003B0500007D0500007B
:1004F000BF05000001060000FB79392B1CD8FB79F1
:100500002F2B19D96B4B1A6813469B0013445B00C1
:100510001A46684B1A60FB79A3F13002654B1B68E1
:100520001A44644B1A605F4B01221A70FB796448CD
:10053000194600F085FD38E237E2FB79392B1CD8EB
:10054000FB792F2B19D95B4B1A6813469B00134478
:100550005B001A46574B1A60FB79A3F13002554BEA
:100560001B681A44534B1A604E4B02221A70FB79D7
:100570005348194600F064FD17E216E2FB79392B67
:100580001CD8FB792F2B19D94A4B1A6813469B00AC
:1005900013445B001A46474B1A60FB79A3F1300203
:1005A000444B1B681A44434B1A603E4B03221A709B
:1005B000FB794348194600F043FDF6E1F5E1FB798C
:1005C000392B1CD8FB792F2B19D93A4B1A681346B3
:1005D0009B0013445B001A46364B1A60FB79A3F16B
:1005E0003002344B1B681A44324B1A602D4B0422E4
:1005F0001A70FB793248194600F022FDD5E1D4E1AA
:10060000FB79392B00F2CF81FB792F2B40F2CB8184
:10061000284B1A6813469B0013445B001A46254B6F
:100620001A60FB79A3F13002224B1B681A44214B5C
:100630001A60FB792348194600F002FD184B1B781D
:10064000012B40F08F801B4B1B681F4A83FB02016C
:100650005A189112DA178A1A4FF4876101FB02F2D5
:100660009A1A144B1A60124B1B78012B48D1174B66
:100670001A783B1D1046194601F0A6F9BB881A46A8
:100680000C4B1B689A4223DDBA880A4B1B689BB24D
:10069000D31A9BB2BB8022E0E90000206800002052
:1006A0006A00002000000020442A00004C2A0000BC
:1006B000690000206C000020542A00005C2A000021
:1006C000642A0000682A000049D6B9F2F000002030
:1006D000694B1B689AB2BB88D31A9BB2BB80BB889C
:1006E000082B40F25C81654B1B781846624901F08B
:1006F0008BF9614B1B686248194600F0A1FC4EE182
:10070000604B1B78002B40F04A815C4B1A783B1DF4
:100710001046194601F058F9BB881A46564B1B681B
:100720009A4207DDBA88544B1B689BB2D31A9BB21E
:10073000BB8006E0504B1B689AB2BB88D31A9BB2B1
:10074000BB80BB88082B40F22A814F4B1B78184690
:10075000494901F059F9484B1B684C48194600F0CB
:100760006FFC1CE14A4B1B78002B40F01881454B75
:100770001B78012B40F09480464B1A783B1D1046A5
:10078000194601F021F93C4B1B68B3F5876F03DD77
:10079000394B4FF487621A60374B1B68A3F5077219
:1007A000354B1A60344B1A6813465B001A44324BBF
:1007B0001A60314B1A6813461B019B1A5B001A46DC
:1007C0002D4B1A602C4B1B68334A82FB03121A44D0
:1007D0009212DB17D21A284B1A60BB881A46264B96
:1007E0001B681A44244B1A60234B1B68002B05DA44
:1007F000214B1B6803F587621F4B1A601E4B1B6859
:10080000254A82FB03121A449112DA178A1A4FF40E
:10081000876101FB02F29A1A174B1A60174B1A787C
:100820003B1D1046194601F0CFF8BB881A46124B03
:100830001B689A4207DDBA880F4B1B689BB2D31A1C
:100840009BB2BB8006E00C4B1B689AB2BB88D31AE4
:100850009BB2BB80BB88082B40F2A180074B1B7862
:100860001846054901F0D0F8034B1B680B481946A0
:1008700000F0E6FB93E000BF6C000020F0000020D9
:10088000702A000069000020ED0000207C2A000092
:100890006A000020EC00002049D6B9F2882A000046
:1008A000444B1B78002B7AD1434B1A783B1D1046E2
:1008B000194601F089F8414B1B68B3F5F06F03DD71
:1008C0003E4B4FF4F0621A603C4B1B68A3F570720C
:1008D0003A4B1A60394B1A6813465B001A44374B7F
:1008E0001A60364B1B68462202FB03F2334B1A6038
:1008F000324B1B68324A82FB03121A449212DB17F6
:10090000D21A2E4B1A60BB881A462C4B1B681A440D
:100910002A4B1A60294B1B68002B05DA274B1B68F2
:1009200003F58762254B1A60244B1B68254A83FB1D
:1009300002015A189112DA178A1A4FF4876101FBE3
:1009400002F29A1A1D4B1A601F4B1A783B1D104673
:10095000194601F039F8BB881A46184B1B689A42B1
:1009600007DDBA88154B1B689BB2D31A9BB2BB80BC
:1009700006E0124B1B689AB2BB88D31A9BB2BB80AD
:10098000BB88082B0BD9104B1B7818460B4901F07C
:100990003BF80A4B1B680D48194600F051FB0C4B05
:1009A00000221A7001E000E000BF00BF0837BD461A
:1009B00080BD00BF69000020EE0000206C00002018
:1009C0008988888849D6B9F2ED000020942A000071
:1009D0006800002080B500AF0720002100F09CFDDA
:1009E00080BD00BF00000000B0B584B000AF0023A0
:1009F0007B8100233B810023FB806B4B1B88013BE9
:100A00009AB2694B1A80684B1B88002B40F0BF805C
:100A1000654B14221A80654B1A7807F10A031046B9
:100A2000194600F0D1FF624B1A7807F1080310460F
:100A3000194600F0C9FF0346002B01D100233B817A
:100A40003A897B89D31A9BB2FB81B7F90E30B3F593
:100A5000077F05DDFB89A3F587639BB2FB8109E076
:100A6000B7F90E3013F5077F04DAFB8903F58763C6
:100A70009BB2FB81B7F90E204E4B1B881BB2D31AD9
:100A80009BB21A46920013441A4691001A460B462E
:100A900013445B009BB2BB81B7F90E20464B1B6829
:100AA0001A44454B1A60444B1A6840F6C4139A42E4
:100AB00004DD414B40F6C4121A6007E03E4B1A6851
:100AC0003E4B9A4202DA3C4B3C4A1A60B7F90E3070
:100AD000184601F003FD04460D46374B1B681846C7
:100AE00001F0FCFC02460B46104619462AA3D3E946
:100AF000002301F059FD02460B46104619464FF0FF
:100B000000022F4B01F07AFE02460B462046294692
:100B100001F098FB02460B4614461D46B7F90C300F
:100B2000184601F0DBFC02460B46104619461CA392
:100B3000D3E9002301F038FD02460B462046294642
:100B400001F080FB02460B461046194601F03EFFBD
:100B500003469BB2FB80FB881AB240F2DC539A42F8
:100B600003DD40F2DC53FB8007E0FB881AB2154B33
:100B70009A4202DA4FF62423FB80134B1A78BB1DEE
:100B80001046194600F040FF0A4BFA891A801037C8
:100B9000BD46B0BDAFF300809A9999999999A93F44
:100BA0009A9999999999C93F02000020EC00002078
:100BB000F000002070000020740000203CF6FFFFD1
:100BC0000000494024FAFFFFF2000020AFF300804C
:100BD00080B500AF00204FF4FA7100F09DFC024890
:100BE000002100F02DFA80BDA02A000080B500AFE2
:100BF000054B054A126882F001021A604FF4FA7040
:100C000000F072FC80BD00BFFC53024080B500AF15
:100C100001F00CF800F090FF00F070F9FFF78CFA8B
:100C200000F008FC00F094FE03461A46244B1A70AC
:100C300000F08EFE03461A46224B1A7000F088FE22
:100C400003461A46204B1A7000F082FE03461A46ED
:100C50001E4B1A7000F07CFE03461A461C4B1A709D
:100C600000F076FE03461A461A4B1A7000F070FE2A
:100C700003461A46184B1A7000F06AFE03461A46DD
:100C8000164B1A7000F064FE03461A46144B1A7095
:100C900000F05EFE03461A46124B1A7000F058FE32
:100CA00003461A46104B1A7000F052FE03461A46CD
:100CB0000E4B1A7000F0B2FF00F092FCFEE700BF8E
:100CC000E8000020E9000020EB000020EA000020FE
:100CD000EE000020EC000020F1000020EF000020DA
:100CE000F2000020F3000020F0000020ED000020C2
:100CF00080B500AF0320002100F00EFC80BD00BFD6
:100D000080B582B000AF0023BB8000237B8000232E
:100D10003B802F4B1A78BB1C1046194600F0AAFEE8
:100D20000346002B0AD07B889BB2C3F309039BB216
:100D300043F400639BB29BB2BB8016E0254B1A784C
:100D40003B461046194600F095FE0346002B0AD09C
:100D50003B889BB2C3F309039BB243F440639BB24D
:100D60009BB2BB8001E00023BB801B4B1A783B1D6C
:100D70001046194600F004FE184B1A78BB1D1046A9
:100D8000194600F077FE0346002B1DD0FB8803F4C4
:100D90000063002B0CD0FB88C3F30A039BB2FB80DB
:100DA0000F4B1A78BB1D1046194600F02DFE0BE0C4
:100DB000FB88C3F30A039BB2FB800A4B1A78BB1D66
:100DC0001046194600F020FE0837BD4680BD00BF22
:100DD000F1000020EF000020EB000020EA000020DE
:100DE000EE000020EC00002080B500AF02200021C2
:100DF00000F092FB80BD00BF80B500AF034800F05B
:100E00001FF90120002100F087FB80BDC82A0000E7
:100E100080B485B000AF0346FB710023FB73FB7900
:100E2000002B0AD00D4B1B6803F02003002B14BFCE
:100E300000230123DBB2FB7309E0084B1B6803F0BE
:100E40001003002B14BF00230123DBB2FB73FB7BD9
:100E500018461437BD465DF8047B704718C0004043
:100E600080B400AF034B1B68DBB21846BD465DF88B
:100E7000047B704700C0004080B582B000AF002303
:100E8000FB800020FFF7C4FF0346002B12D00B4B62
:100E90001B78184600F0D4FD0346002B0AD0FFF75C
:100EA000DFFF0346FB80054B1A78BB1D1046194631
:100EB00000F066FD0837BD4680BD00BFE900002098
:100EC00080B582B000AF00BF0120FFF7A1FF03464D
:100ED000002BF9D0074B1A78BB1D1046194600F0BD
:100EE000C9FD0346002B02D0034BFA881A6008376D
:100EF000BD4680BDE800002000C0004080B400AFC7
:100F0000254B254A126842F001021A60234B234AFE
:100F1000126842F001021A60214B214A126842F025
:100F200001021A601E4B1E4A126842F002021A6049
:100F30001C4B1C4A126842F001021A60194B194AF4
:100F4000126842F002021A60174B174A126822F028
:100F500001021A60154B154A126842F4FE621A60CB
:100F6000134B1B221A60134B08221A60124B124AB1
:100F7000126842F070021A600B4B0B4A126842F47E
:100F800080721A60084B084A126842F001021A6027
:100F9000BD465DF8047B704704E10F4008E10F4057
:100FA000204400401C45004030C0004044C0004088
:100FB00024C0004028C000402CC0004080B483B052
:100FC00000AF78600B46FB7000BF074B1B6803F057
:100FD0002003002BF9D1054BFA781A600C37BD4677
:100FE0005DF8047B704700BF18C0004000C000409F
:100FF00080B584B000AF786039600023BB60002307
:10100000FB6014E07A68FB6813441B780A2B03D159
:1010100000200D21FFF7D2FF7A68FB6813441B788C
:10102000B8681946FFF7CAFFFB680133FB60FA682E
:101030003B689A42E6D3FB6818461037BD4680BD30
:101040000FB490B58FB000AF07F14C037B60E0E1C7
:1010500000237B6302E07B6B01337B63BA6C7B6BA9
:1010600013441B78252B05D0BA6C7B6B13441B787B
:10107000002BF0D1B86C796BFFF7BAFFBA6C7B6BC1
:101080001344BB64BB6C1B78252B40F0C281BB6C46
:101090000133BB640023FB62202387F82330BB6C41
:1010A0005A1CBA641B78253B532B00F2AD8101A179
:1010B00051F823F0FB13000009140000091400008C
:1010C00009140000091400000914000009140000AC
:1010D000091400000914000009140000091400009C
:1010E00005120000051200000512000005120000A4
:1010F0000512000005120000051200000512000094
:101100000512000005120000091400000914000077
:10111000091400000914000009140000091400005B
:10112000091400000914000009140000091400004B
:10113000091400000914000009140000091400003B
:10114000091400000914000009140000091400002B
:10115000091400000914000009140000091400001B
:10116000091400000914000009140000091400000B
:1011700009140000091400000914000009140000FB
:10118000E312000009140000091400000914000013
:1011900009140000091400000914000009140000DB
:1011A000091400000914000009140000391200009D
:1011B0005112000009140000091400000914000075
:1011C00009140000091400000914000009140000AB
:1011D000091400000914000009140000091400009B
:1011E000E312000009140000091400007B12000043
:1011F00009140000CB1200000914000009140000BB
:10120000E3120000BB6C013B1B78302B05D1FB6A5D
:10121000002B02D1302387F82330FA6A13469B0053
:1012200013445B00FB62BB6C013B1B781A46FB6AF4
:101230001344303BFB6232E77B681A1D7A601B68FF
:10124000BB6107F1180318460121FFF7D1FEE0E06A
:101250007B681A1D7A601B68BB6100233B63BB6916
:10126000002B05DABB695B42BB6101237B6201E0B5
:1012700000237B620A23BB623EE07B681A1D7A6012
:101280001B68FB6100237B6302E07B6B01337B63A4
:10129000FA697B6B13441B78002BF6D1F869796BE4
:1012A000FFF7A6FEFA6A7B6B9A420DD9FA6A7B6B4E
:1012B000D31AFB6203E05C480121FFF799FEFB6A49
:1012C0005A1EFA62002BF6D1A3E07B681A1D7A60E1
:1012D0001B68BB6100233B630A23BB6200237B6264
:1012E0000AE07B681A1D7A601B68BB6100233B63C0
:1012F0001023BB6200237B6201237B6307E07B6BCF
:10130000BA6A02FB03F37B63FB6A013BFB627B6B04
:10131000BA6A02FB03F2BB699A4209D87B6BBA6ACC
:1013200002FB03F2BB6AB2FBF3F27B6B9A42E6D09C
:101330007B6A002B02D0FB6A013BFB627B6A002BBD
:101340000ED097F82330302B0AD13B6B5A1C3A63EE
:1013500007F1380213442D2203F8302C00237B625E
:10136000FB6A012B16D9FB6A0F2B13D8FB6A013BD2
:10137000FB620CE03B6B5A1C3A6307F138010B44EB
:1013800097F8232003F8302CFB6A013BFB62FB6AD1
:10139000002BEFD17B6A002B09D03B6B5A1C3A63C0
:1013A00007F1380213442D2203F8302C1BE01AE019
:1013B0003B6B5A1C3A631D49B8697A6BB0FBF2F279
:1013C000B86AB2FBF0F0BC6A04FB00F0121A0A44DF
:1013D000127807F138010B4403F8302C7A6BBB6AA2
:1013E000B2FBF3F37B637B6B002BE1D107F10803C6
:1013F0001846396BFFF7FCFD0BE0BB6C013B184650
:101400000121FFF7F5FD04E009480521FFF7F0FD94
:1014100000BFBB6C1B78002B7FF41AAE3C37BD4677
:10142000BDE8904004B07047DC2A0000B02A0000FC
:10143000E02A000080B400AF224B224A126842F03A
:1014400020021A601F4B1F4A126842F040021A60C5
:101450001C4B1C4A126842F008021A601A4B1A4AC6
:10146000126842F002021A60184B184A126842F0E1
:1014700001021A60164B164A126842F040021A60C6
:10148000144B144A126842F002021A60124B124ABC
:10149000126842F001021A60104B104A126842F0C2
:1014A00040021A600E4B0E4A126842F001021A60A6
:1014B0000C4B0C4A126842F040021A60BD465DF8BF
:1014C000047B704708E10F40006402400054024072
:1014D000007400401C6502401C5502401C75004011
:1014E000FC530240FC73004080B483B000AF03465D
:1014F000FB8072B6064B1B781A46064BF98823F818
:10150000121062B60C37BD465DF8047B704700BF11
:101510007E0000200401002080B483B000AF0246AA
:101520000B46FA71BB8072B6FB79094AD35C012B7A
:1015300008D1FB79064A0021D154FA79054BB988C4
:1015400023F8121062B60C37BD465DF8047B704775
:10155000F80000200401002080B483B000AF002315
:10156000FB710023FB710BE0FA79094B002123F892
:101570001210FB79074A0121D154FB790133FB7129
:10158000FB790A2BF0D90C37BD465DF8047B704718
:1015900004010020F800002080B582B000AF0023D5
:1015A000FB710023FB7110E0FA790B4B53F82230EA
:1015B000002B07D0094BFA791A70FA79064B53F8C9
:1015C00022309847FB790133FB71FB790A2BEBD969
:1015D0000837BD4680BD00BF040000207E0000200B
:1015E00080B500AF72B6FFF7B7FFFFF7D5FF00F089
:1015F000BDFD62B600F0FCFD0346002B5CD0002070
:1016000000F05EFA00F008FE2C4B00221A701DE07C
:101610002A4B1B782A4AD35C002B11D1274B1B780D
:101620001A46284B33F81230002B09D0234B1B7875
:10163000244A32F81320013A91B2224A22F81310B8
:101640001E4B1B780133DAB21C4B1A701B4B1B78F4
:101650000A2BDDD9194B00221A7025E0174B1B7895
:10166000174AD35C002B19D1144B1B781A46154B23
:1016700033F81230002B11D1104B1B781A46114B46
:10168000002123F812100D4B1A780F4B1A700B4BD8
:101690001B781A460D4B53F822309847074B1B789E
:1016A0000133DAB2054B1A70044B1B780A2BD5D9DB
:1016B000012000F005FA9DE79CE700BFF400002040
:1016C000F8000020040100207E00002030000020EF
:1016D00080B582B000AF104B7B60104B3B6007E0E1
:1016E0003B681A1D3A607A68111D796012681A60A9
:1016F0003A680B4B9A42F3D30A480B494FF0000269
:101700008842B8BF40F8042BFFF6FAAFFFF77EFA25
:101710000837BD4680BD00BFE82A00000000002059
:1017200068000020680000201C01002080B400AF89
:10173000FEE700BF80B500AF09200021FFF7ECFEF7
:1017400080BD00BF00000000B0B584B000AF002332
:101750007B8100233B810023FB80734B1B88013B73
:101760009AB2714B1A80704B1B88002B40F0D080CE
:101770006D4B14221A806D4B1A7807F10A0310463C
:10178000194600F021F96A4B1A7807F10803104650
:10179000194600F019F90346002B01D100233B81C3
:1017A0003B89CD2B0DD93B89B3F5577F09D23B89B6
:1017B000B3F5057F02D2CD233B8102E04FF457738E
:1017C0003B813A897B89D31A9BB2FB81B7F90E30F2
:1017D000B3F5077F05DDFB89A3F587639BB2FB812A
:1017E00009E0B7F90E3013F5077F04DAFB8903F53A
:1017F00087639BB2FB81B7F90E204E4B1B881BB24F
:10180000D31A9BB21A46920013441A4691001A4604
:101810000B4613445B009BB2BB81B7F90E20464BCD
:101820001B681A44444B1A60434B1A6840F6C413B1
:101830009A4204DD404B40F6C4121A6007E03E4B6A
:101840001A683E4B9A4202DA3B4B3C4A1A60B7F99F
:101850000E30184600F042FE04460D46364B1B681B
:10186000184600F03BFE02460B46104619462AA3D6
:10187000D3E9002300F098FE02460B4610461946B5
:101880004FF000022E4B00F0B9FF02460B462046F7
:10189000294600F0D7FC02460B4614461D46B7F910
:1018A0000C30184600F01AFE02460B461046194648
:1018B0001BA3D3E9002300F077FE02460B46204627
:1018C000294600F0BFFC02460B461046194601F0BF
:1018D0007DF803469BB2FB80FB881AB240F2DC53D2
:1018E0009A4203DD40F2DC53FB8007E0FB881AB22A
:1018F000144B9A4202DA4FF62423FB80124B1A78DB
:10190000BB1D1046194600F07FF80A4BFA891A8071
:101910001037BD46B0BD00BF9A9999999999A93FD2
:101920009A9999999999C93F5C000020EE0000208E
:10193000ED00002080000020840000203CF6FFFF26
:101940000000494024FAFFFFF3000020AFF30080BD
:1019500080B400AF084B1B78084A9B001344012257
:101960009A70054B1B785A1CD1B2034A1170184665
:10197000BD465DF8047B70478C000020AC00002061
:1019800080B483B000AF03463960FB71FB790E2B46
:1019900012D8FB790B4A9B0013449B78012B0BD187
:1019A000FA793B681988074B23F82210FB79054A1E
:1019B0009B00134402229A700C37BD465DF8047BED
:1019C000704700BFAC00002080B485B000AF034674
:1019D0003960FB710023FB73FB790A4A9B001344B7
:1019E0009B78022B07D1FA79064B33F822203B680B
:1019F0001A800123FB73FB7B18461437BD465DF844
:101A0000047B7047AC00002080B483B000AF034675
:101A10003960FB71FB790E2B0BD8FA793B6819887A
:101A2000064B23F82210FB79044A9B001344022240
:101A30009A700C37BD465DF8047B7047AC000020FF
:101A400080B485B000AF0346FB710023FB73FB79C4
:101A5000074A9B0013449B78012B01D10123FB73A0
:101A6000FB7B18461437BD465DF8047B704700BF0A
:101A7000AC00002080B485B000AF03463960FB7134
:101A80000023FB73FB790D4A9B0013449B78022BC8
:101A90000DD1FA79094B33F822203B681A80FB7983
:101AA000064A9B00134401229A700123FB73FB7BBF
:101AB00018461437BD465DF8047B7047AC00002023
:101AC00080B483B000AF0346FB71FB79012B0AD0D1
:101AD000022B0FD0002B25D1154B154A126842F06E
:101AE00040021A601EE0124B114A126822F04002B6
:101AF0001A6017E00F4B1B78002B09D10D4B012208
:101B00001A700B4B0A4A126822F040021A6008E071
:101B1000084B00221A70064B054A126842F0400238
:101B20001A6000BF0C37BD465DF8047B704700BFEC
:101B3000FC7300405F00002080B483B000AF344BE2
:101B4000334A126842F400621A60314B304A12681C
:101B500022F480021A602E4B2D4A126842F00102D4
:101B60001A602C4B6FF040021A60294B284A126809
:101B700022F470721A60264B254A126842F4607291
:101B80001A60234B224A126822F030021A60204B5E
:101B90001F4A12681A601E4B1D4A126822F4005236
:101BA0001A601D4B7B6002E07B68013B7B607B68B9
:101BB000002BF9D1164B164A126822F0F0621A6017
:101BC000134B134A126842F080721A60104B104A8D
:101BD000126842F480021A6000BF0E4B1B6803F0CB
:101BE0004003002BF9D00A4B094A126822F4006224
:101BF0001A60094B7B6002E07B68013B7B607B687D
:101C0000002BF9D10C37BD465DF8047B704700BF4F
:101C100060E00F4050E00F40400D030080B400AF83
:101C200062B6BD465DF8047B704700BF80B400AF6C
:101C300072B6BD465DF8047B704700BF80B500AF4B
:101C40000A200021FFF768FC80BD00BF00000000F3
:101C5000B0B586B000AF00237B810023FB8000235A
:101C6000BB7500233B61904B1B88013B9AB28E4BA6
:101C70001A808D4B1B88002B40F006818A4B322244
:101C80001A808A4B1A78BB1D10461946FFF79CFE36
:101C9000874B1A7807F10A0310461946FFF794FE9E
:101CA0000023FB750BE0FA7DFB7D591C814B33F85B
:101CB0001110804B23F81210FB7D0133FB75FB7D67
:101CC000012BF0D97A897B4B9A807A4B9B881A46F4
:101CD000784B1B88D21A13469B0013445B003B6170
:101CE0003A69754B9A4205DA3B6903F5285330335C
:101CF0003B6109E03A6940F2DC539A4204DD3B69FA
:101D0000A3F52853303B3B61FB889AB23B699BB2F9
:101D1000D31A9BB2FB81B7F90E20684B1B88D31AEC
:101D20009BB21A46920013445B009BB2BB81644B8A
:101D30001B889AB2FB8913449BB29AB2604B1A80FB
:101D40005F4B1B881BB2B3F57A7F04DD5C4B4FF40D
:101D50007A721A8009E05A4B1B881BB213F57A7FFE
:101D600003DA574B4FF618421A80B7F90E3018466F
:101D700000F0B4FB02460B461046194644A3D3E9D3
:101D8000002300F011FC02460B4614461D46B7F92D
:101D90000C30184600F0A2FB02460B4610461946CE
:101DA0003DA3D3E9002300F0FFFB02460B4620468B
:101DB000294600F047FA02460B4614461D46404BA2
:101DC0001B881BB2184600F089FB02460B461046E2
:101DD000194633A3D3E9002300F0E6FB02460B4685
:101DE000104619464FF00002364B00F007FD024640
:101DF0000B462046294600F025FA02460B461046BF
:101E0000194600F0E3FD03469BB23B813B899AB241
:101E10002D4B1B889BB213449BB29BB23B813B89E9
:101E20001BB2FF2B02DDFF233B8107E03B891BB286
:101E300013F1FF0F02DA4FF601733B813A89224B0F
:101E40001A80FA891D4B1A803B891BB2002B02DDD8
:101E50000123BB7507E00223BB753B899BB25B4244
:101E60009BB29BB23B81BB7D1B029AB23B89DBB22A
:101E70009BB213439BB23B81144B1A7807F10803C2
:101E800010461946FFF77CFD1837BD46B0BD00BFB0
:101E9000A4703D0AD7A3C03F0AD7A3703D0AA73F4D
:101EA000FA7E6ABC7493583F60000020F300002063
:101EB000EE0000209000002024FAFFFF9600002092
:101EC00098000020000024409A000020EF0000202D
:101ED00080B500AF08200021FFF71EFB80BD00BFCA
:101EE000B0B586B000AF00237B810023FB800023C8
:101EF000BB7500233B618C4B1B88013B9AB28A4B1C
:101F00001A80894B1B88002B40F0FE80864B1E22D6
:101F10001A80864B1A78BB1D10461946FFF754FDF0
:101F2000834B1A7807F10A0310461946FFF74CFD58
:101F30000023FB750BE0FA7DFB7D591C7D4B33F8CC
:101F400011107C4B23F81210FB7D0133FB75FB7DD8
:101F5000012BF0D97A89774B9A80764B9B881A4669
:101F6000744B1B88D31A1B013B613A69724B9A422E
:101F700004DA3B6903F587433B6108E03A6940F2C4
:101F8000DC539A4203DD3B69A3F587433B61FB8841
:101F90009AB23B699BB2D31A9BB2FB81B7F90E2070
:101FA000664B1B88D31A9BB21B019BB2BB81644B4F
:101FB0001B889AB2FB8913449BB29AB2604B1A8079
:101FC0005F4B1B881BB2B3F5C86F04DD5C4B4FF44D
:101FD000C8621A8009E05A4B1B881BB213F5C86F00
:101FE00003DA574B4FF6C0121A80B7F90E30184675
:101FF00000F074FA02460B461046194644A3D3E992
:10200000002300F0D1FA02460B4614461D46B7F9EC
:102010000C30184600F062FA02460B46104619468C
:102020003DA3D3E9002300F0BFFA02460B46204649
:10203000294600F007F902460B4614461D46404B60
:102040001B881BB2184600F049FA02460B461046A0
:10205000194633A3D3E9002300F0A6FA02460B4643
:10206000104619464FF00002364B00F0C7FB0246FF
:102070000B462046294600F0E5F802460B4610467E
:10208000194600F0A3FC03469BB23B813B899AB200
:102090002D4B1B889BB213449BB29BB23B813B8967
:1020A0001BB2FF2B02DDFF233B8107E03B891BB204
:1020B00013F1FF0F02DA4FF601733B813A89224B8D
:1020C0001A80FA891D4B1A803B891BB2002B02DD56
:1020D0000223BB7507E00123BB753B899BB25B42C2
:1020E0009BB29BB23B81BB7D1B029AB23B89DBB2A8
:1020F0009BB213439BB23B81144B1A7807F1080340
:1021000010461946FFF73CFC1837BD46B0BD00BF6E
:10211000757632384A5EBD3FB7EBA529029C8E3FEB
:102120004B3ACAC16C029C3F64000020F2000020C0
:10213000EC0000209C00002024FAFFFFA2000020F9
:10214000A400002000003040A6000020F100002084
:1021500080B400AF044B1B780133DAB2024B1A7023
:10216000BD465DF8047B7047A800002080B400AF36
:102170001A4B1A4A126822F001021A60184B4CF2EC
:102180004F321A60174B4CF24F321A60164B164AF8
:10219000126842F000721A60144B144A126822F05E
:1021A0007F421A60114B114A126842F0FC421A60D9
:1021B0000A4B0A4A126842F004021A60074B074AA7
:1021C000126842F002021A60044B044A126842F09C
:1021D00001021A60BD465DF8047B704710E000E024
:1021E00018E000E014E000E004ED00E020ED00E085
:1021F00080B483B000AF0023FB7172B6054B1B782F
:10220000FB7162B6FB7918460C37BD465DF8047B5E
:10221000704700BFA800002080B400AF72B6054B25
:102220001B78013BDAB2034B1A7062B6BD465DF80B
:10223000047B7047A800002081F0004102E000BF4D
:1022400083F0004330B54FEA41044FEA430594EA76
:10225000050F08BF90EA020F1FBF54EA000C55EAB1
:10226000020C7FEA645C7FEA655C00F0E2804FEA82
:102270005454D4EB5555B8BF6D420CDD2C4480EA64
:10228000020281EA030382EA000083EA010180EA94
:10229000020281EA0303362D88BF30BD11F0004FE2
:1022A0004FEA01314FF4801C4CEA113102D0404218
:1022B00061EB410113F0004F4FEA03334CEA133353
:1022C00002D0524263EB430394EA050F00F0A7806B
:1022D000A4F10104D5F1200E0DDB02FA0EFC22FA66
:1022E00005F2801841F1000103FA0EF2801843FA5A
:1022F00005F359410EE0A5F120050EF1200E012A4B
:1023000003FA0EFC28BF4CF0020C43FA05F3C01888
:1023100051EBE37101F0004507D54FF0000EDCF101
:10232000000C7EEB00006EEB0101B1F5801F1BD3AA
:10233000B1F5001F0CD349085FEA30004FEA3C0CAE
:1023400004F101044FEA445212F5800F80F09A80A4
:10235000BCF1004F08BF5FEA500C50F1000041EBA8
:10236000045141EA050130BD5FEA4C0C404141EBAC
:10237000010111F4801FA4F10104E9D191F0000FD3
:1023800004BF01460020B1FA81F308BF2033A3F156
:102390000B03B3F120020CDA0C3208DD02F1140C4D
:1023A000C2F10C0201FA0CF021FA02F10CE002F188
:1023B0001402D8BFC2F1200C01FA02F120FA0CFC81
:1023C000DCBF41EA0C019040E41AA2BF01EB0451CA
:1023D000294330BD6FEA04041F3C1CDA0C340EDCC8
:1023E00004F11404C4F1200220FA04F001FA02F30B
:1023F00040EA030021FA04F345EA030130BDC4F1C9
:102400000C04C4F1200220FA02F001FA04F340EABD
:102410000300294630BD21FA04F0294630BD94F06E
:10242000000F83F4801306BF81F480110134013D55
:102430004EE77FEA645C18BF7FEA655C29D094EAC6
:10244000050F08BF90EA020F05D054EA000C04BF44
:102450001946104630BD91EA030F1EBF002100202F
:1024600030BD5FEA545C05D14000494128BF41F0CE
:10247000004130BD14F580043CBF01F5801130BD32
:1024800001F0004545F0FE4141F470014FF00000BD
:1024900030BD7FEA645C1ABF194610467FEA655C6E
:1024A0001CBF0B46024650EA013406BF52EA033510
:1024B00091EA030F41F4002130BD00BF90F0000FFE
:1024C00004BF0021704730B54FF4806404F132043A
:1024D0004FF000054FF0000150E700BF90F0000FF3
:1024E00004BF0021704730B54FF4806404F132041A
:1024F00010F0004548BF40424FF000013EE700BFEA
:1025000042004FEAE2014FEA31014FEA02701FBF79
:1025100012F07F4393F07F4F81F06051704792F04B
:10252000000F14BF93F07F4F704730B54FF46074C5
:1025300001F0004521F0004120E700BF50EA010210
:1025400008BF704730B54FF000050AE050EA0102BD
:1025500008BF704730B511F0004502D5404261EB2D
:1025600041014FF4806404F132045FEA915C3FF46E
:10257000DCAE4FF003025FEADC0C18BF03325FEA07
:10258000DC0C18BF033202EBDC02C2F1200300FABC
:1025900003FC20FA02F001FA03FE40EA0E0021FAE1
:1025A00002F11444C1E600BF70B54FF0FF0C4CF4CB
:1025B000E06C1CEA11541DBF1CEA135594EA0C0F81
:1025C00095EA0C0F00F0DEF82C4481EA030621EABC
:1025D0004C5123EA4C5350EA013518BF52EA0335F7
:1025E00041F4801143F4801338D0A0FB02CE4FF0A9
:1025F0000005E1FB02E506F00042E0FB03E54FF0D9
:102600000006E1FB03569CF0000F18BF4EF0010ED0
:10261000A4F1FF04B6F5007F64F5407404D25FEACC
:102620004E0E6D4146EB060642EAC62141EA55517F
:102630004FEAC52040EA5E504FEACE2EB4F1FD0CC1
:1026400088BFBCF5E06F1ED8BEF1004F08BF5FEA3F
:10265000500E50F1000041EB045170BD06F00046F1
:1026600046EA010140EA020081EA0301B4EB5C049E
:10267000C2BFD4EB0C0541EA045170BD41F4801196
:102680004FF0000E013C00F3AB8014F1360FDEBFBB
:10269000002001F0004170BDC4F10004203C35DA97
:1026A0000C341BDC04F11404C4F1200500FA05F31A
:1026B00020FA04F001FA05F240EA020001F00042BB
:1026C00021F0004110EBD37021FA04F642EB060131
:1026D0005EEA430E08BF20EAD37070BDC4F10C045B
:1026E000C4F1200500FA04F320FA05F001FA04F21F
:1026F00040EA020001F0004110EBD37041F100010B
:102700005EEA430E08BF20EAD37070BDC4F1200515
:1027100000FA05F24EEA020E20FA04F301FA05F27D
:1027200043EA020321FA04F001F0004121FA04F225
:1027300020EA020000EBD3705EEA430E08BF20EAF5
:10274000D37070BD94F0000F0FD101F0004640002F
:1027500041EB010111F4801F08BF013CF7D041EAB1
:10276000060195F0000F18BF704703F000465200B5
:1027700043EB030313F4801F08BF013DF7D043EA86
:102780000603704794EA0C0F0CEA135518BF95EA3C
:102790000C0F0CD050EA410618BF52EA4306D1D1C3
:1027A00081EA030101F000414FF0000070BD50EAE2
:1027B000410606BF1046194652EA430619D094EA6C
:1027C0000C0F02D150EA013613D195EA0C0F05D156
:1027D00052EA03361CBF104619460AD181EA0301AA
:1027E00001F0004141F0FE4141F470014FF0000062
:1027F00070BD41F0FE4141F4780170BD70B54FF0FD
:10280000FF0C4CF4E06C1CEA11541DBF1CEA13557C
:1028100094EA0C0F95EA0C0F00F0A7F8A4EB05045E
:1028200081EA030E52EA03354FEA013100F0888055
:102830004FEA03334FF0805545EA131343EA12631E
:102840004FEA022245EA111545EA10654FEA0026D3
:102850000EF000419D4208BF964244F1FD0404F58C
:10286000407402D25B084FEA3202B61A65EB0305E8
:102870005B084FEA32024FF480104FF4002CB6EBA5
:10288000020E75EB030E22BFB61A754640EA0C0025
:102890005B084FEA3202B6EB020E75EB030E22BF65
:1028A000B61A754640EA5C005B084FEA3202B6EBA6
:1028B000020E75EB030E22BFB61A754640EA9C0065
:1028C0005B084FEA3202B6EB020E75EB030E22BF35
:1028D000B61A754640EADC0055EA060E18D04FEAF3
:1028E000051545EA16754FEA06164FEAC30343EA93
:1028F00052734FEAC2025FEA1C1CC0D111F4801F60
:102900000BD141EA00014FF000004FF0004CB6E758
:1029100011F4801F04BF01430020B4F1FD0C88BFF7
:10292000BCF5E06F3FF6AFAEB5EB030C04BFB6EB02
:10293000020C5FEA500C50F1000041EB045170BDF5
:102940000EF0004E4EEA113114EB5C04C2BFD4EB22
:102950000C0541EA045170BD41F480114FF0000EA6
:10296000013C90E645EA060E8DE60CEA135594EA22
:102970000C0F08BF95EA0C0F3FF43BAF94EA0C0F25
:102980000AD150EA01347FF434AF95EA0C0F7FF49A
:1029900025AF104619462CE795EA0C0F06D152EAEE
:1029A00003353FF4FDAE1046194622E750EA4106D2
:1029B00018BF52EA43067FF4C5AE50EA41047FF4E3
:1029C0000DAF52EA43057FF4EBAE12E74FEA410246
:1029D00012F5001215D211D56FF47873B3EB625271
:1029E00012D94FEAC12343F0004343EA505311F098
:1029F000004F23FA02F018BF404270474FF000002A
:102A0000704750EA013005D111F0004008BF6FF067
:102A1000004070474FF00000704700BF5374617270
:102A200074696E67205350492072780D0A000000C7
:102A30005374617274696E67205350492074780D25
:102A40000A00000070780D0A0000000066690D0A97
:102A50000000000070616E0D0A00000074696C7463
:102A60000D0A00002563000025630D0A0000000028
:102A700046543A2025640D0A0000000046503A20D2
:102A800025640D0A0000000050543A2025640D0A08
:102A90000000000050503A2025640D0A000000009C
:102AA0005374617274696E672075700D0A000000BE
:102AB00030313233343536373839616263646566B4
:102AC00000000000B02A00005374617274696E67E0
:102AD00020756172742074780D0A000020000000D7
:082AE0004552524F5200000064
:102AE80001001400D10B0000F90D0000E90D0000F1
:102AF800F10C0000010300001903000009040000A4
:102B0800D5090000D11E0000351700003D1C00004B
:102B1800ED0B0000C10E0000790E0000010D000051
:102B280089030000CD03000019040000E909000032
:102B3800E11E000049170000511C000014000101AB
:082B4800320001001E00010033
:00000001FF
